:020000040800F2
:10000000980700201D0C000857020008590200083C
:100010005D0200086102000865020008000000009F
:10002000000000000000000000000000690200085D
:100030006B020008000000006D0200086F0200085B
:10004000370C0008370C0008370C0008370C000884
:10005000370C0008370C000831090008370C00087D
:10006000370C0008370C0008370C0008370C000864
:10007000370C0008370C0008370C0008370C000854
:10008000370C0008370C0008370C0008370C000844
:10009000370C0008370C0008370C0008370C000834
:1000A000370C0008370C0008370C0008370C000824
:1000B000370C0008370C0008370C0008370C000814
:1000C000370C0008370C0008370C0008370C000804
:1000D000370C0008910B0008370C0008370C00089B
:1000E000370C0008370C0008370C0008370C0008E4
:1000F000370C0008370C0008370C0008370C0008D4
:10010000370C0008370C0008370C0008370C0008C3
:10011000370C0008370C0008370C0008370C0008B3
:10012000370C0008370C0008370C0008370C0008A3
:10013000370C0008370C0008370C0008370C000893
:10014000370C0008370C0008370C0008370C000883
:10015000370C0008370C0008370C0008370C000873
:10016000370C0008370C0008370C0008370C000863
:10017000370C0008370C0008370C0008370C000853
:10018000370C0008370C000800F002F800F03CF8CB
:100190000AA090E8000C82448344AAF10107DA45E2
:1001A00001D100F031F8AFF2090EBAE80F0013F0F8
:1001B000010F18BFFB1A43F001031847641F00002A
:1001C000841F0000103A24BF78C878C1FAD85207BB
:1001D00024BF30C830C144BF04680C6070470000C1
:1001E0000023002400250026103A28BF78C1FBD840
:1001F000520728BF30C148BF0B6070471FB501F0E0
:1002000089FF1FBD10B510BD01F051FF1146FFF76A
:10021000F5FF00F008F801F06FFF03B4FFF7F2FFFD
:1002200003BC00F03BFC4FF4A06000F017FDA820D9
:1002300000F0B2FB4FF4E13000F054FC00F020F984
:1002400000F03EF900F01CFB00F07EFB02E0002015
:1002500000F054F9FBE7704700BFFEE700BFFEE780
:1002600000BFFEE700BFFEE770477047704770476A
:100270000CB50020019000907648006840F4803072
:100280007449086000BF7348006800F400300090B3
:100290000198401C0190009818B90198B0F5A04F42
:1002A000F1D16C48006800F4003010B101200090DA
:1002B00001E0002000900098012846D165484030B8
:1002C000006840F08050634940310860624800682F
:1002D00040F44040604908605E48083000685D496D
:1002E000083108600846006840F40040086008468D
:1002F000006840F4A05008605848091F0860081FB3
:10030000006840F08070091F086000BF5148006815
:1003100000F000700028F9D040F2057050490860E4
:100320004C480830006820F003004A490831086052
:100330000846006840F00200086000BF45480830E9
:10034000006800F00C000828F8D10CBD10B5454835
:10035000006840F47000434908603E48006840F07F
:1003600001003C49086000203A49083108603948DA
:1003700000683D490840374908603C48091D08604D
:10038000081F006820F48020091F08600020314900
:100390000C310860FFF76CFF4FF000603149803985
:1003A000086010BD70B50020002202230024022145
:1003B000284D08352D6805F00C0020B1042806D022
:1003C000082834D107E02A4D2A4E356033E02A4D03
:1003D000284E35602FE01F4D2D1D2D68C5F380542C
:1003E0001C4D2D1D2D6805F03F0154B1224DB5FB6C
:1003F000F1F5184E361D3668C6F3881605FB06F271
:1004000009E01B4DB5FBF1F5124E361D3668C6F3FB
:10041000881605FB06F20F4D2D1D2D68C5F301450D
:100420006D1C6B00B2FBF3F5124E356003E0104D0E
:10043000104E356000BF00BF064D08352D68C5F36E
:1004400003150E4E705D0B4D2D68C540094E35608D
:1004500070BD0000003802400070004008544007A2
:10046000003C024088ED00E0FFFFF6FE1030002463
:100470000024F4000000002000127A000400002094
:100480001CB50121202000F07DFF4FF4C0600090DA
:1004900001208DF8040000208DF8060003208DF85F
:1004A000050001208DF807006946044800F0CCFCE7
:1004B0004FF4C061014800F043FD1CBD0014024030
:1004C0001CB50121112000F05DFF1C2000900020D0
:1004D0008DF8040003208DF8050001208DF8070039
:1004E0006946354800F0B0FC0120009002208DF8EC
:1004F00007006946314800F0A7FC1CBD10B5044652
:1005000014B101202E4908702D480078002837D0FA
:100510001021294800F0FAFC78B10821264800F0A3
:10052000F5FC50B10421244800F0F0FC28B1012171
:10053000224800F0EBFC012822D10A2000F08EFABC
:1005400000201F49087010211B4800F0DFFC08B98B
:10055000012010BD0821184800F0D8FC08B902207D
:10056000F7E70421144800F0D1FC08B90320F0E7B4
:100570000121124800F0CAFC01281BD10420E8E741
:1005800010210D4800F0C2FC012813D108210A48AF
:1005900000F0BCFC01280DD10421074800F0B6FC96
:1005A000012807D10121054800F0B0FC10B9012055
:1005B000034908700020CCE7001002400000024010
:1005C0001400002000B587B00121022000F0DAFEFF
:1005D0000121C80300F01FFF3820059002208DF88C
:1005E000180000208DF81A0003208DF81900012052
:1005F0008DF81B0005A9354800F026FC06220321D2
:10060000324800F0ACFC06220421304800F0A7FC80
:10061000062205212D4800F0A2FC0121C80300F0AC
:100620004FFF00214FF4004000F04AFF0020ADF8DA
:1006300000004FF48270ADF802000020ADF8040015
:10064000ADF806000120ADF808004002ADF80A0040
:100650001020ADF80C000020ADF80E000720ADF81A
:10066000100069461A4801F02DF80121184801F0E0
:1006700023F907B000BD10B50446154800884FF6B1
:10068000C771084012490880084600882043088046
:1006900001210F4801F010F910BD10B5044600BF4C
:1006A00002210B4801F0D2F90028F9D02146084870
:1006B00001F083F900BF0121054801F0C7F90028C6
:1006C000F9D0034801F076F9C0B210BD0004024031
:1006D000003C004010B5044600BF02218D4801F0E7
:1006E000B5F90028F9D021468A4801F066F900BF23
:1006F0000121884801F0AAF90028F9D0854801F0C5
:1007000059F9C0B210BD2DE9F04105460E4600274B
:10071000002401E0601CC4B22D2CFBDB2846FFF74F
:10072000D9FF002401E0601CC4B22D2CFBDB0020AB
:10073000FFF7D0FF002401E0601CC4B22D2CFBDBCE
:1007400005F02000202803D10020FFF7C3FF074653
:1007500005F04000402803D1F0B2FFF7BBFF074689
:100760003846BDE8F08110B501206B4908604FF4B0
:100770007A7000F073F900206849C1F8A0020620E1
:10078000FFF7A8FF0A2000F069F91120FFF7A2FF88
:100790000A2000F063F91120FFF79CFF0A2000F007
:1007A0005DF9E0214320FFF7AEFF0A2000F056F983
:1007B00096214120FFF7A7FFD0214220FFF7A3FF9A
:1007C00005214520FFF79FFF05214620FFF79BFFEE
:1007D00005214720FFF797FF05214820FFF793FFEA
:1007E00005214920FFF78FFF05214A20FFF78BFFE6
:1007F00005214B20FFF787FF05214C20FFF783FFE2
:1008000001204549091D086010BD1CB501210420C7
:1008100000F0B8FD0121022000F0B4FD4FF470702B
:10082000009001208DF8040000208DF806000320C0
:100830008DF8050001208DF807006946384800F062
:1008400003FB0120009000208DF8040003208DF8A8
:10085000050001208DF807006946314800F0F4FAE0
:1008600000202D49086001202C49C1F89802002081
:100870002949083108604FF47A7000F0EFF81CBD88
:1008800010B5FFF7C2FFFFF79DFE0020FFF7F3FE54
:10089000FFF769FF00202049091D08600820FFF7C5
:1008A00019FF012000F092F801201C49C1F8A002B4
:1008B00010BD70B50446002506E00020FFF70AFFD2
:1008C0002070641C681CC5B21B2DF6DB70BD1CB506
:1008D000002400201049091D08601220FFF7FAFECD
:1008E0001048FFF7E6FF10A0006801900FA0006815
:1008F0000090022101A800F0E8F81B21094800F04F
:10090000E4F80221684600F0E0F801200349C1F84C
:10091000A0021CBD003C00409C024142000041423C
:1009200000080240340000200D0A00000A0D0000FB
:1009300010B5012001F093FB012801D1FFF7C7FF9B
:10094000012001F0A6FB10BD0EB50121880300F0C7
:1009500073FD0021022001F0BAF801200090002070
:100960008DF804000C208DF8050001208DF806009C
:10097000684601F01DFB06208DF8080000208DF868
:10098000090002208DF80A0001208DF80B0002A852
:1009900000F069F90EBD000010B504466FF00400C8
:1009A00000F0AEF9E11704EB5171C1F3C701394A08
:1009B00011701046007800EB4001C1EBC0104FF6FB
:1009C000FF7101EAC0003449088010BD0146314A78
:1009D00012784A434FF0E0235A6100229A611A4686
:1009E000126942F001021A6100BF4FF0E022106963
:1009F00000F001021AB100F48032002AF5D04FF065
:100A0000E022126922F001024FF0E0231A61002275
:100A10009A6170470146204A12884A434FF0E0230A
:100A20005A6100229A611A46126942F001021A6163
:100A300000BF4FF0E022106900F001021AB100F48B
:100A40008032002AF5D04FF0E022126922F0010234
:100A50004FF0E0231A6100229A61704770B5044696
:100A60004FF4077094FBF0F0C6B24FF4077094FB9C
:100A7000F0F100FB114085B205E04FF40770FFF77D
:100A8000C9FF701EC6B2002EF7D115B12846FFF778
:100A9000C1FF70BD160000201800002000BF704785
:100AA00000BF5A4A128802F04002002AF9D0C2B2AE
:100AB000564B9A80704700BF5449098801F04001A5
:100AC0000029F9D051498880704710B503460C467B
:100AD000002200BF03E0985CFFF7EDFF521CA2422A
:100AE000F9DB10BD10B588B004460121084600F0BE
:100AF00049FC0121102000F09FFC072209214448F5
:100B000000F02DFA07220A21414800F028FA4FF49C
:100B1000C060069002208DF81C008DF81D0000209A
:100B20008DF81E0001208DF81F0006A9384800F03E
:100B30008BF902940020ADF80C00ADF80E00ADF872
:100B40001000ADF814000C20ADF8120002A92F48D7
:100B500001F05DF801212D4801F0E1F840212B481A
:100B600001F0C5F9012240F22551284801F08DF924
:100B700025208DF8040003208DF805008DF806006F
:100B800001208DF8070001A800F06DF808B010BD35
:100B900010B540F225511D4801F0B2F910B31B48C1
:100BA00001F0ECF8C4B21B48008800F40040C8B95A
:100BB0001848008800F4804060B10A2C03D000205F
:100BC0001449088020E01348008840F4004011498F
:100BD000088019E00D2C06D10E48008840F48040B2
:100BE0000C49088010E00B480088C0F30D000A494A
:100BF0000C5408480088401C0649088008460088B4
:100C0000C72801DD0020088010BD00000010014051
:100C100000000240200000207000002009488047AA
:100C200009480047FEE7FEE7FEE7FEE7FEE7FEE7CE
:100C3000FEE7FEE7FEE7FEE704480549054A064BE6
:100C4000704700004D03000889010008980100204A
:100C500098070020980300209803002032490143A0
:100C6000324A1160704770B5002100230F22C4780A
:100C70001CB32E4C246804F4E064C4F5E064C4F3AF
:100C80000721C1F10404E3B20A4144789C40E1B277
:100C90008478144021430C07210E254C05786155BA
:100CA000047804F01F050124AC4005786D11AD00F7
:100CB00005F1E025C5F8004109E0047804F01F05BE
:100CC0000124AC401B4D0678761145F8264070BDD6
:100CD000194A0A400243154B1B1F1A60704739B16D
:100CE000124A121D12680243104B1B1D1A6006E0C7
:100CF0000E4A121D126882430C4B1B1D1A6070476E
:100D0000042808D14FF0E021096941F004014FF0B7
:100D1000E022116107E04FF0E021096921F00401B0
:100D20004FF0E022116170470000FA050CED00E081
:100D300000E400E080E100E080FFFF1F10B5044602
:100D40009848844208D10121084600F086FB002122
:100D5000012000F082FB76E09348844208D1012113
:100D6000022000F07AFB0021022000F076FB6AE00E
:100D70008E48844208D10121042000F06EFB00213E
:100D8000042000F06AFB5EE08948844208D101211A
:100D9000082000F062FB0021082000F05EFB52E01A
:100DA0008448844208D10121102000F056FB002124
:100DB000102000F052FB46E07F48844208D1012118
:100DC000202000F04AFB0021202000F046FB3AE002
:100DD0007A48844208D10121402000F03EFB0021E6
:100DE000402000F03AFB2EE07548844208D10121F2
:100DF000802000F032FB0021802000F02EFB22E05A
:100E00007048844208D10121801500F026FB0021A2
:100E1000A01500F022FB16E06B48844208D10121A6
:100E2000401500F01AFB0021601500F016FB0AE0E7
:100E30006648844207D10121001500F00EFB002115
:100E4000201500F00AFB10BDF0B50A460021002372
:100E5000002400BF3DE0012505FA01F3156805EA0D
:100E600003049C4234D105684F000326BE40B543BD
:100E7000056015794E00B540066835430560157963
:100E8000012D02D01579022D16D185684F00032659
:100E9000BE40B543856055794E00B5408668354300
:100EA0008560456801268E40B54345604568967962
:100EB0008E40B6B235434560C5684F000326BE403C
:100EC000B543C560D5794E00B540C6683543C560A9
:100ED000491C1029BFD3F0BD4FF6FF7101600021FE
:100EE000017141718171C171704708B54FF4803251
:100EF0000092009A0A430092009AC261C161009A6E
:100F0000C261C2690092C269009208BD0246002017
:100F100013690B400BB1012000E00020704701462F
:100F2000086980B270470246002053690B400BB13C
:100F3000012000E0002070470146486980B27047F8
:100F400001837047418370470AB1018300E0418308
:100F500070474161704742694A4042617047F0B54D
:100F6000002300244D07ED0E02FA05F3CE1000F128
:100F7000200555F826504E07F70E0F26BE40B54304
:100F8000CF1000F1200646F82750CE1000F12005C2
:100F900055F8265045EA0304CE1000F1200545F827
:100FA0002640F0BD0000024000040240000802405C
:100FB000000C0240001002400014024000180240E1
:100FC000001C024000200240002402400028024091
:100FD000F948006840F00100F74908600020F64930
:100FE00008310860F4480068F4490840F249086094
:100FF000F348091D0860F348EF4984310860F04860
:101000001038091D0860EC48006820F48020EA4987
:1010100008600020E8490C310860E7498C3108601D
:1010200070470021E44A921C117011460870704705
:1010300010B501460022002300204A11012A02D1E6
:10104000DD4C236808E0022A03D1DB4C70342368AE
:1010500002E0D94C7434236801F01F02012494404B
:101060001C400CB1012000E0002010BD38B500206C
:1010700000900024002500BF3120FFF7D9FF05466E
:101080000098401C00900098B0F5A04F01D0002DB2
:10109000F2D03120FFF7CCFF08B1012400E000249A
:1010A000204638BD01460020C34A106820F0F800F1
:1010B00040EAC10010607047C349086070470021D2
:1010C000BD4A703211701170012802D004280AD173
:1010D00004E00121B84A7032117005E00521B64ADA
:1010E0007032117000E000BF00BF7047B749086060
:1010F000704770B5049C41EA82150126C6EB530681
:1011000045EA0645054345EA0465AB4E361D3560A4
:1011100070BDAD4908667047820142EA0172A64B74
:1011200084331A607047A8498866704710B58301F8
:1011300043EA016343EA02739F4C8834236010BD85
:10114000A14908677047A049C8647047024600205B
:10115000994B0833186820F0EC6042EA0103184309
:10116000954B08331860704702460020924B0833B5
:10117000186820F0784042EA010318438E4B083388
:1011800018607047014600208B4A0832106820F032
:10119000030008431060704787480830006800F07B
:1011A0000C00704701460020834A0832106820F086
:1011B000F000084310607047014600207E4A083264
:1011C000106820F4E050084310607047014600208A
:1011D000794A0832106820F4604040EAC10010608B
:1011E0007047F0B5002100220024022500260223CA
:1011F000714F08373F6807F00C0121B1042905D071
:10120000082937D105E0724F076036E0714F07605B
:1012100033E0694F3F1D3F68C7F38056664F3F1D5F
:101220003F6807F03F036EB16A4FB7FBF3F7DFF893
:1012300088C10CF1040CDCF800C0CCF3881C07FB5F
:101240000CF40CE0624FB7FBF3F7DFF86CC10CF164
:10125000040CDCF800C0CCF3881C07FB0CF4564FE0
:101260003F1D3F68C7F301477F1C7D00B4FBF5F7C6
:10127000076002E0564F076000BF00BF4E4F0837BF
:101280003F6807F0F0010909534F7A5C0768D740BF
:101290004760494F08373F6807F4E051890A4E4FCD
:1012A0007A5C4768D7408760434F08373F6807F448
:1012B0006041490B484F7A5C4768D740C760F0BD32
:1012C000002100F44072B2F5407F0AD13A4A083258
:1012D000116821F4F811414A02401143364A08329C
:1012E0001160354A70321268C0F30B031A43324B57
:1012F00070331A6070473549443908607047334984
:101300004039086070473649086070470146002040
:10131000294A8C32106820F01F004A1E1043264ACA
:101320008C321060704701460020234A8C321068CE
:1013300020F4F8504A1E40EA02201F4A8C32106006
:101340007047014600201C4A8C32106820F440107F
:1013500008431060704701460020174A8C3210681D
:1013600020F4400008431060704701460020124AF4
:101370008C32106820F440300843106070471949DF
:101380000860704739B10C4A3032126802430A4B88
:1013900030331A6006E0084A303212688243064B46
:1013A00030331A607047F9B1034A3432126802438D
:1013B000014B34331A601CE000380240FFFFF6EAAC
:1013C000103000240030002000004742800E4742C9
:1013D0000024F40000127A0022000020FFFCFF0F1E
:1013E0005C014742E01147428F4A126882438E4BAC
:1013F0001A60704739B18C4A121D126802438A4B39
:101400001B1D1A6006E0884A121D12688243864B33
:101410001B1D1A60704739B1834A0C3212680243AF
:10142000814B0C331A6006E07F4A0C32126882430B
:101430007D4B0C331A60704739B17B4A1032126809
:101440000243794B10331A6006E0774A1032126873
:101450008243754B10331A60704739B1724A243A8F
:1014600012680243704B243B1A6006E06E4A243A2D
:10147000126882436C4B243B1A60704739B16A4A48
:10148000203A12680243684B203B1A6006E0664A25
:10149000203A12688243644B203B1A60704739B18E
:1014A000614A1C3A126802435F4B1C3B1A6006E01B
:1014B0005D4A1C3A126882435B4B1C3B1A607047C2
:1014C00039B1594A143A12680243574B143B1A6017
:1014D00006E0554A143A12688243534B143B1A6093
:1014E000704739B1504A103A126802434E4B103BD4
:1014F0001A6006E04C4A103A126882434A4B103B8D
:101500001A60704739B1484A1C3212680243464B90
:101510001C331A6006E0444A1C3212688243424B74
:101520001C331A60704739B13F4A203212680243B7
:101530003D4B20331A6006E03B4A2032126882435A
:10154000394B20331A60704739B1374A2432126858
:101550000243354B24331A6006E0334A24321268C2
:101560008243314B24331A60704739B12E4A2C32F2
:10157000126802432C4B2C331A6006E02A4A2C32A4
:1015800012688243284B2C331A60704739B1264ABF
:10159000303212680243244B30331A6006E0224A8C
:1015A000303212688243204B30331A607047012872
:1015B00008D11D493C31096841F008011A4A3C3202
:1015C000116007E018493C31096821F00801164A0A
:1015D0003C321160704739B1134A273A12780243FE
:1015E000114B273B1A7006E00F4A273A12788243C4
:1015F0000D4B273B1A7070470B484030006840F095
:101600008070094940310860704701460020064A51
:10161000283A12680A400AB1012000E00020704711
:1016200001492639087070473438024010B5044625
:10163000FB48844208D101218014FFF752FF0021AA
:10164000A014FFF74EFF3CE0F648844208D1012188
:101650000014FFF735FF00212014FFF731FF30E0C1
:10166000F148844208D10121C013FFF729FF00216E
:10167000E013FFF725FF24E0EC48844208D1012164
:101680004014FFF72EFF00216014FFF72AFF18E037
:10169000E748844209D101210805FFF722FF002114
:1016A0004FF48010FFF71DFF0BE0E248844208D1A1
:1016B00001214805FFF715FF00214FF40010FFF747
:1016C00010FF10BD10B50022028802F441520B88B1
:1016D0004C8823438C882343CC8823430C892343A1
:1016E0004C8923438C892343CC8923431A430280AA
:1016F000838B4FF2FF74234083830B8A038210BDD8
:101700002DE9F04F0025022300244FF001090022AB
:101710000026002794469046B0F81CA04FF2400BDC
:101720000AEA0B0AA0F81CA04FF0020AA0F820A0B9
:10173000858BD1F808A0BAF1020F01D100BF82E079
:10174000B1F804A0BAF1000F02D14FF0010901E095
:101750004FF00209DFF8E0A2DAF800A00AF4000A6C
:10176000BAF1000F09D0DFF8D0A2DAF800A02AF40D
:10177000000ADFF8C4B2CBF800A0DFF8BCA20AF17F
:101780007C0ADAF800A0CAF3881CDFF8ACA20AF1E0
:101790007C0ADAF800A0CAF30278DFF89CA2AAF16A
:1017A000040ADAF800A00AF03F07DFF88CA2AAF1D9
:1017B000040ADAF800A00AF4800ABAF5800F08D10A
:1017C000DFF878A2BAFBF7FA0AFB0CFABAFBF8F6D4
:1017D00007E0DFF86CA2BAFBF7FA0AFB0CFABAFBD7
:1017E000F8F6B1F806A0BAF5007F0ED14FEA162A36
:1017F0000AEB8A0A4FEA4A0AD1F808B0BAFBFBFAA8
:101800000AF1050A1FFA8AF20FE04FEA491AB6FBFD
:10181000FAFA0AEB8A0A4FEA4A0AD1F808B0BAFB88
:10182000FBFA0AF1050A1FFA8AF24FF00A0AB2FB24
:10183000FAF202F00104A2EB040ACAF34F034FF6D6
:10184000FF7A0AEA0424022B01DBFF2B01DD0223CD
:101850000024B1F806A04AEA040A4AEA030AA0F8FA
:1018600020A0B1F804A0B1F80CB04AEA0B0AB1F814
:1018700002B04AEA0B0AB1F800B04AEA0B0A4AF48D
:10188000006A4AEA05058583BDE8F08F00210180E2
:1018900041808180C180018141818181C181072195
:1018A000018270470021018041808180C180022136
:1018B000816000218181704721B1028842F040029D
:1018C000028004E002884FF6BF731A40028070471E
:1018D00021B1828B42F48062828304E0828B4FF6D6
:1018E000FF331A408283704702884FF2FF731A4019
:1018F000028002880A4302807047B1F5804F04D10C
:10190000028842F48042028004E002884BF6FF73B2
:101910001A40028070474FF6FF62914204D002885D
:1019200042F48072028004E002884FF6FF631A409E
:101930000280704721B1828842F00402828004E074
:1019400082884FF6FB731A408280704721B18288EB
:1019500042F01002828004E082884FF6EF731A4052
:101960008280704730B500220023848B4FF24005FF
:101970002C40848302240484828B0C88B4F5007F7D
:1019800001D00C8814B94FF4807308E00C88B4F5CA
:10199000407F03D00C88B4F5807F00D100238C8871
:1019A0008D892C434D882C431C4344F4006422430E
:1019B000828330BD0146888970478181704721B19B
:1019C000028842F40052028004E002884DF6FF7360
:1019D0001A4002807047018841F4805101807047AD
:1019E00002460020012901D0108B00E0908A704748
:1019F0000146088A70471AB183880B43838002E04E
:101A000083888B438380704730B5002400230C11FA
:101A10000125A540ABB2AAB185881D43858014E09D
:101A20000030014000380040003C004000340140DC
:101A300000500140005401400838024000127A0072
:101A40000024F40085889D43858030BD0246002037
:101A500013890B400BB1012000E000207047CA43FE
:101A600002817047F0B502460020002400230025C3
:101A700001F00F070126BE40B4B20B1101269E40B3
:101A8000B3B2968806EA03051689264016B10DB151
:101A9000012000E00020F0BD10B5002201F00F048D
:101AA0000123A3409AB2D343038110BD10B5012195
:101AB0008803FFF716FD00214FF48040FFF711FD6A
:101AC00010BD1C49086070471B490862704730B55B
:101AD00000228B071C0F0F2303FA04F2154B083367
:101AE0008C1053F824309343124C08348D1044F872
:101AF000253023468C1053F824308C07240F00FA2D
:101B000004F423430B4C08348D1044F8253030BDC9
:101B10000949DC31086070470849086070470020B7
:101B200004492031096801F4807109B1012000E005
:101B3000002070470038014000002742000427427F
:101B400010B50446FA48844208D101211020FFF75D
:101B5000C8FC00211020FFF7C4FC57E0F548844280
:101B600009D101214804FFF7ABFC00214FF40030FC
:101B7000FFF7A6FC4AE0F048844209D1012188041D
:101B8000FFF79EFC00214FF48020FFF799FC3DE019
:101B9000EA48844209D10121C804FFF791FC0021E1
:101BA0004FF40020FFF78CFC30E0E548844209D177
:101BB00001210805FFF784FC00214FF48010FFF796
:101BC0007FFC23E0DF48844208D101212020FFF779
:101BD00088FC00212020FFF784FC17E0DA488442CB
:101BE00009D101218807FFF76BFC00214FF08040ED
:101BF000FFF766FC0AE0D548844207D10121400581
:101C0000FFF75EFC00216005FFF75AFC10BD2DE9CF
:101C1000FF4705460E460024A14600BFA046B089F6
:101C200000B100BF2C8A24F44054F08804432C8275
:101C3000AC8941F20C608443B088318908437189D2
:101C400008430443AC81AC8A24F44074B089044353
:101C5000AC826846FFF7C5FAB548854202D0B9485C
:101C6000854202D1DDF80C9001E0DDF80890A889EA
:101C700000F4004040B109EBC90000EB09103168E5
:101C80004900B0FBF1F707E009EBC90000EB0910D0
:101C900031688900B0FBF1F76420B7FBF0F0040174
:101CA0002009642101FB1078A88900F4004040B1AC
:101CB000322000EBC800B0FBF1F000F00700044355
:101CC00008E0322000EB08106421B0FBF1F000F0D6
:101CD0000F0004432C81BDE8FF874FF416510160CB
:101CE00000218180C18001810C21418100218181FD
:101CF000704710B502460020108A20F470600B88EF
:101D00004C8823438C882343CC8823431843108278
:101D100010BD0021018041808180C180704721B1C8
:101D2000828942F40052828104E082894DF6FF7379
:101D30001A4082817047028B02F47F420283028B39
:101D40000A430283704721B1828942F400428281B2
:101D500003E08289C2F30E028281704721B1828A38
:101D600042F40062828204E0828A4FF2FF731A40DA
:101D700082827047C1F308028280704701468888DA
:101D8000C0F308007047028A4FF6F0731A400282CF
:101D9000028A0A430282704721B1828942F002021C
:101DA000828104E082894FF6FD731A408281704778
:101DB00082894FF2FF731A40828182890A438281AD
:101DC0007047028A4FF6DF731A400282028A0A4382
:101DD0000282704721B1028A42F48042028204E00A
:101DE000028A4BF6FF731A4002827047818941F0E4
:101DF00001018181704721B1828A42F0080282820A
:101E000004E0828A4FF6F7731A4082827047028B91
:101E1000D2B20283028B42EA01220283704721B1CF
:101E2000828A42F02002828204E0828A4FF6DF73C7
:101E30001A408282704721B1828A42F01002828267
:101E400004E0828A4FF6EF731A4082827047828ADA
:101E50004FF6FB731A408282828A0A43828270475D
:101E600021B1828A42F00202828204E0828A4FF625
:101E7000FD731A40828270471AB1838A0B438382B2
:101E800002E0838A8B4383827047F0B503460024C7
:101E900000260025002040F66A17B94200D100BF95
:101EA0001846C1F3421401F01F06012707FA06F590
:101EB000012C01D10C3004E0022C01D1103000E0E3
:101EC00014301AB107682F43076002E00768AF4378
:101ED0000760F0BD02460020B1F5007F00D100BFD1
:101EE00013880B400BB1012000E00020704701F483
:101EF0000072B2F5007F00D100BFCA430280704774
:101F000070B50246002400230025002040F66A1622
:101F1000B14200D100BFC1F3421501F01F030126F9
:101F200006FA03F3012D13D19689334017E0000020
:101F3000001001400044004000480040004C0040B8
:101F4000005000400014014000780040007C004038
:101F5000022D02D1168A334001E0968A33400C12DA
:101F6000012606FA04F41688344013B10CB101209E
:101F700000E0002070BD10B50022002340F66A1476
:101F8000A14200D100BF0A1201249440A3B2DC4355
:101F9000048010BD002041490860091D0860091D2A
:101FA0000860091D08603E483C49143108607047CC
:101FB00000213A498279002A3AD00A461268036819
:101FC0009A430B461A600A1D126803689A430B1D58
:101FD0001A60027911440A6803681A430A602F4A9A
:101FE0000832126803689A432C4B08331A601A1D92
:101FF000126803689A43294B0C331A604279102AFD
:102000000ED11A1F126803681A43244B08331A6052
:102010001A1D126803681A43204B0C331A600DE036
:102020001E49427911440A6803681A430A6005E0B0
:10203000027911440A6803689A430A6070470021D4
:10204000016001710C2141710021817170471349B8
:10205000103109680143114A10321160704701467E
:1020600000200E4A143212680A400AB1012000E032
:10207000002070470949143108607047014600206C
:10208000064A143212680A400AB1012000E000201A
:10209000704702491431086070470000003C01405D
:1020A000FFFF7F0070477047704770477047754665
:1020B00000F02CF8AE4605006946534620F00700B4
:1020C000854618B020B5FEF7B7FDBDE820404FF0BB
:1020D00000064FF000074FF000084FF0000B21F012
:1020E0000701AC46ACE8C009ACE8C009ACE8C009DF
:1020F000ACE8C0098D46704710B50446AFF30080C8
:102100002046BDE81040FEF788B800000048704740
:10211000380100204FF04070E1EE100A70470000D7
:10212000402100080000002034000000C401000825
:10213000742100083400002064070000E00100085A
:10214000007A030A000000000000000001020304FE
:102150000607080901000000000000000000000060
:10216000000000000000010203040102030406074E
:04217000080900005A
:040000050800018965
:00000001FF
