:020000040800F2
:10000000A0B70120D94D0008010300080303000830
:10001000070300080B0300080F030008000000009E
:1000200000000000000000000000000013030008B2
:10003000150300080000000017030008190300085A
:10004000F34D0008F34D0008F34D0008F34D000890
:10005000F34D0008F34D0008F34D0008F34D000880
:10006000F34D0008F34D0008F34D0008F34D000870
:10007000F34D0008F34D0008A14D0008F34D0008B2
:10008000F34D0008F34D0008F34D0008F34D000850
:10009000F34D0008F34D0008F34D0008D50B0008A0
:1000A000F34D0008F34D0008F34D0008F34D000830
:1000B000F34D0008F34D0008F34D0008F34D000820
:1000C000F34D0008F34D0008F34D0008F34D000810
:1000D000F34D0008F34D0008F34D00085F4D000894
:1000E000F34D0008F34D0008F34D0008F34D0008F0
:1000F000F34D0008F34D0008F34D0008F34D0008E0
:10010000F34D00085D470008F34D0008F34D00086B
:10011000F34D0008F34D0008F34D0008F34D0008BF
:10012000F34D0008F34D0008F34D0008F34D0008AF
:10013000F34D0008F34D0008F34D0008F34D00089F
:10014000F34D0008F34D0008F34D0008F34D00088F
:10015000F34D0008F34D0008F34D0008F34D00087F
:10016000F34D0008F34D0008F34D0008F34D00086F
:10017000F34D0008F34D0008F34D0008F34D00085F
:10018000F34D0008F34D000800F002F800F054F8B9
:100190000AA090E8000C82448344AAF10107DA45E2
:1001A00001D100F049F8AFF2090EBAE80F0013F0E0
:1001B000010F18BFFB1A43F0010318478C8400009D
:1001C000AC8400000A4410F8014B14F00F0508BF7E
:1001D00010F8015B240908BF10F8014B6D1E05D013
:1001E00010F8013B6D1E01F8013BF9D1641E03D0EC
:1001F000641E01F8015BFBD19142E4D3704700001B
:100200000023002400250026103A28BF78C1FBD81F
:10021000520728BF30C148BF0B607047642906F001
:100220003984782906F07284002070471FB508F0E1
:1002300054F91FBD10B510BD06F0AAFD1146FFF719
:10024000F5FF00F011F806F0C8FD03B4FFF7F2FF68
:1002500003BC04F083FC000030BF72B6704762B686
:10026000704780F3088870474FF4A06004F0D4FD15
:10027000A82004F0F1FB4FF4E13004F00EFD00F093
:1002800055F900F0B8FB02F0F4FA00F0AFFC0020E2
:1002900006F0BFFA022006F0BCFA07E01748006833
:1002A00008B9012000E000201449086003F02AFA90
:1002B0000028F3D104F034FB1EE002F0F3FA002032
:1002C00000F071F90446022C02D0032C0CD102E09C
:1002D00000F0FDFB09E00948006808B9012000E0D2
:1002E00000200649086000E000BF00BF012004F0C4
:1002F00015FC052004F012FCDFE7000084024342F5
:10030000704700BFFEE700BFFEE700BFFEE700BF8B
:10031000FEE7704770477047704700000CB500203B
:10032000019000907648006840F48030744908607D
:1003300000BF7348006800F4003000900198401C32
:100340000190009818B90198B0F5A04FF1D16C4810
:10035000006800F4003010B10120009001E000209E
:1003600000900098012846D165484030006840F070
:1003700080506349403108606248006840F4404062
:10038000604908605E48083000685D4908310860CF
:100390000846006840F4004008600846006840F4E1
:1003A000A05008605848091F0860081F006840F006
:1003B0008070091F086000BF5148006800F000709D
:1003C0000028F9D040F20570504908604C480830C8
:1003D000006820F003004A490831086008460068B8
:1003E00040F00200086000BF45480830006800F097
:1003F0000C000828F8D10CBD10B54548006840F441
:100400007000434908603E48006840F001003C49E4
:10041000086000203A4908310860394800683D49C1
:100420000840374908603C48091D0860081F0068FB
:1004300020F48020091F0860002031490C31086039
:10044000FFF76CFF4FF0006031498039086010BD44
:1004500070B500200022022300240221284D083517
:100460002D6805F00C0020B1042806D0082834D1EE
:1004700007E02A4D2A4E356033E02A4D284E35607C
:100480002FE01F4D2D1D2D68C5F380541C4D2D1DD3
:100490002D6805F03F0154B1224DB5FBF1F5184E22
:1004A000361D3668C6F3881605FB06F209E01B4DBB
:1004B000B5FBF1F5124E361D3668C6F3881605FBFE
:1004C00006F20F4D2D1D2D68C5F301456D1C6B0007
:1004D000B2FBF3F5124E356003E0104D104E35605F
:1004E00000BF00BF064D08352D68C5F303150E4E3D
:1004F000705D0B4D2D68C540094E356070BD000024
:10050000003802400070004008544007003C0240A0
:1005100088ED00E0FFFFF6FE103000240024F40018
:100520000000002000127A00040000201CB5012108
:10053000402005F005F80320009001208DF804000C
:1005400000208DF8060003208DF8050001208DF8AD
:1005500007006946034804F055FD0321014804F0F3
:10056000CDFD1CBD001802401CB50121032004F084
:10057000E7FF4FF44040009000208DF80400032076
:100580008DF8050001208DF807006946264804F023
:1005900039FD0120009002208DF8070069462348AC
:1005A00004F030FD1CBD10B5044614B101202049F3
:1005B00008701F48007828B34FF400411A4804F02F
:1005C00083FD012806D04FF48041174804F07CFDDC
:1005D000012817D10A2004F0A1FA0020144908705C
:1005E0004FF40041104804F06FFD012801D10220B2
:1005F00010BD4FF480410C4804F066FD012810D175
:100600000320F5E74FF40041074804F05DFD40B9D1
:100610004FF48041044804F057FD10B9012004490B
:1006200008700020E4E700000004024000000240DF
:100630001400002010B504462146474805F09BFAF7
:1006400000BF0221444805F0DFFA0028F9D000BFBE
:100650000121414805F0D8FA0028F9D000BF8021D7
:100660003D4805F0D1FA0128F9D0022004F00EFA35
:10067000394805F07DFAC0B210BD00B587B0012140
:10068000022004F05DFF0121080304F0B3FF3820CD
:10069000059002208DF8180000208DF81A00032024
:1006A0008DF8190001208DF81B0005A92B4804F0D6
:1006B000A9FC05220321294804F02FFD052204216D
:1006C000264804F02AFD05221146244804F025FDA1
:1006D0000121080304F0E3FF00214FF4805004F0EF
:1006E000DEFF0020ADF800004FF48270ADF802008C
:1006F0000020ADF80400ADF806000120ADF80800B8
:100700004002ADF80A002020ADF80C000020ADF842
:100710000E000720ADF8100069460F4805F0B0F84C
:1007200001210D4805F0A6F9FF20FFF783FF07B070
:1007300000BD10B50446084800884FF6C771084050
:1007400005490880084600882043088001210248A6
:1007500005F090F910BD0000003001400004024097
:1007600070B5044644F02000FFF764FF0020FFF757
:1007700061FF0020FFF75EFF0546022004F086F9C6
:10078000284670BD10B5E6A006F044F90020FFF73A
:10079000E7FF04462146E9A006F03CF9F0A006F088
:1007A00039F9F4A006F036F910BD70B504460D46CF
:1007B00044F04000FFF73EFF0020FFF73BFF2846D4
:1007C000FFF738FF012004F061F970BD10B501207A
:1007D000EA4908604FF47A7004F0A0F90620FFF7A8
:1007E00029FF012004F09AF91120FFF723FF0020D0
:1007F000FFF7B6FF044607E00020FFF7B1FF04460D
:100800002146DFA006F006F93E2CF5D103E0E021F9
:100810000320FFF7CAFF0320FFF7A2FFE028F6D16D
:10082000962004F07BF906E020211520FFF7BDFF9C
:100830000020D94908601520FFF792FF2028F3D146
:1008400096210120FFF7B1FF03E096210120FFF779
:10085000ACFF0120FFF784FF9628F6D103E0C0210A
:100860000220FFF7A2FF0220FFF77AFFC028F6D18F
:1008700003E060210520FFF798FF0520FFF770FFD8
:100880006028F6D103E060210620FFF78EFF0620E6
:10089000FFF766FF6028F6D103E060210720FFF72D
:1008A00084FF0720FFF75CFF6028F6D103E060219A
:1008B0000820FFF77AFF0820FFF752FF6028F6D1E3
:1008C00003E060210920FFF770FF0920FFF748FFD0
:1008D0006028F6D103E060210A20FFF766FF0A20B6
:1008E000FFF73EFF6028F6D103E060210B20FFF701
:1008F0005CFF0B20FFF734FF6028F6D103E0602196
:100900000C20FFF752FF0C20FFF72AFF6028F6D1DA
:1009100010BD1CB50121102004F012FE012102209F
:1009200004F00EFE0121082004F00AFE0C200090C5
:1009300001208DF8040000208DF8060003208DF8BA
:10094000050001208DF807006946944804F05AFB21
:100950004020009001208DF8040000208DF8060052
:1009600003208DF8050001208DF8070069468C48AA
:1009700004F048FB4120009001208DF80400002085
:100980008DF8060003208DF8050001208DF8070082
:100990006946844804F036FB8020009000208DF8E2
:1009A000040003208DF8050001208DF8070069463A
:1009B0007C4804F027FB00207B49086001207B492C
:1009C000C1F88C027849086000206C4908607649BB
:1009D00018390860962004F0A1F801207449C1F884
:1009E0008002142004F052F80020724908606F4918
:1009F000C1F88C021CBD10B5FFF73FFEFFF789FF61
:100A0000FFF7E4FEFFF7BEFE0820FFF713FE00200D
:100A10006149091D086010BD70B50446002506E057
:100A20000020FFF707FE2070641C681CC5B21B2D58
:100A3000F6DB70BD10B51220FFF7FCFD5E48FFF736
:100A4000EBFF18225C49C91C5C4806F08BF85C4837
:100A50000068142810DA5A49096801EB4111594A13
:100A6000881821225549891E06F07CF854480068F0
:100A7000401C5349086009E05348007818B14FF40E
:100A8000257004F07BF900204D4908604F4801783B
:100A90000068401C4D4A1060C8B24849891E487021
:100AA00010BD10B50446622C06D0732C08D0762CED
:100AB0000AD1FFF7A0FF08E001204349087004E0D5
:100AC00000204149087000E000BF00BF10BD10B514
:100AD0003F48007801280DD106E020211520FFF7BE
:100AE00064FE00202C4908601520FFF739FE2028FD
:100AF000F3D10CE006E000211520FFF756FE01209F
:100B0000254908601520FFF72BFE0028F3D1304857
:100B1000007808B9012000E000202D49087010BDC0
:100B20004F70656E42434920563320382D313620B0
:100B30006368616E6E656C0D0A0000004F6E2042A6
:100B40006F617264204144533132393920446576F3
:100B50006963652049443A20305825580D0A000041
:100B60004669726D776172653A2076302E302E318B
:100B70000D0A00002424240D0A00000088024242CD
:100B8000546865206469766563652049442069730B
:100B9000203A2025780D0A008002434200100240CE
:100BA00000040240000C0240988241420000424290
:100BB0000080414298824042540100201A000020E7
:100BC00040000020D0040020390000203C0000201C
:100BD0004400002010B5802005F01FFB012801D142
:100BE000FFF728FF802005F032FB10BD0EB5012174
:100BF000880304F0FFFC0721032005F046F880205D
:100C0000009000208DF804000C208DF805000120D4
:100C10008DF80600684605F0A9FA17208DF808003F
:100C200000208DF8090002208DF80A0001208DF8BF
:100C30000B0002A804F0F5F80EBD00002DE9F0410C
:100C400005460E461746984601F0AAFE002141EAE5
:100C50004501C8B201F050FF01F0E3FE20B101F000
:100C6000C1FE0120BDE8F081304601F045FF01F0F2
:100C7000D8FE00240CE018F8040001F03DFF01F05C
:100C8000D0FE18B101F0AEFE0120EBE7601CC4B24B
:100C9000BC42F0DB01F0A6FE0020E3E72DE9F041C5
:100CA00006460F4614461D4601F07AFE002141EA31
:100CB0004601C8B201F020FF01F0B3FE20B101F0FF
:100CC00091FE0120BDE8F081384601F015FF01F0EA
:100CD000A8FE01F065FE012101EB4601C8B201F05A
:100CE0000BFF01F09EFE0DE0012C04D1002001F06D
:100CF00030FF287003E0012001F02BFF2870601EF8
:100D0000C4B26D1C002CEFD101F06CFE0020D9E7BD
:100D100070B505460C4601F043FED02001F0ECFE14
:100D200001F07FFE18B101F05DFE012070BD284684
:100D300001F0E2FE01F075FE204601F0DDFE01F05B
:100D400070FE18B101F04EFE0120EFE701F04AFEFF
:100D50000020EBE770B5044601F022FED02001F040
:100D6000CBFE01F05EFE204601F0C6FE01F059FE0A
:100D700001F016FED12001F0BFFE01F052FE00206E
:100D800001F0E7FE054601F02DFE284670BD10B5C6
:100D90000446E006010E1B20FFF7BAFF10BD10B598
:100DA0000446E006010E1C20FFF7B2FF10BD70B52F
:100DB00004460025BC2C01DB012510E0622C01DB80
:100DC00002250CE02A2C01DB032508E0142C01DBB2
:100DD000042504E00A2C01DB052500E00625294650
:100DE0001A20FFF795FF70BD70B50446B4F57A7F01
:100DF00001DD4FF47A74042C00DA04244FF47A7085
:100E000090FBF4F0401EC5B229461920FFF780FF81
:100E10000546264604EBD671C1F34F00FFF7C7FF26
:100E200070BD10B52DED088B82B001AB02224121BF
:100E30006820FFF733FF9DF805009DF8041040EA95
:100E4000012004B2204606F08DFF41EC1B0B9FED04
:100E5000FE0B53EC102B06F02DFE41EC1A0B9FED10
:100E6000FC0B53EC102B06F071FD41EC190B06F056
:100E70003BFD08EE100A9FEDF80A28EE000ABDEED1
:100E8000C00A10EE100A00B202B0BDEC088B10BD13
:100E90002DE9FC4104460D4616466B4606224321C9
:100EA0006820FFF7FBFE0746BFB99DF801009DF8DB
:100EB000001040EA012000B220809DF803009DF858
:100EC000021040EA012000B228809DF805009DF83C
:100ED000041040EA012000B230803846BDE8FC81B1
:100EE0002DE9FC4104460D4616466B4606223B2181
:100EF0006820FFF7D3FE0746BFB99DF801009DF8B3
:100F0000001040EA012000B220809DF803009DF807
:100F1000021040EA012000B228809DF805009DF8EB
:100F2000041040EA012000B230803846BDE8FC8160
:100F300010B501F011FD80216B20FFF7E9FE642060
:100F400003F0ECFD00216B20FFF7E2FE0320FFF72A
:100F50001EFF0020FFF723FF3220FFF745FF00218F
:100F60003820FFF7D5FE00216A20FFF7D1FE0021CF
:100F70002320FFF7CDFE80213720FFF7C9FE752023
:100F8000FFF7E8FE0446682C0BD101216B20FFF728
:100F9000BFFE00216C20FFF7BBFE3220FFF724FFCD
:100FA00001E0012010BD0020FCE7AC48B0F934009E
:100FB000AA49B1F94810401A00EE100AB8EEC00A6A
:100FC000DFEDA70A20EE200ADFEDA60A80EE201A48
:100FD000A24880ED031AB0F93610B0F94A00081A99
:100FE00000EE100AB8EEC00ADFED9D0A20EE200ADE
:100FF000DFED9C0A80EE201A984880ED041AB0F9C3
:101000003810B0F94C00081A00EE100AB8EEC00A09
:10101000DFED930A20EE200ADFED920A80EE201A1F
:101020008E4880ED051AB0F93C10B0F94E00081A50
:1010300000EE100AF8EEC00A9FED8B1A80EE810ACE
:10104000DFED8A0A80EE201A844880ED061AB0F996
:101050003E10B0F95000081A00EE100AF8EEC00A6F
:101060009FED811A80EE810ADFED800A80EE201A62
:101070007A4880ED071AB0F94010B0F95200081A0A
:1010800000EE100AF8EEC00A9FED771A80EE810A92
:10109000DFED760A80EE201A704880ED081AB0F96C
:1010A0004210B0F95400081A00EE100AB8EEC00A57
:1010B000DFED6F0A20EE200A684880ED090AB0F9DA
:1010C0004410B0F95600081A00EE100AB8EEC00A33
:1010D000DFED670A20EE200A604880ED0A0AB0F9C9
:1010E0004610B0F95800081A00EE100AB8EEC00A0F
:1010F000DFED5F0A20EE200A584880ED0B0AB0F9B8
:101100003A0000EE100AF8EEC00A9FED5A1AB3EE4C
:10111000070A00EE810A514880ED0C0A704710B5AD
:101120002DED088B04465448007890BB94ED000ADE
:1011300010EE101A084607F05FF9504A03C2504AF1
:1011400003C2504A03C294ED010A10EE101A084679
:1011500007F052F9494AC2E90201494AC2E90201CB
:10116000484AC2E9020194ED020A10EE101A08463C
:1011700007F042F9414AC2E90401414AC2E90401C7
:10118000404AC2E904013C480078401C3A490870D2
:101190003AE1FFE73A4890ED000B3A4880ED000B4A
:1011A000364890ED000B364880ED000B94ED000AB8
:1011B00010EE101A084607F01FF941EC1A0B3248DE
:1011C00090ED041BB0EE410AF0EE610A53EC102BD7
:1011D00051EC1A0B06F01AFE41EC180B2A4890ED60
:1011E000022BB0EE420AF0EE620A264890ED002B88
:1011F000B0EE421AF0EE621A53EC102B51EC110BC8
:1012000006F004FE41EC1A0B1F4890ED002BB0EEE7
:10121000420AF0EE620A1A4890ED002BB0EE421A34
:10122000F0EE621A53EC102B51EC110B06F0EEFDB0
:1012300041EC1B0B53EC1A2B06F088FB41EC190B0D
:1012400053EC182B22E00000000000000040754025
:10125000A4703D0AD74342400000C84298000020D5
:101260000AE81C41000080463333034233336542B1
:10127000CDCCCC3D6F12033BF4000020F8010020E0
:10128000E0010020C8010020F084000806F05EFBA9
:10129000FE4A03C2FE4890ED020BFE4880ED020BB1
:1012A000FA4890ED020BFA4880ED020B94ED010A2A
:1012B00010EE101A084607F09FF841EC1A0BF6489A
:1012C00090ED041BB0EE410AF0EE610A53EC102BD6
:1012D00051EC1A0B06F09AFD41EC180BEE4890ED1C
:1012E000022BB0EE420AF0EE620AEA4890ED022BC1
:1012F000B0EE421AF0EE621A53EC102B51EC110BC7
:1013000006F084FD41EC1A0BE34890ED002BB0EEA3
:10131000420AF0EE620ADE4890ED022BB0EE421A6D
:10132000F0EE621A53EC102B51EC110B06F06EFD2F
:1013300041EC1B0B53EC1A2B06F008FB41EC190B8C
:1013400053EC182B06F002FBD04AC2E90201D04848
:1013500090ED040BCF4880ED040B104690ED040B8C
:10136000CB4880ED040B94ED020A10EE101A0846EB
:1013700007F042F841EC1A0BC74890ED041BB0EEA1
:10138000410AF0EE610A53EC102B51EC1A0B06F0F7
:101390003DFD41EC180BC04890ED022BB0EE420A27
:1013A000F0EE620ABB4890ED042BB0EE421AF0EE6C
:1013B000621A53EC102B51EC110B06F027FD41EC97
:1013C0001A0BB54890ED002BB0EE420AF0EE620A1F
:1013D000AF4890ED042BB0EE421AF0EE621A53ECD7
:1013E000102B51EC110B06F011FD41EC1B0B53ECD3
:1013F0001A2B06F0ABFA41EC190B53EC182B06F044
:10140000A5FAA24AC2E90401A04890ED001BB0EE83
:10141000410AF0EE610A51EC100B06F065FA20600B
:101420009A4890ED021BB0EE410AF0EE610A51ECD1
:10143000100B06F059FA6060944890ED041BB0EE72
:10144000410AF0EE610A51EC100B06F04DFAA06073
:10145000BDEC088B10BD10B52DED068BB0EE408AAB
:10146000F0EE608AB5EEC08AF1EE10FA4AD2F5EEDF
:10147000C08AF1EE10FA45D288EE280A10EE104A22
:10148000204606F0B9FF41EC1A0BB0EE4A0AF0EE26
:101490006A0A06F0D9F8B0EE409AF0EE609A9FED35
:1014A0007F0B53EC102B51EC190B06F0ADFD14D84B
:1014B0009FED7C0A7C4880ED000A9FED7C0A7C4809
:1014C00080ED000A9FED7B0A7B4880ED000A9FEDCE
:1014D0007B0A7B4880ED000A40E19FED7A0A724862
:1014E00080ED000A9FED710A714880ED000A9FEDC2
:1014F000760A714880ED000A9FED740A704880ED0D
:10150000000A2BE1B5EEC08AF1EE10FA4AD2F5EEF0
:10151000C08AF1EE10FA45DD88EE280A10EE104A76
:10152000204606F069FF41EC1A0BB0EE4A0AF0EED5
:101530006A0A06F089F8B0EE409AF0EE609A9FEDE4
:10154000570B53EC102B51EC190B06F05DFD14D822
:101550009FED5F0A544880ED000A9FED5E0A5448F3
:1015600080ED000A9FED5C0A534880ED000A9FED74
:10157000530A534880ED000AF0E09FED580A4A48AC
:1015800080ED000A9FED560A494880ED000A9FED64
:10159000550A494880ED000A9FED530A484880EDFE
:1015A000000ADBE0B5EEC08AF1EE10FA4ADDF5EE96
:1015B000C08AF1EE10FA45DD88EE280A10EE104AD6
:1015C000204606F019FF41EC1A0BB0EE4A0AF0EE85
:1015D0006A0A06F039F8B0EE409AF0EE609A9FED94
:1015E0002F0B53EC102B51EC190B06F00DFD14D8FA
:1015F0009FED3E0A2C4880ED000A9FED3D0A2C48E5
:1016000080ED000A9FED3B0A2B4880ED000A9FED1C
:10161000250A2B4880ED000AA0E09FED370A2248FA
:1016200080ED000A1FEDED0A214880ED000A9FEDD4
:10163000330A214880ED000A9FED310A204880EDF1
:10164000000A8BE0B5EEC08AF1EE10FA71DDF5EE1E
:10165000C08AF1EE10FA6CD288EE280A10EE104A19
:10166000204606F0C9FE41EC1A0BB0EE4A0AF0EE35
:101670006A0A05F0E9FFB0EE409AF0EE609A9FED3D
:10168000070B53EC102B51EC190B3BE0F801002039
:10169000E0010020C8010020F084000800000000E4
:1016A0000000F03F14AE473E5C0000208FC275BCC6
:1016B0006000002004E78C3B64000020BE9F7A3F5E
:1016C000680000207B140E3FA69BC43B5839543F52
:1016D000CBA145BEBC7413BCA69BC4BBDF4F0DBFE2
:1016E00052499DBB7F6A3CBC14D0543FFA7E7ABFFE
:1016F0006F12033C0AD7A3BCC8987BBF70CE88BCCE
:101700005B420E3F06F080FC14D89FEDFE0AFE48B7
:1017100080ED000A9FEDFD0AFD4880ED000A1FEDF7
:10172000090AFC4880ED000A9FEDFB0AFB4880EDAA
:10173000000A13E09FEDFA0AF34880ED000A9FEDDE
:10174000F90AF34880ED000A9FEDF70AF14880EDB1
:10175000000A9FEDF60AF14880ED000ABDEC068B09
:1017600010BD10B5F24B0E223B216820FFF796FA10
:10177000EF484078EE49097840EA012000B2ED498F
:101780008886EB48C078EA49897840EA012001B2AE
:10179000E848C186E6484079E549097940EA0120F0
:1017A00001B2E4480187E248C079E149897940EA19
:1017B000012001B2DF484187DD48407ADC49097ADF
:1017C00040EA012001B2DB488187D948C07AD84974
:1017D000897A40EA012001B2D648C187D448407BCB
:1017E000D349097B40EA012001B2D248A0F8401059
:1017F000FFF7DBFBCF480C30FFF791FCCE480078B9
:1018000068B9CC4890ED0A1AF0EE410A90ED091A39
:10181000B0EE410AFFF71FFE0120C749087010BD56
:1018200010B500245DE0C24B0E223B216820FFF77B
:1018300035FABF484078BE49097840EA0120BD49E1
:10184000B1F84810084400B2BA49A1F84800B848B5
:10185000C078B749897840EA0121B648B0F84A0013
:10186000084401B2B348A0F84A10B1484079B049E1
:10187000097940EA0121AF48B0F84C00084401B2B0
:10188000AC48A0F84C10AA48407AA949097A40EA25
:101890000121A848B0F84E00084401B2A548A0F8BC
:1018A0004E10A348C07AA249897A40EA0121A14892
:1018B000B0F85000084401B29E48A0F850109C486F
:1018C000407B9B49097B40EA01219A48B0F85200CD
:1018D000084401B29748A0F85210022003F01EF904
:1018E000641CB4F5967F9EDB9248B0F948004FF433
:1018F000967190FBF1F000B28E49A1F848000846BD
:10190000B0F94A004FF4967190FBF1F001B28948AA
:10191000A0F84A10B0F94C004FF4967190FBF1F02A
:1019200001B28448A0F84C10B0F94E004FF4967103
:1019300090FBF1F001B27F48A0F84E10B0F95000D2
:101940004FF4967190FBF1F001B27A48A0F8501074
:10195000B0F952004FF4967190FBF1F001B2754866
:10196000A0F8521010BDF0EE400AF6EE001A60EE3C
:10197000A11AB0EE611AB0EE600A10EE100A6F49BB
:10198000A1EB600000EE100A21EE002AF7EE081A23
:1019900042EE401A61EE801AB0EE610A704710B54F
:1019A0002DED0A8B044694ED030A654880ED000A8C
:1019B00094ED040A634880ED000A94ED050A62483C
:1019C00080ED000A94ED000A604880ED000A94ED75
:1019D000010A5F4880ED000A94ED020A5D4880ED3F
:1019E000000A5A4890ED000AB5EEC00AF1EE10FA6E
:1019F0000FD1574890ED000AB5EEC00AF1EE10FA8B
:101A000007D1544890ED000AB5EEC00AF1EE10FA85
:101A100076D04E48D0ED000A90ED001A60EE810AB3
:101A20004B4890ED001AD0ED001A41EE210A4948CA
:101A300090ED001AD0ED001A41EE210AB0EE600AD6
:101A4000FFF791FFB0EE408A4048D0ED000AB0EEBB
:101A5000480A20EE800A80ED000A3D48D0ED000AD9
:101A6000B0EE480A20EE800A80ED000A3948D0ED39
:101A7000000AB0EE480A20EE800A80ED000A2448F1
:101A800090ED000A2548D0ED000A20EE200A1E48FD
:101A9000D0ED000A1F4890ED001AF0EE40AA40EE8B
:101AA000C1AA194890ED000A1948D0ED000A20EEAD
:101AB000200A1848D0ED000A184890ED001AB0EE40
:101AC00040BA00EE81BA1048D0ED000A90ED001A3D
:101AD000B6EE000A10EE810A1048D0ED000A90ED33
:101AE000001AF0EE40BA40EE81BA194890ED000AB3
:101AF00020EE2B0A1748D0ED000AB0EE40CA2BE0CA
:101B0000C5E00000BE9F7ABF5C000020ED0D3E3CAA
:101B1000600000206400002014AE47BE6800002072
:101B2000E17A54BF4260653CA69B44BC04560EBF9C
:101B30007001002098000020F5000020DF59375F79
:101B40006C0000207000002074000020780000204D
:101B50007C0000208000002000EECBCA90ED000A3F
:101B600020EE2A0AFE48D0ED000AF0EE40CA40EE10
:101B7000EBCA90ED000A20EE0B0AFA48D0ED000AFD
:101B8000B0EE40AA00EEEAAAF74890ED000AB5EEE2
:101B9000C00AF1EE10FA4ADD90ED000A60EE0C0A80
:101BA000F24890ED000A9FEDF21A00EE810A80EDF6
:101BB000000AED4890ED000A60EE2C0AED4890ED29
:101BC000000A9FEDEB1A00EE810A80ED000AE6485C
:101BD00090ED000A60EE0A0AE74890ED000A9FEDDA
:101BE000E41A00EE810A80ED000AE44890ED000A54
:101BF000DE48D0ED000A30EE200AE04880ED000A11
:101C0000DF4890ED000ADB48D0ED000A30EE200AF4
:101C1000DB4880ED000ADB4890ED000AD648D0EDA5
:101C2000000A30EE200AD74880ED000A0EE09FED52
:101C3000D60ACE4880ED000A9FEDD30ACD4880ED4C
:101C4000000A9FEDD10ACC4880ED000ACB4890ED08
:101C5000000ACE48D0ED000A00EE8C0AC74880ED9D
:101C6000000AC74890ED000AC848D0ED000A00EE0F
:101C7000AC0AC34880ED000AC24890ED000AC34890
:101C8000D0ED000A00EE8A0ABE4880ED000ABB488B
:101C900090ED000ADFEDBE0A20EE200A80ED000A7A
:101CA000B74890ED000ADFEDBA0A20EE200A80ED79
:101CB000000AB44890ED000ADFEDB50A20EE200AD4
:101CC00080ED000AB348D0ED008AB34890ED009A49
:101CD000B248D0ED009AB1EE490AA848D0ED000A0A
:101CE00020EE200AA648D0ED000A09EEE00AAC4832
:101CF000D0ED000AA34890ED001A00EEC10AA548F5
:101D0000D0ED000A30EE200A80ED000A9B4890EDED
:101D1000000A28EE800A9B48D0ED000A09EEA00ACE
:101D20009F48D0ED000A964890ED001A00EEC10AD7
:101D30009948D0ED000A30EE200A80ED000A904864
:101D400090ED000A28EE800A8E48D0ED000A09EED8
:101D5000600A9348D0ED000A884890ED001A00EE22
:101D6000810A8E48D0ED000A30EE200A80ED000A8C
:101D7000844890ED000A28EE800A8148D0ED000AE0
:101D800009EE200A7D48D0ED000A09EEE00A8448F9
:101D9000D0ED000A30EE200A80ED000A7D48D0ED3B
:101DA000000A90ED001A60EE810A7B4890ED001A5F
:101DB000D0ED001A41EE210A784890ED001AD0EDDE
:101DC000001A41EE210A764890ED001AD0ED001A73
:101DD00041EE210AB0EE600AFFF7C5FDB0EE408A81
:101DE0006C4890ED000A20EE080A80ED000A6A486F
:101DF00090ED000A20EE080A80ED000A674890ED99
:101E0000000A20EE080A80ED000A654890ED000AFD
:101E100020EE080A80ED000ABDEC0A8B10BD10B55B
:101E20002DED108B90B0044694ED030A534880EDDD
:101E3000000A94ED040A524880ED000A94ED050A68
:101E4000504880ED000A94ED000A454880ED000AF4
:101E500094ED010A434880ED000A94ED020A5148CE
:101E600080ED000A94ED060A4F4880ED000A94EDDB
:101E7000070A4E4880ED000A94ED080A4C4880EDB0
:101E8000000A9FED410A484880ED000A9FED3E0A96
:101E9000464880ED000A9FED3C0A454880ED000A67
:101EA000414890ED000AB5EEC00AF1EE10FA16D1E5
:101EB0003E4890ED000AB5EEC00AF1EE10FA0ED1E0
:101EC0003B4890ED000AB5EEC00AF1EE10FA06D1DB
:101ED0002046FFF764FD10B0BDEC108B10BD20480C
:101EE00090ED000AB5EEC00AF1EE10FA0FD11D48D0
:101EF00090ED000AB5EEC00AF1EE10FA07D12948BC
:101F000090ED000AB5EEC00AF1EE10FA7ED014484A
:101F1000D0ED000A90ED001A60EE810A114890EDB4
:101F2000001AD0ED001A41EE210A1E4890ED001A69
:101F3000D0ED001A41EE210AB0EE600AFFF713FD62
:101F4000B0EE408A064890ED000A20EE080A80EDC7
:101F5000000A044890ED000A20EE080A2AE000007A
:101F6000780000207C0000204C0000205000002061
:101F70000AD7233C54000020580000206C000020A9
:101F800070000020740000200000000048000020C5
:101F90000AD7A33B5C000020600000206400002002
:101FA00068000020800000208400002088000020BD
:101FB0008C00002080ED000AFE4890ED000A20EE23
:101FC000080A80ED000AFC48D0ED000A90ED001AE6
:101FD00060EE810AF94890ED001AD0ED001A41EE4A
:101FE000210AF74890ED001AD0ED001A41EE210ABF
:101FF000B0EE600AFFF7B7FCB0EE408AEE4890ED15
:10200000000A20EE080A80ED000A00E019E2EB4821
:1020100090ED000A20EE080A80ED000AE84890EDF5
:10202000000A20EE080A80ED000AE64890ED000A5A
:10203000D0ED000A20EE200A8DED0E0A90ED000A88
:10204000E148D0ED000A60EE209ADE4890ED000AEB
:10205000DE48D0ED000A60EE208ADA4890ED000AF2
:10206000DB48D0ED000A20EE20CAD74890ED000AE8
:10207000D0ED000A60EE20CA90ED000AD348D0ED02
:10208000000A20EE20DAD04890ED000AD048D0EDCA
:10209000000A20EE209ACD4890ED000AD0ED000A0B
:1020A00020EE20AA90ED000AC948D0ED000A60EEAB
:1020B00020AA90ED000AD0ED000A20EE20BAB6EE7C
:1020C000000A30EE4A0A30EE4B0ABB48D0ED000A57
:1020D00020EE200A7DEE4C0AB84890ED001A01EE81
:1020E000200A79EE280AB64890ED001A01EE200A7F
:1020F000F0EE000A20EE200A8DED0D0A3DEE0C0AEE
:10210000AD48D0ED000A20EE200AF6EE000A70EE8F
:10211000EC0A70EECB0AA94890ED001A01EE200AF5
:102120007AEEE90AA64890ED001A01EE200AF0EED8
:10213000000A60EE20FA9DED0D0A20EE000A0FEE77
:10214000AF0A10EE101A084606F056F9CDE9000164
:102150009DED000B05F082FA8DED020B9DED020B5B
:1021600051EC100B05F0C0FB0BEE900A39EE680A3B
:102170009148D0ED000A20EE200A7AEEA90A8F4895
:1021800090ED001A01EE200AF6EE000A70EEEC0A5D
:1021900070EECA0A8A4890ED001A01EE200AF0EEAD
:1021A000000A60EE20DA39EE680A8DED0C0A39EE8D
:1021B000AA0A8DED0B0A9DED0E0AF6EE000A30EE2E
:1021C000600A30EE0B0A8DED0A0AB6EE000A30EE18
:1021D0004A0A30EE4B0A20EE2B0A79EE680A0DEE21
:1021E000A00A8DED090A3DEE4C0A20EE2B0A79EE8D
:1021F000AA0A0DEEA00A8DED080A38EE890A20EE33
:102200002B0AF6EE000A70EEEC0A70EECA0A0DEE2A
:10221000A00A8DED070A6F48D0ED000A9DED0A0A6D
:1022200060EE800A634890ED001A9DED0B0A41EEC6
:10223000400A624890ED001A9DED070A21EE001A4F
:102240005F48D0ED001A9DED080A01EEC01A30EE8D
:10225000810A8DED060A5748D0ED000A9DED0C0A63
:1022600060EE800A5C4890ED001A9DED0A0A41EE8E
:10227000400A534890ED001A9DED090A21EE001A1C
:102280004D48D0ED001A9DED070A01EEC01A30EE60
:10229000810A8DED050A5048D0ED000A9DED0B0A2C
:1022A00060EE800A4B4890ED001A9DED0C0A41EE5D
:1022B000400A414890ED001A9DED080A21EE001AEF
:1022C0003E48D0ED001A9DED090A01EEC01A30EE2D
:1022D000810A8DED040A414890ED000AB5EEC00A6E
:1022E000F1EE10FA50DDD0ED000A9DED060A60EE29
:1022F000800A3B4890ED000A1FEDE31A00EE810AC8
:1023000080ED000A3548D0ED000A9DED050A60EE2B
:10231000800A344890ED000A1FEDEB1A00EE810AA6
:1023200080ED000A2D48D0ED000A9DED040A60EE14
:10233000800A2D4890ED000A1FEDF31A00EE810A85
:1023400080ED000A294890ED000A2548D0ED000AEA
:1023500030EE200A254880ED000A254890ED000A5D
:102360002048D0ED000A30EE200A214880ED000A16
:10237000204890ED000A1C48D0ED000A30EE200AFB
:102380001C4880ED000A0EE09FED1B0A144880ED0A
:10239000000A9FED190A134880ED000A9FED160A06
:1023A000114880ED000A1148D0ED000A134890ED65
:1023B000001A25E080000020840000208800002012
:1023C0008C0000205C0000206000002064000020E1
:1023D000680000207C000020780000204C000020D5
:1023E0005000002054000020580000206C00002005
:1023F0007000002074000020000000004800002051
:102400009DED060A41EE000AF748C0ED000AF748C4
:10241000D0ED000AF64890ED001A9DED050A41EE58
:10242000000AF248C0ED000AF248D0ED000AF04878
:1024300090ED001A9DED040A41EE000AED48C0ED52
:10244000000AE94890ED000ADFEDEB0A20EE200AD1
:1024500080ED000AE54890ED000ADFEDE70A20EE86
:10246000200A80ED000AE34890ED000ADFEDE20A61
:1024700020EE200A80ED000AE04890ED00EAE048F6
:10248000D0ED00EADF4890ED00FAB1EE6E0AD648D2
:10249000D0ED000A20EE200AD448D0ED000A0FEE5D
:1024A000600AD948D0ED000AD24890ED001A00EE3B
:1024B000C10AD248D0ED000A30EE200A80ED000AB1
:1024C000C94890ED000A2EEE000ACA48D0ED000A75
:1024D0000FEE200ACC48D0ED000AC44890ED001A57
:1024E00000EEC10AC648D0ED000A30EE200A80EDA9
:1024F000000ABE4890ED000A2EEE000ABD48D0ED5D
:10250000000A0EEEE00AC048D0ED000AB64890ED91
:10251000001A00EE810ABB48D0ED000A30EE200A16
:1025200080ED000AB34890ED000A2EEE000AAF4895
:10253000D0ED000A0EEEA00AAB48D0ED000A0FEE77
:10254000600AB148D0ED000A30EE200A80ED000AA2
:10255000AA48D0ED000A90ED001A60EE810AA84862
:1025600090ED001AD0ED001A41EE210AA54890ED39
:10257000001AD0ED001A41EE210AA34890ED001A8E
:10258000D0ED001A41EE210AB0EE600AFFF7EBF938
:10259000B0EE408A994890ED000A20EE080A80EDDE
:1025A000000A974890ED000A20EE080A80ED000A24
:1025B000944890ED000A20EE080A80ED000A924847
:1025C00090ED000A20EE080A80ED000A00BF82E4C8
:1025D00010B52DED088B0446884890ED000AD0ED2B
:1025E000000A20EE200A8648D0ED000A90ED001A7D
:1025F00000EE810A8348D0ED000A90ED001A00EE4B
:10260000C10A8148D0ED000A90ED001A00EEC10A1F
:1026100010EE101A084605F0EFFE41EC1A0B784850
:1026200090ED000A7748D0ED000A20EE200A7348AA
:10263000D0ED000A744890ED001A00EE810AF0EE29
:10264000000A20EE200A10EE101A084605F0D4FE0B
:1026500041EC1B0BB0EE4A1AF0EE6A1AB0EE4B0AD0
:10266000F0EE6B0A04F0F8FEB0EE409AF0EE609ADD
:102670009FED660B53EC102B51EC190B05F0C6FBCC
:1026800041EC180B05F030F9A0605D4890ED000AB0
:102690005D48D0ED000A20EE200A5848D0ED000A2F
:1026A000584890ED001A00EEC10AF0EE000A20EE44
:1026B000200A10EE101A084605F09EFE41EC1B0B96
:1026C000B0EE4B0AF0EE6B0A04F0AAFBB0EE40AAA3
:1026D000F0EE60AA51EC1A0B05F0F9F841EC190B79
:1026E0009FED4A0B53EC102B05F090FB41EC180BBF
:1026F00005F0FAF86060414890ED000AD0ED000A5C
:1027000020EE200A3E48D0ED000A90ED001A00EEBF
:10271000C10A3C48D0ED000A90ED001A00EEC10A53
:102720003948D0ED000A90ED001A00EE810A10EE53
:10273000101A084605F060FE41EC1A0B2F4890ED88
:10274000000A2F48D0ED000A20EE200A2D48D0EDD7
:10275000000A2D4890ED001A00EE810AF0EE000A02
:1027600020EE200A10EE101A084605F045FE41EC56
:102770001B0BB0EE4A1AF0EE6A1AB0EE4B0AF0EEFE
:102780006B0A04F069FEB0EE409AF0EE609A9FED9D
:102790001F0B53EC102B51EC190B05F037FB41ECE0
:1027A000180B05F0A1F820601A4890ED000A1A48AD
:1027B00080ED000A94ED020A164880ED000A90EDC3
:1027C000000A1548D0ED000A30EE600ADFED130A6A
:1027D000B4EEE00AF1EE10FA24DB11480068401E66
:1027E0000F49086032E000006C00002070000020FB
:1027F00048000020740000200AD7A33B5C000020A2
:1028000060000020640000206800002066666666A4
:1028100066A64C40F8000020FC0000200000964313
:10282000000100203A4890ED000A3A48D0ED000A35
:1028300030EE600ADFED380AB4EEE00AF1EE10FA8D
:1028400004D836480068401C3449086033480068A2
:102850004FF4B471484300EE100AB8EEC00A2C4899
:10286000D0ED000A30EE200A84ED020ABDEC088BA0
:1028700010BD10B506E02AA004F0CCF84FF4FA70B1
:1028800002F04CF9FEF754FB0028F4D12AA004F022
:10289000C1F8322002F042F9FEF7C2FF322002F006
:1028A0003DF910BD10B5FEF75CFF2948FFF7B7FAF8
:1028B00027480C38FFF78CFE10BD25480C3890EDEA
:1028C000020A704722480C3890ED010A70472048F0
:1028D0000C3890ED000A70471D480C3890ED060A40
:1028E000DFED1C0A20EE200A704719480C3890EDE5
:1028F000070ADFED180A20EE200A704714480C384A
:1029000090ED080ADFED130A20EE200A7047000060
:10291000F8000020FC000020000096C30001002009
:102920004D50553630353020696E697420657272AD
:102930006F72A3A10D0A00004D505536303530207E
:10294000696E697420646F6E65210D0A00000000D5
:10295000A4000020333365421CB50121402002F061
:10296000EFFD4FF45050009001208DF8040000203E
:102970008DF8060003208DF8050001208DF8070072
:1029800069468B4802F03EFB4FF48061884802F0B4
:10299000B7FB0120874908608749C1F8B4021CBD14
:1029A00010B58348006820F04060814908600846FF
:1029B000006840F08060086001207E49091D0860C1
:1029C0007D49C1F8B002042002F060F80020794986
:1029D000091D0860042002F059F800207649C1F86A
:1029E000B00210BD10B57248006820F04060704918
:1029F00008600846006840F08060086000206D496B
:102A000008606D49C1F8B402042002F03FF80120CB
:102A1000684908606849C1F8B402042002F036F839
:102A200010BD10B500246248006820F04060604985
:102A3000086008460068086001205E49091D0860BA
:102A400002F024F801205C49C1F8B00202F01EF83F
:102A500007E0601CC4B2FA2C03DDFFF7C3FF0120BE
:102A600010BD54487C3800680028F2D151490860F4
:102A700000BFF5E710B500204E4908604C480068DB
:102A800020F040604A4908600846006840F08060D5
:102A9000086000204849C1F8B402022001F0F6FFA6
:102AA000012044490860022001F0F0FF0020424963
:102AB000C1F8B00210BD10B500203E4908603C4886
:102AC000006820F040603A4908600846006840F01D
:102AD0008060086001203849C1F8B402022001F08A
:102AE000D5FF012033490860022001F0CFFF00200C
:102AF0003149C1F8B00210BD70B504462C480068D9
:102B000020F040602A4908600846006840F0806074
:102B10000860002027490860002517E0E0092549E2
:102B2000091D08606006040E022001F0AFFF0120BD
:102B30002149C1F8B002022001F0A8FF00201D4980
:102B40000860022001F0A2FF681CC5B2082DE5DB79
:102B500070BD70B5054600241548006820F040603F
:102B600013490860084600680860002616E0002047
:102B700010490860022001F089FF01200E49C1F8C8
:102B8000B0026006040E0B487C38006808B1601C77
:102B9000C4B2012001F07AFF701CC6B2082EE6DB39
:102BA00015B9FFF788FF01E0FFF764FF204670BD0D
:102BB00000180240B0024342000043420020FE4998
:102BC0000860091D0860091D0860091D0860FA49B0
:102BD00024310860091D0860091D0860F748F6499E
:102BE000383108600020091D086070470146002048
:102BF000012900D011B9F24B197000E0262070476E
:102C00000146ED4A121D106820F0FF0008431060D5
:102C1000704770B5044606E0E7483430056805F0B3
:102C2000450000B100E0F7E700BF042003F0B4FD69
:102C300020B1042003F0BBFD032070BD012003F090
:102C4000ABFD20B1012003F0B2FD0120F5E7DA4829
:102C500010300068A04201D01020EEE740F2FF5093
:102C600003F0A5FDD4481430006808210840C0B224
:102C7000E3E72DE9FC4107460D460026002400202D
:102C8000009001900820CF49086010204860402043
:102C900088600020C8604FF480600861084603F037
:102CA000E8FC1020FFF7B5FF044614B12046BDE84C
:102CB000FC81C54800880004C2490860372048608C
:102CC000402088600020C8604FF48060086108469A
:102CD00003F0CFFC3720FFF79CFF04460CB12046E1
:102CE000E5E74FF0FF30B949086008204860302020
:102CF00088600220C8600020086101204861084601
:102D000003F0E3FC0020AF49086033204860402016
:102D100088600020C8604FF480600861084603F0B6
:102D2000A8FC3320FFF775FF04460CB12046BEE730
:102D30000DE04FF4001003F02FFD40B19E488030AD
:102D400000684DF82600761C022E00D307E09A4852
:102D50003430006840F22A6108400028E9D000BF02
:102D6000082003F019FD20B1082003F020FD042005
:102D70009DE7022003F010FD20B1022003F017FDB3
:102D8000022094E7202003F007FD20B1202003F06B
:102D90000EFD06208BE74FF4007003F0FDFC28B118
:102DA0004FF4007003F003FD072080E740F2FF506E
:102DB00003F0FDFC00980006009901F47F4140EA11
:102DC0000120009901F47F0140EA1120009940EAB6
:102DD0001160686001980006019901F47F4140EAA2
:102DE0000120019901F47F0140EA1120019940EA94
:102DF0001160286020465AE77CB505460024002073
:102E00000090019000260DB1022600E000266A48DD
:102E10001430006800F0007008B10E207CBD6A49D3
:102E2000098888B26946FFF724FF04460CB12046A2
:102E3000F4E7019800F4802060B363480088000440
:102E40006049086037204860402088600020C860E2
:102E50004FF480600861084603F00BFC3720FFF751
:102E6000D8FE04460CB12046D8E756480660062036
:102E700054494860402088600020C8604FF480605A
:102E80000861084603F0F5FB0620FFF7C2FE044682
:102E90002046C3E72520C1E770B5044600254C480D
:102EA0000078032802D12725284670BD48480078BD
:102EB00038B147480078012803D0454800780228F7
:102EC00019D1B4F5805F02D127252846EDE7E0B29D
:102ED000FFF792FF054675B93748001D006820F4DA
:102EE000C0503549091D0860084600682043086045
:102EF0000846006808602846D7E710B50446314800
:102F0000046007202F494860402088600020C86086
:102F10004FF480600861084603F0ABFB0720FFF721
:102F200078FE10BDF0B5014600200022284B1B782A
:102F300081F85630244B1B88A1F85430254B1B6870
:102F40001A0E93090B70C2F383034B7002F0030354
:102F50008B70204B1B68C3F30742CA701D4B1B8844
:102F6000C3F307220A711B4B1A784A715B681A0E69
:102F70001301CB80174B5B68C3F30742CB8843EA4E
:102F80001213CB8002F00F030B72124B9B88C3F31A
:102F90000722D3094B72C2F380138B72C2F3401322
:102FA000CB72C2F300130B7300234B73084B1B78D7
:102FB000C3B1074B1B780FE0002C0140FF07C00096
:102FC0000C01002028020020080100203C02002003
:102FD0000401002054020020012B03D0FE4B1B787B
:102FE000032B4FD193071B0D0B61FC4B1A790B6917
:102FF00043EA82030B61F94B9B681A0E0B6943EAA3
:1030000092130B61C2F3C2030B7502F007034B75F9
:10301000F24B9B68C3F3074253098B75C2F38203DB
:10302000CB7593075B0F0B76EC4B1B89C3F3072221
:103030000B7E43EAD2130B760B695B1C0024C1E9BB
:1030400012340B7E9B1C012404FA03F3DC17D1E934
:103050001256A5FB037C06FB03C305FB0433C1E941
:1030600012730C7A0123A3400B650024D1E9126589
:103070000B6DA6FB037C05FB03C306FB0433C1E910
:1030800012732EE0D44B1B78022B2AD1D34B1A7922
:1030900093069B0A0B61D14B9B681A0E0B6943EA9E
:1030A00002230B61CD4B9B68C3F307420B691343AB
:1030B0000B61CA4B1B89C3F307220B695B1C4FF4DE
:1030C0000074A3FB04464FF480630025A4FB037C3B
:1030D00006FB03C304FB0533C1E912734FF400730D
:1030E0000B65C2F3801301F8193F93065B0E4B701A
:1030F000BA4B1A7A4B7843EAD2134B7002F07F0333
:103100008B70B64BDB681A0ED309CB70C2F3411338
:103110000B71C2F382034B7193071B0F8B71AF4B83
:10312000DB68C3F307428B7943EA92138B71C2F3D6
:103130004013CB7100230B7202F001034B72A74BBB
:103140009B89C3F30722D3098B72C2F38013CB721E
:10315000C2F340130B73C2F300134B73C2F381032A
:103160008B7302F00303CB739C4B1A7B53080B74D5
:1031700001234B749A4B1B681A0ECA741939984B69
:103180001B68C3F307421402CC85954B1B88C3F31D
:103190000722CB8D1343CB85914B1A7814060C6311
:1031A0005B681A0E0B6B43EA02440C638C4B5B6842
:1031B000C3F307420B6B43EA02240C63884B9B88E2
:1031C000C3F307220B6B13430B63854B1A7934232C
:1031D0005A54834B9B681A0E35235A54804B9B6874
:1031E000C3F3074214068C637D4B1B89C3F307228C
:1031F0008B6B43EA02448C63794B1A7A8B6B43EAFC
:1032000002248C63764BDB681A0E8B6B13438B6343
:10321000734BDB68C3F307423C235B5C43EA121445
:103220003C235C5413071C0DCC876D4B9B89C3F367
:103230000722CB8F1343CB87694B1A7B540840235B
:103240005C54012441235C54F0BD70B500264FF45A
:10325000803505E06348046804F0450000B103E0F0
:10326000281EA5F10105F5D100BF15B104F0040039
:1032700028B10326042003F09AFA304670BD0120DD
:1032800003F08AFA18B10126012003F090FA40F207
:10329000FF5003F08CFA3046F0E72DE9F041054687
:1032A0000E464FF0000805E04E48076807F045005D
:1032B00000B100E0F8E700BF042003F06DFA28B188
:1032C000042003F074FA0320BDE8F081012003F02C
:1032D00063FA20B1012003F06AFA0120F4E74148C3
:1032E00024380068A84201D01020EDE740F2FF50DA
:1032F00003F05DFA3B482038046804F4604018B9D4
:10330000200C30804046DFE704F4005008B1132061
:10331000DAE704F4804008B11020D5E704F4004057
:1033200008B10F20D0E74046CEE738B50024012091
:10333000009003F098F910B92524204638BD26489E
:103340000078042825D00020274908600220486022
:10335000C02088600020C8604FF480600861084683
:1033600003F087F9FFF771FF04460CB12046E5E74B
:103370001C48203800681A4908601A481C38006840
:103380004860184818380068886016481438006883
:10339000C8601148007858B10F480078012807D05C
:1033A0000D480078062803D00B480078022821D168
:1033B00000200D49086003204860402088600020FC
:1033C000C8604FF480600861084603F052F969460E
:1033D0000320FFF762FF09E00401002054020020EF
:1033E00064020020342C01402802002004460CB165
:1033F0002046A3E7FE480078032816D1BDF8000058
:103400000004FC49086003204860402088600020D8
:10341000C8604FF480600861084603F02AF9FFF79E
:1034200014FF04460CB1204688E7F14800780428D0
:103430002AD0BDF80000F0490860BDF80000000483
:10344000EC49086009204860C02088600020C860FE
:103450004FF480600861084603F00BF9FFF7F5FEB2
:1034600004460CB1204669E7E4480068E449086076
:10347000E248001D00684860E04808300068886045
:10348000DE480C300068C860002057E710B506E041
:10349000DA482030046804F0450000B100E0F7E7A6
:1034A00000BF042003F078F920B1042003F07FF975
:1034B000032010BD40F2FF5003F079F90020F8E737
:1034C00070B500264FF4803506E0CC482030046803
:1034D00004F0450000B103E0281EA5F10105F4D178
:1034E00000BF15B104F0040028B10326042003F046
:1034F0005EF9304670BD04F0400018B1002640204F
:1035000003F055F93046F5E770B500254FF48034E7
:1035100004E0802003F040F900B103E0201EA4F194
:103520000104F6D100BF0CB9032070BD40F2FF507A
:1035300003F03DF92846F8E72DE9F047002700247D
:1035400000260025A046A1467620AE490875002039
:10355000086048608860C8600861084603F05FF84A
:10356000032003F07CF8A5481038006840F4807010
:10357000A2491039086000BF12E000209D49086090
:1035800048608860C8604FF480600861084603F0B6
:1035900070F8FFF7B9FF044604B903E0781CC7B21E
:1035A0004A2FEADB00BF14B12046BDE8F0874FF494
:1035B000D57090490860082048604020886000204D
:1035C000C8604FF480600861084603F052F8FFF7C6
:1035D00077FF044624B90120854908704FF08049DF
:1035E000002084490860372048604020886000201F
:1035F000C8604FF480600861084603F03AF837204D
:10360000FFF707FB0446002C4BD134E0002079493A
:10361000086037204860402088600020C8604FF470
:1036200080600861084603F024F83720FFF7F1FABC
:1036300004460CB12046B8E7734849EA00006D49DA
:10364000086029204860402088600020C8604FF44E
:1036500080600861084603F00CF8FFF717FF044686
:103660000CB12046A1E765480668012080EAD670C3
:1036700080F001086D1CB8F1000F03D14FF6FF7008
:103680008542C3D34FF6FF70854202D31B242046E8
:103690008BE706F08040061E32D0022054490870A5
:1036A0002EE01CE059485349086001204860402042
:1036B00088600020C8604FF480600861084602F00E
:1036C000D8FFFFF7E3FE04460CB120466DE74B48F8
:1036D0000668012080EAD67080F001086D1CB8F100
:1036E000000F03D14FF6FF708542DBD34FF6FF701A
:1036F000854202D31B24204657E703203C4908702B
:10370000204652E73EB5002400250121404801F043
:1037100017FF0121C80201F06DFF0121C80201F06D
:10372000BEFF4FF4F850019002208DF808008DF88C
:10373000090000208DF80A0001208DF80B0001A976
:10374000344801F05FFC0420019001A9324801F0E7
:1037500059FC0C2208212F4801F0DFFC0C22092122
:103760002C4801F0DAFC0C220A212A4801F0D5FC91
:103770000C220B21274801F0D0FC0C2211462548D1
:1037800001F0CBFC0C220221234801F0C6FC0021F1
:103790004FF4006001F083FFFFF710FA31208DF83D
:1037A000000000208DF801008DF8020001208DF846
:1037B0000300684601F035FBFFF7BEFE044614B96E
:1037C000FFF7B3FD04461CB91448FFF7ABFB0446F2
:1037D00034B91249B1F854100804FFF78EFB0446BF
:1037E00024B94FF40060FFF757FB0446E4B117E03B
:1037F000040100202802002008010020142C0140B0
:103800005402002010020020000010800080FF8081
:103810000C00400000080240000C0240780200202A
:10382000FE480078032812D1FD4890F8560020B1D8
:10383000FB4890F85600012801D1022500E0002540
:103840002846FFF7DDF90020FFF7D0F904462046AF
:103850003EBD10B5002002F002FF002010BD70B583
:1038600090B004460E46154600BFEE4802F021FE19
:103870000028FAD1EB4802F0F3FC4FF00060019011
:10388000E9480290039404950020059006904FF4B7
:1038900080600790800008908000099000200A90C6
:1038A0004FF440300B9004200C9003200D904FF407
:1038B00000000E9080100F9001A9DA4802F072FD0E
:1038C0002021D84802F0BEFD0121D64802F0A4FD17
:1038D00010B070BD0146002002E04910421CD0B279
:1038E0000129FAD170472DE9F84F814617469846CD
:1038F0000A9C4FF0000AD3464D464FF0FF36B9F10F
:10390000000F02D12620BDE8F88F0020C6495439A7
:103910000860C2480078022805D10402780A40EA0B
:10392000C8574FEA68280020C04988604860401E98
:103930000860012048610020C8600861084602F064
:10394000C4FEB9486C38006800F0007008B10E2061
:10395000D9E7002C21DDB4F5006F1EDC601E20408D
:10396000D8B92046FFF7B6FF0090B1480460102098
:10397000AF494860402088600020C8604FF48060F4
:103980000861084602F075FE1020FFF742F98246F2
:10399000BAF1000F03D05046B5E72620B3E70098F0
:1039A0000001A2498860084644604FF0FF3008607B
:1039B000012048610220C86000200861084602F02A
:1039C00084FE9B4807601120994948604020886028
:1039D0000020C8604FF480600861084602F049FE8C
:1039E0001120FFF716F98246BAF1000F01D05046B8
:1039F00089E79048007800285AD1FCF72EFC17E0A0
:103A00004FF4004002F0C8FE70B14FF0000B05E02B
:103A10008548006845F82B000BF1010BBBF1080F3E
:103A2000F6D32035844E03E00EB904206BE7761EF2
:103A30007D484C38006840F22A6108400028DFD0F9
:103A4000082002F0A9FE20B1082002F0B0FE0420F8
:103A500059E7022002F0A0FE20B1022002F0A7FEEA
:103A6000022050E7202002F097FE20B1202002F033
:103A70009EFE062047E74FF4007002F08DFE28B14D
:103A80004FF4007002F093FE07203CE703E0664825
:103A9000006828602D1D4FF4001002F07DFE002804
:103AA000F5D1FCF7DCFB40F2FF5002F080FE39E07C
:103AB00060480078012835D10020604908706049CD
:103AC00008706049087058484438006840F22A314C
:103AD000084355494439086053485438006840F059
:103AE0000800514954390860002221464846FFF732
:103AF000B6FE00E0761E4B485838006800F00060C3
:103B000038B95048007820B94C48007808B9002EE0
:103B1000F0D10EB90420F6E64848007810B14748C5
:103B200090F800A05046EEE62DE9FF5F1746984654
:103B3000DDE90E464FF00009CA464FF0FF35424915
:103B400000980860002038495439086033480078EC
:103B5000022805D10402780A40EAC8574FEA6828CB
:103B60000020324988604860401E0860012048619A
:103B70000020C8600861084602F0A7FD2A486C389A
:103B8000006800F0007018B10E2004B0BDE8F09F8E
:103B9000002C21DDB4F5006F1EDC601E2040D8B97A
:103BA0002046FFF797FE83462148046010202049F5
:103BB0004860402088600020C8604FF48060086141
:103BC000084602F056FD1020FFF723F88146B9F1B0
:103BD000000F03D04846D8E72620D6E7012E6ED93D
:103BE00006FB04F0B0F1007F01D32620CDE74FEAB9
:103BF0000B100E49886006FB04F048604FF0FF3060
:103C00000860012048610220C86000200861084661
:103C100002F05BFD06480760122017E00401002057
:103C20007802002058640240802C01403C020020B1
:103C3000280200200C010020FFFF7F000E01002061
:103C40000D0100200F01002010010020F9494860FB
:103C5000402088600020C8604FF4806008610846FA
:103C600002F007FD1220FEF7D4FF8146B9F1000FE4
:103C700001D0484689E7F048007800287ED1FCF75B
:103C8000ECFA1EE04FF4004002F086FDA0B14FF0C8
:103C9000000A07E0E9480068E949096841F82A0094
:103CA0000AF1010ABAF1080FF4D3E54800682030A0
:103CB000E3490860E34D04E015B9042065E7AEE090
:103CC0006D1EDE484C38006840F22A31084000285A
:103CD000D8D0082002F060FD20B1082002F067FD76
:103CE000042052E7022002F057FD20B1022002F02A
:103CF0005EFD022049E7202002F04EFD20B1202089
:103D000002F055FD062040E74FF4007002F044FD3C
:103D100028B14FF4007002F04AFD072035E709E0B2
:103D2000C6480068C64909680860C5480068001DA3
:103D3000C34908604FF4001002F02EFD0028EFD1B7
:103D40004FF4807002F028FD20B3BF48007838B1EE
:103D5000BD480078012803D0BB480078022819D15B
:103D60000020B44908600C20486040208860002092
:103D7000C8604FF480600861084600E011E002F07E
:103D800078FC0C20FEF745FF8146B9F1000F01D009
:103D90004846FAE6FCF763FA40F2FF5002F007FDEE
:103DA0003DE0A5480078012839D10020A7490870D6
:103DB0000120A74908700020A64908709F48443890
:103DC000006840F22A3108439C49443908609B4806
:103DD0005438006840F0080098495439086006FBE0
:103DE00004F100220098FFF73AFD00E06D1E9A48AA
:103DF000006800F0006008B9002DF7D10DB904206B
:103E0000C3E600BF9348007818B9904800780028AE
:103E1000F8D08E48007810B18C4890F80090484651
:103E2000B3E61CB504460020019000908B48008842
:103E30000004804908600D20486040208860002010
:103E4000C8604FF480600861084602F012FC7B48AD
:103E50004C380068009003E078484C3800680090C7
:103E6000009800F045000028F6D0012002F094FCF4
:103E700020B1012002F09BFC01201CBD042002F0B7
:103E80008BFC20B1042002F092FC0320F5E76B4884
:103E9000703800680D2801D01020EEE740F2FF5086
:103EA00002F085FC65486C38006801900198C0F309
:103EB000432020700020E0E72DE9FF5F86B0174621
:103EC0009846149D00260020059004900024814609
:103ED0000390824602900195DDF818B0DDF818B025
:103EE000BBF1000F03D126200AB0BDE8F09F0020EF
:103EF0005249543908605A4988604860401E086039
:103F0000012048610020C8600861084602F0DDFB1E
:103F10004A486C38006800F0007008B10E20E3E7F2
:103F200049480078022805D10502780A40EAC857B6
:103F30004FEA6828002D1FDDB5F5006F1CDC681EF8
:103F40002840C8B92846FFF7C5FC059039480560E8
:103F5000102038494860402088600020C8604FF435
:103F600080600861084602F084FB1020FEF751FED5
:103F700006461EB13046B7E72620B5E73748008829
:103F800000042C4908600D20486040208860002013
:103F9000C8604FF480600861084602F06AFB0D209B
:103FA000FEF737FE06460EB130469DE723486C38D3
:103FB000006803904FF0FF341CE0641E274800881F
:103FC00000041C4908600D204860402088600020E3
:103FD000C8604FF480600861084602F04AFB0D207B
:103FE000FEF717FE06460EB130467DE713486C38E3
:103FF00000680390039800F4807008B9002CDCD1AD
:104000000CB9292070E70B4807601820094948605F
:10401000402088600020C8604FF480600861084636
:1040200002F027FB1820FEF7F4FD0646D6B1304615
:104030005AE70000280200200C010020802C0140DB
:1040400010010020FFFF7F00040100200E0100206E
:104050000D0100200F010020006402400801002033
:104060003C0200200020F849087005980001F7493B
:104070008860084645604FF0FF30086001204861C5
:104080000020C8600861084602F01FFB4FF0FF34B3
:10409000EF48007800287CD1FCF7DFF843E04FF4CC
:1040A000804002F079FBC8B30198A0EB09002028FA
:1040B00021D20198A0EB090000F0030020B901987B
:1040C000A0EB0900800804E00198A0EB090080083B
:1040D000401C02904FF0000A09E0DE49DBF80000C6
:1040E00008600AF1010A0BF1040B09F104090298B6
:1040F0008245F2D30FE04FF0000A05E05BF82A009A
:10410000D44908600AF1010ABAF1080FF6D30BF19D
:10411000200B09F120096FF0404404E0FFE70CB9DF
:104120000420E1E6641ECB484C38006840F21A6176
:1041300008400028B3D0082002F02EFB20B1082050
:1041400002F035FB0420CFE6022002F025FB20B16F
:10415000022002F02CFB0220C6E6102002F01CFB1D
:1041600020B1102002F023FB0520BDE64FF40070C3
:1041700002F012FB30B14FF4007002F018FB072080
:10418000B2E606E0FCF76BF840F2FF5002F00FFBDE
:1041900043E0AF48007801283FD10020AE490870C5
:1041A000A9490870AD490870AA484438006840F22F
:1041B0001A310843A7494439086040222946069825
:1041C000FFF74DFBA3485438006840F00800A149B0
:1041D0005439086000E0641EA148006800F00060E7
:1041E00008B9002CF7D11CB9FFF78CFA04207BE644
:1041F0004FF0FF3400E0641E9848007820B99648DC
:10420000007808B9002CF6D10CB904206CE692486D
:10421000007810B19048007866E640F2FF5002F056
:10422000C6FA04A8FFF7FDFD064603E004A8FFF761
:10423000F8FD06463EB99DF810000728F6D09DF817
:1042400010000628F2D030464EE62DE9FF5F84B01C
:10425000DDE91247002600200390029000258046E9
:104260008146019007FB04FBDDF810A0DDF810A0EB
:10427000BAF1000F03D1262008B0BDE8F09F00205E
:10428000744954390860714988604860401E08606C
:10429000012048610020C8600861084602F015FA54
:1042A0006C486C38006800F0007008B10E20E3E73D
:1042B0006C480078022808D10402DDE90601400AB2
:1042C00040EAC1504912CDE90601002C1FDDB4F5CA
:1042D000006F1CDC601E2040C8B92046FFF7FAFAC8
:1042E00003906148046010205F4948604020886066
:1042F0000020C8604FF480600861084602F0B9F9F8
:104300001020FEF786FC06461EB13046B4E7262094
:10431000B2E7012F6FD907FB04F0B0F1007F01D3A2
:104320002620A9E74F48007838B14E480078012888
:1043300003D04C48007802282DD14C480088000456
:104340004949086037204860402088600020C860E4
:104350004FF480600861084602F08BF93720FEF7C1
:1043600058FC06460EB1304686E73F4807601720E6
:104370003D494860402088600020C8604FF480605C
:104380000861084602F075F91720FEF742FC064660
:104390000EB1304670E7344906980860192048602D
:1043A000402088600020C8604FF4806008610846A3
:1043B00002F05FF91920FEF72CFC06460EB13046DC
:1043C0005AE7039800012149886007FB04F0486020
:1043D0004FF0FF300860012048610020C86008618C
:1043E000084602F072F91A480078002872D1451E7A
:1043F000FBF733FF54E0F8E04FF4804002F0CCF9D3
:10440000B0B3ABEB0800202833D2ABEB080000F0D0
:10441000030018B9ABEB0800800803E0ABEB080021
:104420008008401C01904FF0000909E00949DAF8C2
:104430000000086009F101090AF1040A08F1040802
:1044400001988145F2D324E00D0100203C020020B8
:104450000C010020802C01400E0100200F010020E3
:10446000006402400401002028020020080100200E
:1044700012E04FF0000905E05AF82900F8490860F9
:1044800009F10109B9F1080FF6D30AF1200A08F180
:1044900020086FF0404503E00DB90420ECE66D1EE6
:1044A000EF484C38006840F21A3108400028A3D089
:1044B000082002F071F920B1082002F078F90420F8
:1044C000DAE6022002F068F928B1022002F06FF962
:1044D0000220D1E640E0102002F05EF920B1102069
:1044E00002F065F90520C7E64FF4007002F054F9B8
:1044F00028B14FF4007002F05AF90720BCE64FF4DF
:10450000807002F049F900B3D648007838B1D54838
:104510000078012803D0D3480078022815D1002064
:10452000D14908600C204860402088600020C860A5
:104530004FF480600861084602F09BF80C20FEF7FB
:1045400068FB06460EB1304696E6FBF788FE40F261
:10455000FF5002F02CF948E0C4480078012844D10B
:104560000020C34908700120C24908700020C249D8
:104570000870BB484438006840F21A310843B84913
:104580004439086007FB04F140220498FFF767F9FB
:10459000B3485438006840F00800B1495439086005
:1045A0004FF0FF3500E06D1EB448006800F0006079
:1045B00008B9002DF7D11DB9FFF7A4F804205BE678
:1045C0004FF0FF3500E06D1EAB48007820B9A848D9
:1045D000007808B9002DF6D10DB904204CE6A448A6
:1045E000007810B1A248007846E640F2FF5002F091
:1045F000DEF802A8FFF715FC064603E002A8FFF765
:1046000010FC06463EB99DF808000728F6D09DF834
:1046100008000628F2D030462EE610B54FF4807020
:1046200002F0BAF888B393480078012814D100202A
:104630008D4908600C204860402088600020C860D8
:104640004FF480600861084602F013F80C20FEF772
:10465000E0FA8749087002E0002085490870804828
:104660004838006840F480707D4948390860081D6A
:1046700000684CF23A318843794944390860012096
:104680007D4908707A48007810BDFFE7022002F0EB
:1046900083F878B1022002F08AF871484438006843
:1046A0004CF23A3188436E4944390860022070491F
:1046B0000870E9E7082002F06FF878B1082002F0EE
:1046C00076F86748443800684CF23A3188436449C8
:1046D00044390860042066490870D5E7202002F0BC
:1046E0005BF878B1202002F062F85D484438006839
:1046F0004CF23A3188435A494439086006205C49F3
:104700000870C1E7102002F047F878B1102002F0DD
:104710004EF85348443800684CF23A3188435049C7
:1047200044390860052052490870ADE74FF4007025
:1047300002F032F880B14FF4007002F038F84848C7
:10474000443800684CF23A3188434549443908609E
:1047500007204749087097E7002095E710B5FFF755
:104760005CFF10BD70B50446002514B92625284607
:1047700070BD4348008800043B4908600D20486034
:10478000402088600020C8604FF4806008610846BF
:1047900001F06FFF0D20FEF73CFA05460DB12846EB
:1047A000E6E72F486C38006820602846E0E708B547
:1047B000002000906846FFF7D5FF08B1FF2008BD34
:1047C0000098C0F34320FAE72DE9FE4F83460E46DA
:1047D000914600200290002534462248007818B106
:1047E000680240EAD45564020BF00300F0B14FF0C8
:1047F000000A18E04FF4007000904FEA4A200719B1
:1048000045EBE0733A461F48FFF76DF802904FF40E
:1048100000721C49584602F0A5F90BF5007B0AF11D
:10482000010000F0FF0ACA45E4DB16E0B9F1010F10
:1048300009D14FF4007022462B4600905846FFF7EE
:1048400052F8029009E04FF4007022462B46CDE961
:1048500000095846FFF768F902900298BDE8FE8FFC
:10486000802C014004010020280200200C010020BF
:104870000E0100200D0100200F0100200064024005
:1048800008010020D00200202DE9FE4F064689468F
:1048900092460020029000254C463D48007818B111
:1048A000680240EAD455640206F00300F0B14FF00C
:1048B000000B18E04FF400723146364802F052F90E
:1048C0004FF4007000904FEA4B20071945EBE0735E
:1048D0003A463048FFF7F0FA029006F500760BF101
:1048E000010000F0FF0BD345E4DB16E0BAF1010F45
:1048F00009D14FF4007022462B4600903046FFF756
:10490000DBFA029009E04FF4007022462B46CDE915
:10491000000A3046FFF799FC02900298BDE8FE8F2E
:1049200010B51D4890F8560030B1012808D0022873
:104930000AD0032810D10BE018A002F06BF80BE0AE
:104940001CA002F067F807E020A002F063F803E083
:1049500024A002F05FF800BF00BF0F4890F82C10B1
:1049600026A002F057F80C48B0F854102AA002F024
:1049700051F80948D0E91220030343EA12512AA052
:1049800002F048F80448016D2DA002F043F810BD74
:1049900004010020D00200207802002043617264EC
:1049A00020547970653A534453432056312E310DCB
:1049B0000A0000004361726420547970653A5344E0
:1049C00053432056322E300D0A00000043617264BA
:1049D00020547970653A534448432056322E300DA6
:1049E0000A0000004361726420547970653A4D4DAD
:1049F0004320436172640D0A000000004361726449
:104A0000204D616E75666163747572657249443AD2
:104A100025640D0A00000000436172642052434186
:104A20003A25640D0A0000004361726420436170FE
:104A300061636974793A2564204D420D0A000000D3
:104A40004361726420426C6F636B53697A653A25E7
:104A5000640D0A0D0A00000010B504466FF0040052
:104A600000F02CFAE11704EB5171C1F3C701394A88
:104A700011701046007800EB4001C1EBC0104FF6FA
:104A8000FF7101EAC0003449088010BD0146314A77
:104A900012784A434FF0E0235A6100229A611A4685
:104AA000126942F001021A6100BF4FF0E022106962
:104AB00000F001021AB100F48032002AF5D04FF064
:104AC000E022126922F001024FF0E0231A61002275
:104AD0009A6170470146204A12884A434FF0E0230A
:104AE0005A6100229A611A46126942F001021A6163
:104AF00000BF4FF0E022106900F001021AB100F48B
:104B00008032002AF5D04FF0E022126922F0010233
:104B10004FF0E0231A6100229A61704770B5044695
:104B20004FF4077094FBF0F0C6B24FF4077094FB9B
:104B3000F0F100FB114085B205E04FF40770FFF77C
:104B4000C9FF701EC6B2002EF7D115B12846FFF777
:104B5000C1FF70BD140100201601002000BF704786
:104B600000BF974A128802F04002002AF9D0C2B270
:104B7000934B1B1D1A80704700BF9149098801F0B3
:104B800040010029F9D08E49091D0880704710B5F1
:104B900003460C46002200BF03E0985CFFF7ECFFE1
:104BA000521CA242F9DB10BD1CB50121084600F0E1
:104BB000C7FC4FF4C050009001208DF80400002085
:104BC0008DF8060003208DF8050001208DF8070000
:104BD00069467C4800F016FA4FF40061794800F00D
:104BE0008DFA4FF48051774800F08AFA1CBD30B539
:104BF00091B004460D460121480500F0A1FC724821
:104C000001F02EFB00BF704801F053FC0028FAD1E0
:104C10004FF0006002906A48001D03900494402009
:104C200005900695002007904FF4806008900020C2
:104C300009900A900B904FF480300C9000200D905A
:104C400003200E9000200F90109002A95E4801F002
:104C5000A9FB4FF0C0515C4801F057FC0122042130
:104C6000594801F066FC0E208DF8040002208DF8F2
:104C7000050000208DF8060001208DF8070001A82E
:104C800000F0CFF8012210214F4801F052FC002122
:104C90004D4801F0C1FB11B030BD10B588B00446DD
:104CA0000121082000F04CFC0121880400F091FC57
:104CB00007220821454800F030FA0722092143481D
:104CC00000F02BFA4FF44070069002208DF81C0083
:104CD0008DF81D0000208DF81E0001208DF81F00AA
:104CE00006A93A4800F08EF902940020ADF80C00B5
:104CF000ADF80E00ADF81000ADF814000C20ADF8C2
:104D0000120002A92E4801F060F801212C4801F0A0
:104D1000E4F840212A4801F0C8F9012240F2255167
:104D2000274801F090F927208DF8040003208DF822
:104D300005008DF8060001208DF8070001A800F09D
:104D400070F84FF425712248FFF751FF01228021AE
:104D50001B4801F06FF9FFF727FF08B010BD10B531
:104D600040F22551164801F0A9F930B1144801F07C
:104D7000E3F8C4B22046FBF794FE10BD70B50446BC
:104D8000114D00BF284601F094FB0028FAD12146BE
:104D9000284601F062FB0121284601F03DFB70BD71
:104DA00010B50C49084801F0E1FB38B10949064843
:104DB00001F0ABFB0021044801F02EFB10BD000008
:104DC000004800400000024058600240000C0240D1
:104DD000D004002000800018094880470948004797
:104DE000FEE7FEE7FEE7FEE7FEE7FEE7FEE7FEE79B
:104DF000FEE7FEE704480549054A064B70470000F8
:104E0000F903000889010008A0B10120A0B7012022
:104E1000A0B30120A0B3012032490143324A1160FE
:104E2000704770B5002100230F22C4781CB32E4CAC
:104E3000246804F4E064C4F5E064C4F30721C1F11C
:104E40000404E3B20A4144789C40E1B284781440FF
:104E500021430C07210E254C05786155047804F098
:104E60001F050124AC4005786D11AD0005F1E0256A
:104E7000C5F8004109E0047804F01F050124AC40A6
:104E80001B4D0678761145F8264070BD194A0A4038
:104E90000243154B1B1F1A60704739B1124A121D8D
:104EA00012680243104B1B1D1A6006E00E4A121DC9
:104EB000126882430C4B1B1D1A607047042808D1EE
:104EC0004FF0E021096941F004014FF0E022116147
:104ED00007E04FF0E021096921F004014FF0E022E2
:104EE000116170470000FA050CED00E000E400E0FD
:104EF00080E100E080FFFF1F10B50446984884421F
:104F000008D10121084600F086FB0021012000F0B5
:104F100082FB76E09348844208D10121022000F010
:104F20007AFB0021022000F076FB6AE08E48844282
:104F300008D10121042000F06EFB0021042000F0C4
:104F40006AFB5EE08948844208D10121082000F014
:104F500062FB0021082000F05EFB52E0844884429E
:104F600008D10121102000F056FB0021102000F094
:104F700052FB46E07F48844208D10121202000F006
:104F80004AFB0021202000F046FB3AE07A488442A8
:104F900008D10121402000F03EFB0021402000F01C
:104FA0003AFB2EE07548844208D10121802000F0B0
:104FB00032FB0021802000F02EFB22E0704884426A
:104FC00008D10121801500F026FB0021A01500F07A
:104FD00022FB16E06B48844208D10121401500F005
:104FE0001AFB0021601500F016FB0AE066488442B7
:104FF00007D10121001500F00EFB0021201500F063
:105000000AFB10BDF0B50A4600210023002400BFB2
:105010003DE0012505FA01F3156805EA03049C4209
:1050200034D105684F000326BE40B54305601579AD
:105030004E00B5400668354305601579012D02D054
:105040001579022D16D185684F000326BE40B54361
:10505000856055794E00B540866835438560456862
:1050600001268E40B5434560456896798E40B6B2BC
:1050700035434560C5684F000326BE40B543C56053
:10508000D5794E00B540C6683543C560491C102926
:10509000BFD3F0BD4FF6FF71016000210171417176
:1050A0008171C171704708B54FF480320092009A47
:1050B0000A430092009AC261C161009AC261C2694A
:1050C0000092C269009208BD0246002013690B409D
:1050D0000BB1012000E0002070470146086980B252
:1050E00070470246002053690B400BB1012000E0DD
:1050F000002070470146486980B2704701837047BD
:10510000418370470AB1018300E0418370474161E8
:10511000704742694A4042617047F0B5002300245D
:105120004D07ED0E02FA05F3CE1000F1200555F8FB
:1051300026504E07F70E0F26BE40B543CF1000F1A4
:10514000200646F82750CE1000F1200555F82650CD
:1051500045EA0304CE1000F1200545F82640F0BDD5
:10516000000002400004024000080240000C02401F
:10517000001002400014024000180240001C0240CF
:10518000002002400024024000280240F948006844
:1051900040F00100F74908600020F6490831086036
:1051A000F4480068F4490840F2490860F348091DD2
:1051B0000860F348EF4984310860F0481038091D51
:1051C0000860EC48006820F48020EA49086000206C
:1051D000E8490C310860E7498C31086070470021CC
:1051E000E44A921C117011460870704710B50146D0
:1051F0000022002300204A11012A02D1DD4C23683D
:1052000008E0022A03D1DB4C7034236802E0D94C59
:105210007434236801F01F02012494401C400CB137
:10522000012000E0002010BD38B5002000900024CF
:10523000002500BF3120FFF7D9FF05460098401C2C
:1052400000900098B0F5A04F01D0002DF2D0312091
:10525000FFF7CCFF08B1012400E00024204638BD50
:1052600001460020C34A106820F0F80040EAC1005F
:1052700010607047C349086070470021BD4A703212
:1052800011701170012802D004280AD104E0012114
:10529000B84A7032117005E00521B64A70321170BB
:1052A00000E000BF00BF7047B7490860704770B5A5
:1052B000049C41EA82150126C6EB530645EA0645E1
:1052C000054345EA0465AB4E361D356070BDAD49FA
:1052D00008667047820142EA0172A64B84331A6065
:1052E0007047A8498866704710B5830143EA016397
:1052F00043EA02739F4C8834236010BDA1490867BC
:105300007047A049C864704702460020994B083393
:10531000186820F0EC6042EA01031843954B08330B
:105320001860704702460020924B0833186820F03E
:10533000784042EA010318438E4B083318607047E7
:10534000014600208B4A0832106820F00300084311
:105350001060704787480830006800F00C00704704
:1053600001460020834A0832106820F0F00008430C
:1053700010607047014600207E4A0832106820F411
:10538000E05008431060704701460020794A083217
:10539000106820F4604040EAC10010607047F0B52A
:1053A000002100220024022500260223714F083725
:1053B0003F6807F00C0121B1042905D0082937D135
:1053C00005E0724F076036E0714F076033E0694FC8
:1053D0003F1D3F68C7F38056664F3F1D3F6807F08B
:1053E0003F036EB16A4FB7FBF3F7DFF888C10CF1EA
:1053F000040CDCF800C0CCF3881C07FB0CF40CE0B8
:10540000624FB7FBF3F7DFF86CC10CF1040CDCF86A
:1054100000C0CCF3881C07FB0CF4564F3F1D3F68BF
:10542000C7F301477F1C7D00B4FBF5F7076002E07E
:10543000564F076000BF00BF4E4F08373F6807F068
:10544000F0010909534F7A5C0768D7404760494F1C
:1054500008373F6807F4E051890A4E4F7A5C476885
:10546000D7408760434F08373F6807F46041490BD6
:10547000484F7A5C4768D740C760F0BD002100F410
:105480004072B2F5407F0AD13A4A0832116821F4DD
:10549000F811414A02401143364A08321160354A38
:1054A00070321268C0F30B031A43324B70331A6028
:1054B00070473549443908607047334940390860BE
:1054C000704736490860704701460020294A8C32EF
:1054D000106820F01F004A1E1043264A8C321060CC
:1054E000704701460020234A8C32106820F4F8509F
:1054F0004A1E40EA02201F4A8C3210607047014663
:1055000000201C4A8C32106820F4401008431060C0
:10551000704701460020174A8C32106820F4400082
:1055200008431060704701460020124A8C32106810
:1055300020F44030084310607047194908607047F4
:1055400039B10C4A3032126802430A4B30331A60C8
:1055500006E0084A303212688243064B30331A6044
:105560007047F9B1034A343212680243014B3433B5
:105570001A601CE000380240FFFFF6EA10300024F9
:105580000030002000004742800E47420024F40013
:1055900000127A0020010020FFFCFF0F5C0147424F
:1055A000E01147428F4A126882438E4B1A6070475F
:1055B00039B18C4A121D126802438A4B1B1D1A60B6
:1055C00006E0884A121D12688243864B1B1D1A6032
:1055D000704739B1834A0C3212680243814B0C3355
:1055E0001A6006E07F4A0C32126882437D4B0C330E
:1055F0001A60704739B17B4A103212680243794B06
:1056000010331A6006E0774A103212688243754BF5
:1056100010331A60704739B1724A243A1268024353
:10562000704B243B1A6006E06E4A243A12688243AB
:105630006C4B243B1A60704739B16A4A203A1268B1
:105640000243684B203B1A6006E0664A203A126823
:105650008243644B203B1A60704739B1614A1C3A5F
:10566000126802435F4B1C3B1A6006E05D4A1C3A1D
:10567000126882435B4B1C3B1A60704739B1594A30
:10568000143A12680243574B143B1A6006E0554A1D
:10569000143A12688243534B143B1A60704739B175
:1056A000504A103A126802434E4B103B1A6006E013
:1056B0004C4A103A126882434A4B103B1A607047BA
:1056C00039B1484A1C3212680243464B1C331A60F7
:1056D00006E0444A1C3212688243424B1C331A6073
:1056E000704739B13F4A2032126802433D4B2033A4
:1056F0001A6006E03B4A203212688243394B20335D
:105700001A60704739B1374A243212680243354B68
:1057100024331A6006E0334A243212688243314B44
:1057200024331A60704739B12E4A2C321268024372
:105730002C4B2C331A6006E02A4A2C321268824322
:10574000284B2C331A60704739B1264A3032126820
:105750000243244B30331A6006E0224A303212688A
:105760008243204B30331A607047012808D11D490D
:105770003C31096841F008011A4A3C32116007E0E7
:1057800018493C31096821F00801164A3C32116081
:10579000704739B1134A273A12780243114B273B1D
:1057A0001A7006E00F4A273A127882430D4B273BC6
:1057B0001A7070470B484030006840F0807009490B
:1057C00040310860704701460020064A283A1268B6
:1057D0000A400AB1012000E0002070470149263943
:1057E000087070473438024010B50446FB488442C4
:1057F00008D101218014FFF752FF0021A014FFF708
:105800004EFF3CE0F648844208D101210014FFF726
:1058100035FF00212014FFF731FF30E0F1488442CA
:1058200008D10121C013FFF729FF0021E013FFF782
:1058300025FF24E0EC48844208D101214014FFF701
:105840002EFF00216014FFF72AFF18E0E74884428A
:1058500009D101210805FFF722FF00214FF4801034
:10586000FFF71DFF0BE0E248844208D10121480503
:10587000FFF715FF00214FF40010FFF710FF10BDD8
:1058800010B50022028802F441520B884C88234351
:105890008C882343CC8823430C8923434C8923439E
:1058A0008C892343CC8923431A430280838B4FF294
:1058B000FF74234083830B8A038210BD2DE9F04FD0
:1058C0000025022300244FF00109002200260027B2
:1058D00094469046B0F81CA04FF2400B0AEA0B0A1F
:1058E000A0F81CA04FF0020AA0F820A0858BD1F8E8
:1058F00008A0BAF1020F01D100BF82E0B1F804A004
:10590000BAF1000F02D14FF0010901E04FF0020996
:10591000DFF8E0A2DAF800A00AF4000ABAF1000FFA
:1059200009D0DFF8D0A2DAF800A02AF4000ADFF8E4
:10593000C4B2CBF800A0DFF8BCA20AF17C0ADAF806
:1059400000A0CAF3881CDFF8ACA20AF17C0ADAF8DE
:1059500000A0CAF30278DFF89CA2AAF1040ADAF8E0
:1059600000A00AF03F07DFF88CA2AAF1040ADAF8D7
:1059700000A00AF4800ABAF5800F08D1DFF878A2F7
:10598000BAFBF7FA0AFB0CFABAFBF8F607E0DFF805
:105990006CA2BAFBF7FA0AFB0CFABAFBF8F6B1F8FC
:1059A00006A0BAF5007F0ED14FEA162A0AEB8A0A42
:1059B0004FEA4A0AD1F808B0BAFBFBFA0AF1050A25
:1059C0001FFA8AF20FE04FEA491AB6FBFAFA0AEB1D
:1059D0008A0A4FEA4A0AD1F808B0BAFBFBFA0AF180
:1059E000050A1FFA8AF24FF00A0AB2FBFAF202F035
:1059F0000104A2EB040ACAF34F034FF6FF7A0AEA46
:105A00000424022B01DBFF2B01DD02230024B1F86B
:105A100006A04AEA040A4AEA030AA0F820A0B1F85C
:105A200004A0B1F80CB04AEA0B0AB1F802B04AEA95
:105A30000B0AB1F800B04AEA0B0A4AF4006A4AEAD3
:105A400005058583BDE8F08F0021018041808180BC
:105A5000C180018141818181C1810721018270471B
:105A60000021018041808180C1800221816000216C
:105A70008181704721B1028842F04002028004E037
:105A800002884FF6BF731A400280704721B1828BA3
:105A900042F48062828304E0828B4FF6FF331A4027
:105AA0008283704702884FF2FF731A400280028897
:105AB0000A4302807047B1F5804F04D1028842F456
:105AC0008042028004E002884BF6FF731A40028095
:105AD00070474FF6FF62914204D0028842F4807210
