:020000040800F2
:1000000070070020515500087504000877040008A7
:100010007B0400087F04000883040008000000003F
:10002000000000000000000000000000870400083D
:1000300089040008000000008B0400088D040008FB
:100040006B5500086B5500086B5500086B55000890
:100050006B5500086B5500086B5500086B55000880
:100060006B5500086B5500086B5500086B55000870
:100070006B5500086B5500086B5500086B55000860
:100080006B5500086B5500086B5500086B55000850
:100090006B5500086B5500086B5500086B55000840
:1000A0006B5500086B5500086B5500086B55000830
:1000B0006B5500086B5500086B5500086B55000820
:1000C0006B5500086B5500086B5500086B55000810
:1000D0006B550008C55400086B5500086B550008A7
:1000E0006B5500086B5500086B5500086B550008F0
:1000F0006B5500086B5500086B5500086B550008E0
:100100006B5500086B5500086B5500086B550008CF
:100110006B5500086B5500086B5500086B550008BF
:100120006B5500086B5500086B5500086B550008AF
:100130006B5500086B5500086B5500086B5500089F
:100140006B5500086B5500086B5500086B5500088F
:100150006B5500086B5500086B5500086B5500087F
:100160006B5500086B5500086B5500086B5500086F
:100170006B5500086B5500086B5500086B5500085F
:100180006B5500086B55000800F002F800F041F8CC
:100190000AA090E8000C82448344AAF10107DA45E2
:1001A00001D100F036F8AFF2090EBAE80F0013F0F3
:1001B000010F18BFFB1A43F0010318472882000003
:1001C00048820000103A24BF78C878C1FAD8520794
:1001D00024BF30C830C144BF04680C6070470000C1
:1001E0000023002400250026103A28BF78C1FBD840
:1001F000520728BF30C148BF0B607047782906F00E
:10020000FF83002070471FB506F0E4FC1FBD10B54A
:1002100010BD06F0ADFC1146FFF7F5FF00F054F8F5
:1002200006F0CBFC03B4FFF7F2FF03BC05F0E6F8E1
:10023000FEB505460E4600240020029000276CA063
:100240001021CDE9001006F1100083B2EF223146F3
:10025000284604F013FE00BF0BE00122214602A84D
:1002600005F029F89DF80800401CC0B2029004F582
:100270008054B4F5801FF0D3002420E001222146F1
:1002800002A805F024F814B99DF8087004E09DF860
:100290000800B84200DC15E000201021CDE9001074
:1002A0009DF80810C91B491C09048A0B05F1780147
:1002B00088B20423314604F082FD04F58054B4F57D
:1002C000801FDBD300BFFEBD1CB5002600244FF409
:1002D000A06005F05DF9A82005F00EF84FF4E130BC
:1002E00005F09AF800F0DCF900F06FFF04F006FE6C
:1002F00004F086FE4FF478404349088043A0102163
:100300000B46C822CDE9001032211E2004F0B6FDB4
:1003100043A010210B46C822CDE9001046211E2023
:1003200004F0ACFD41A010210B46C822CDE900101D
:100330005A211E2004F0A2FD40A010210B46C82225
:10034000CDE900106E211E2004F098FD3EA0102182
:100350000B46C822CDE9001082211E2004F08EFD3C
:100360003DA010210B46C822CDE9001096211E2089
:1003700004F084FD1F202449088000BF03E03A48B0
:1003800040F82440641C39488442F8D32FE0002010
:1003900004F0D2FD0546012D04D1AA213C20FFF72F
:1003A00047FF17E0022D12D100240CE0002010219D
:1003B000CDE900102C4850F824200623BE213C2013
:1003C00004F0FDFC641C29488442EFD302E00A20BB
:1003D00004F0F4FF701CC6B2142E08D10026244885
:1003E000006808B9012000E0002021490860CEE73C
:1003F0004578204D656D6F727920546573743A208D
:100400002020304B42000000140000204578706C22
:100410006F7265722053544D333246340000000031
:100420005352414D205445535400000041544F4D08
:1004300040414C49454E54454B0000003230313468
:100440002F352F31340000004B4559303A54657335
:1004500074205372616D00004B4559313A54455335
:1004600054204461746100000000006890D00300D3
:10047000A4824242704700BFFEE700BFFEE700BF14
:10048000FEE700BFFEE77047704770477047000007
:100490000CB50020019000907648006840F4803050
:1004A0007449086000BF7348006800F40030009091
:1004B0000198401C0190009818B90198B0F5A04F20
:1004C000F1D16C48006800F4003010B101200090B8
:1004D00001E0002000900098012846D16548403096
:1004E000006840F08050634940310860624800680D
:1004F00040F44040604908605E48083000685D494B
:10050000083108600846006840F40040086008466A
:10051000006840F4A05008605848091F0860081F90
:10052000006840F08070091F086000BF51480068F3
:1005300000F000700028F9D040F2057050490860C2
:100540004C480830006820F003004A490831086030
:100550000846006840F00200086000BF45480830C7
:10056000006800F00C000828F8D10CBD10B5454813
:10057000006840F47000434908603E48006840F05D
:1005800001003C49086000203A49083108603948B8
:1005900000683D490840374908603C48091D08602B
:1005A000081F006820F48020091F086000203149DE
:1005B0000C310860FFF76CFF4FF000603149803963
:1005C000086010BD70B50020002202230024022123
:1005D000284D08352D6805F00C0020B1042806D000
:1005E000082834D107E02A4D2A4E356033E02A4DE1
:1005F000284E35602FE01F4D2D1D2D68C5F380540A
:100600001C4D2D1D2D6805F03F0154B1224DB5FB49
:10061000F1F5184E361D3668C6F3881605FB06F24E
:1006200009E01B4DB5FBF1F5124E361D3668C6F3D9
:10063000881605FB06F20F4D2D1D2D68C5F30145EB
:100640006D1C6B00B2FBF3F5124E356003E0104DEC
:10065000104E356000BF00BF064D08352D68C5F34C
:1006600003150E4E705D0B4D2D68C540094E35606B
:1006700070BD000000380240007000400854400780
:10068000003C024088ED00E0FFFFF6FE1030002441
:100690000024F4000000002000127A000400002072
:1006A0001CB50121202005F0EBFD4FF4C060009047
:1006B00001208DF8040000208DF8060003208DF83D
:1006C000050001208DF807006946044805F056F83A
:1006D0004FF4C061014805F0CDF81CBD0014024084
:1006E00001B5BDF800000090BDF80000F749088092
:1006F00008BD01B5BDF800000090BDF80000F34949
:10070000891C088008BD08B5F048801C008800904E
:10071000BDF8000008BD03B5BDF80000EB49088036
:10072000BDF804004FF0D841A1F880000CBD01B520
:10073000BDF80000FFF7D4FF052004F0F7FDFFF738
:10074000E2FF08BDE2480089E04908807047DF49C0
:10075000891C0880704730B5014601F01F04C1F3C1
:100760004513CA0AE50205EB43151544A8B230BD8E
:1007700000BF011EA0F10102D0B2FAD1704730B51E
:1007800004460D46D248808849F24131884205D05E
:10079000CF48808845F21031884214D1CC4948892D
:1007A000FFF79EFF2012FFF7A4FFE0B2FFF7A1FFC3
:1007B000C7498889FFF794FF2812FFF79AFFE8B22C
:1007C000FFF797FF5DE0C248808846F60401884243
:1007D0001DD1BF488079012804D1BD480088401E42
:1007E000001B84B2BA494889FFF77AFF2012FFF74D
:1007F00080FFE0B2FFF77DFFB5498889FFF770FF02
:100800002812FFF776FFE8B2FFF773FF39E0B04830
:10081000808845F21051884220D1AD494889FFF7C0
:100820005FFF2012FFF765FFA9494989491C88B27B
:10083000FFF756FFE0B2FFF75CFFA5498889FFF795
:100840004FFF2812FFF755FFA1498989491C88B23B
:10085000FFF746FFE8B2FFF74CFF12E09C488079B3
:10086000012804D19A480088401E001B84B2984990
:1008700048892146FFF74FFF954988892946FFF7A8
:100880004AFF30BD3EB504460D460020029001905F
:1008900000908F480088A04203DD8D484088A84220
:1008A00001DC00203EBD29462046FFF768FF88484E
:1008B000808849F2413188420BD08548808846F6CD
:1008C0000401884205D08248808845F21031884270
:1008D00003D12E20FFF704FF0DE07D48808845F20C
:1008E0001051884204D14FF43850FFF7F9FE02E06E
:1008F0002220FFF7F5FE7648808849F220318842B1
:1009000002D10220FFF734FFFFF7FDFE0220FFF7C0
:100910002FFFFFF7F8FE02906D48808849F24131C1
:1009200088420BD06A48808845F21031884205D051
:100930006748808845F21051884210D10220FFF7A5
:1009400017FFFFF7E0FE0090BDF80800C0B201906D
:10095000BDF804004FF6FF7101EA002001905C48E9
:10096000808849F22531884216D05948808844F25F
:100970003551884210D056488088091F88420BD0D4
:10098000534880884BF20551884205D050488088F2
:100990004CF20551884202D1BDF8080082E74C486C
:1009A000808849F2413188420BD04948808845F21D
:1009B0001031884205D04648808845F2105188425F
:1009C0000DD1BDF80800C012C002BDF80410891294
:1009D00040EA4110BDF8001040EAE12062E7BDF8AE
:1009E0000800FFF7B8FE5DE700B53948808849F296
:1009F000413188420BD03648808846F6040188424F
:100A000005D03348808845F21031884203D129202F
:100A1000FFF766FE0FE02E48808845F210518842AD
:100A200004D14FF42450FFF75BFE04E040F2731151
:100A30000720FFF770FE00BD00B52548808849F209
:100A4000413188420BD02248808846F60401884212
:100A500005D01F48808845F21031884203D12820F4
:100A6000FFF73EFE0EE01A48808845F2105188429A
:100A700004D14FF42050FFF733FE03E0002107209C
:100A8000FFF749FE00BDF0B50546002400271048D9
:100A90008079012823D10E48808846F604018842D7
:100AA0001DD0082D1AD2DFE805F00406080A0C0E46
:100AB0001517062512E0072510E004250EE0052590
:100AC0000CE001250AE0002508E000007E00006C33
:100AD00038000020032501E0022500BF00BFFE48CA
:100AE000808849F24131884211D0FB48808846F61F
:100AF000040188420BD0F848808845F210318842C2
:100B000005D0F548808845F2105188427ED1082DE5
:100B10001CD2DFE805F00406090C0F12151800BFFF
:100B200014E044F0800411E044F040040EE044F08E
:100B3000C0040BE044F0200408E044F0600405E049
:100B400044F0A00402E044F0E00400BF00BFE2482B
:100B5000808845F21051884202D14FF4585700E086
:100B60003627DD48808845F21031884207D0DA48C0
:100B7000808845F21051884201D044F00804D648DC
:100B8000808846F60401884201D144F002042146DF
:100B90003846FFF7C0FD04F0200068B1CE48008859
:100BA000CD494988884214DACB4806884088CA492A
:100BB0000880084646800CE0C7480088C649498836
:100BC000884206DDC44806884088C3490880084634
:100BD0004680C148808845F21051884254D1BE49B0
:100BE0004889FFF77DFD0020FFF783FDBA49498959
:100BF000491C88B2FFF774FD0020FFF77AFDB64963
:100C00004989891C88B2FFF76BFD00E06BE0B249AF
:100C10000988491EC1F30F20FFF76BFDAE494989D2
:100C2000C91C88B2FFF75CFDAB490978491EC8B200
:100C3000FFF75FFDA8498889FFF752FD0020FFF705
:100C400058FDA5498989491C88B2FFF749FD002054
:100C5000FFF74FFDA0498989891C88B2FFF740FD45
:100C60009D494988491EC1F30F20FFF742FD9A496B
:100C70008989C91C88B2FFF733FD97498978491ED5
:100C8000C8B2FFF736FD55E093494889FFF728FDC4
:100C90000020FFF72EFD0020FFF72BFD8E4909886D
:100CA000491EC1F30F20FFF724FD8B490978491E27
:100CB000C8B2FFF71EFD88498889FFF711FD0020A3
:100CC000FFF717FD0020FFF714FD83494988491EEF
:100CD000C1F30F20FFF70DFD7F498978491EC8B287
:100CE000FFF707FD26E0082D1CD2DFE805F004071A
:100CF0000A0D0F12151844F0300413E044F01004EC
:100D000010E044F020040DE000BF0BE044F0380494
:100D100008E044F0280405E044F0180402E044F040
:100D2000080400BF00BF032744F48054214638461E
:100D3000FFF7F1FCF0BD30B504460D4629462046CC
:100D4000FFF71DFDFFF7FEFC64480088644908803A
:100D500030BD70B504460D4616465F48808849F29E
:100D60004131884205D05C48808845F21031884284
:100D700014D159494889FFF7B3FC2012FFF7B9FC99
:100D8000E0B2FFF7B6FC54498889FFF7A9FC2812A6
:100D9000FFF7AFFCE8B2FFF7ACFC5DE04E4880889F
:100DA00045F21051884220D14B494889FFF798FC01
:100DB0002012FFF79EFC48494989491C88B2FFF779
:100DC0008FFCE0B2FFF795FC43498889FFF788FC68
:100DD0002812FFF78EFC40498989491C88B2FFF729
:100DE0007FFCE8B2FFF785FC36E03B48808846F69A
:100DF000040188421DD138488079012804D1364841
:100E00000088401E001B84B233494889FFF768FC04
:100E10002012FFF76EFCE0B2FFF76BFC2E498889C9
:100E2000FFF75EFC2812FFF764FCE8B2FFF761FCF5
:100E300012E029488079012804D127480088401E03
:100E4000001B84B2244948892146FFF764FC2249EB
:100E500088892946FFF75FFC1F4800892049891EC1
:100E600008804FF0D840A0F8806070BD10B50446EF
:100E7000002C5AD118498871F02008804FF4A070D6
:100E800048800846808849F2413188420BD0124898
:100E9000808846F60401884205D00F48808845F2D4
:100EA0001031884222D12C200B4908812A20488108
:100EB0002B2088810846808846F60401884205D0A8
:100EC0000548808845F2103188420ED14FF4A07059
:100ED0000149088006E000003800002014000020CE
:100EE0008000006C4FF4F070488079E0FE48808804
:100EF00045F21051884210D14FF43050FA49088120
:100F00004FF4285048814FF42C5088814FF4F070F2
:100F100008804FF44870488062E02220F24908813E
:100F200020204881212088815AE00120EE498871E3
:100F30004FF4A0700880F02048800846808849F26D
:100F40004131884205D0E848808845F21031884216
:100F500007D12C20E44908812A2048812B20888150
:100F60002BE0E148808846F60401884207D12C2016
:100F7000DD4908812B2048812A2088811DE0DA483C
:100F8000808845F21051884210D14FF43050D64934
:100F900008814FF4285048814FF42C5088814FF439
:100FA000487008804FF4F070488006E02220CE4957
:100FB00008812120488120208881CB48808846F6FE
:100FC0000401884205D0C848808845F21031884223
:100FD00006D14FF4F070C44908804FF4A0704880E7
:100FE0000020FFF750FD10BD2DE9FF4F04460D46D0
:100FF00016461F46A019401E86B2E819401E87B249
:10100000B948808849F2413188420BD0B64880887F
:1010100045F21031884205D0B348808846F6040175
:10102000884220D1B0494889FFF75AFB2012FFF7C8
:1010300060FBE0B2FFF75DFB3012FFF75AFBF0B246
:10104000FFF757FBA8498889FFF74AFB2812FFF7EB
:1010500050FBE8B2FFF74DFB3812FFF74AFBF8B23E
:10106000FFF747FB7DE0A048808845F21051884299
:1010700044D19D494889FFF733FB2012FFF739FB24
:1010800099494989491C88B2FFF72AFBE0B2FFF76A
:1010900030FB95494989891C88B2FFF721FB301242
:1010A000FFF727FB90494989C91C88B2FFF718FB55
:1010B000F0B2FFF71EFB8C498889FFF711FB28125D
:1010C000FFF717FB88498989491C88B2FFF708FB9D
:1010D000E8B2FFF70EFB84498989891C88B2FFF7C3
:1010E000FFFA3812FFF705FB7F498989C91C88B2CE
:1010F000FFF7F6FAF8B2FFF7FCFA32E07A488079A7
:1011000001280ED1A846B94677480088801B401EAA
:101110001FFA80FA74480088001B401E1FFA80FBEB
:1011200003E0A046B146AA46BB465020039051209A
:101130000290522001905320009041460398FFF7FF
:10114000EAFA49460298FFF7E6FA51460198FFF796
:10115000E2FA59460098FFF7DEFA29462046FFF7E3
:101160000EFBBDE8FF8F70B5044600265E4805887B
:10117000408845435C48808846F60401884216D181
:1011800059488079012812D10020574988712A20B6
:1011900048812B20888100210846FFF7F0FA0120C2
:1011A000514988712B2048812A20888103E0002141
:1011B0000846FFF7E4FAFFF7C5FA002602E04B48BD
:1011C0000480761CAE42FAD370BD00B5A1B00020F9
:1011D000209001217A2005F053F80121084605F0FE
:1011E00087F84FF400401E9001208DF87C0000200D
:1011F0008DF87E0002208DF87D0001208DF87F00A3
:101200001EA93B4804F0BAFA4CF233701E9002203B
:101210008DF87C0000208DF87E0003208DF87D0085
:1012200001208DF87F001EA9324804F0A7FA4FF67E
:1012300080701E9002208DF87C0000208DF87E00CA
:1012400003208DF87D0001208DF87F001EA92A481B
:1012500004F094FA4FF480501E9002208DF87C0028
:1012600000208DF87E0003208DF87D0001208DF890
:101270007F001EA9214804F081FA4FF480501E908F
:1012800002208DF87C0000208DF87E0003208DF870
:101290007D0001208DF87F001EA9194804F06EFA28
:1012A0000C220021134804F0F4FA0C220121114809
:1012B00004F0EFFA0C2204210E4804F0EAFA0C22A2
:1012C00005210C4804F0E5FA0C220821094804F035
:1012D000E0FA0C220921074804F0DBFA0C220A216B
:1012E000044804F0D6FA0DE0380000208000006CBD
:1012F00000040240000C02400010024000140240B2
:10130000001802400C220E21FE4804F0C2FA0C2202
:101310000F21FC4804F0BDFA0C220721FA4804F022
:10132000B8FA0C220821F84804F0B3FA0C2209217B
:10133000F54804F0AEFA0C220A21F34804F0A9FAA9
:101340000C220B21F04804F0A4FA0C221146EE48BE
:1013500004F09FFA0C220D21EB4804F09AFA0C22BB
:101360000E21E94804F095FA0C220F21E64804F01A
:1013700090FA0C221146E54804F08BFA0C22114633
:10138000E34804F086FA0F200890002009903C20E2
:101390000A9000200B900C900D900E900920019067
:1013A00000200290082003900020049005900690F1
:1013B000079006200F90002010901190102012909E
:1013C0000020139015901490169017904FF48050B1
:1013D0001890002019904FF480401A9000201B9024
:1013E00008A81C9001A81D900FA804F0A6FA0121DE
:1013F000062004F02DFB322003F0E0FF0121002045
:10140000FFF789F9322003F0D9FF0020FFF78FF9A9
:10141000C049888008468088FF280ADB0846808803
:101420004FF6FF71884204D0BA488088B0F5134F58
:101430007ED1D320FFF754F9FFF765F9B5498880CD
:10144000FFF761F9B3498880FFF75DF9B1498880FA
:10145000084680884FF6FF7101EA0020AD49888078
:10146000FFF751F9AB4989880843AA4988800846A3
:10147000808849F24131884278D0BF20FFF730F9A7
:10148000FFF741F9A3498880FFF73DF9A14988801A
:10149000FFF739F99F498880FFF735F99D49888022
:1014A000084680884FF6FF7101EA0020994988803C
:1014B000FFF729F9974989880843964988800846A3
:1014C000808846F60401884250D0D420FFF708F9FE
:1014D000FFF719F98F498880FFF715F98D49888042
:1014E000FFF711F98B498880084680884FF6FF7115
:1014F00001EA002087498880FFF705F98549898836
:101500000843844988800846808845F21031884223
:101510002CD04FF45A40FFF7E3F8FFF7F4F87D4979
:1015200088804FF45B40FFF7DBF8FFF7ECF800E052
:101530001CE078498880084680884FF6FF7101EAF0
:101540000020744988804FF45C40FFF7C9F8FFF72A
:10155000DAF87049898808436E498880084680888F
:10156000B0F5004F02D145F210508880694880885C
:1015700049F2413188420BD06648808845F21031EB
:10158000884205D06348808845F2105188421DD1B9
:101590006148006820F00F004FF02041C1F81C01A5
:1015A0000846D0F81C0120F47060C1F81C01084600
:1015B000D0F81C0140F00300C1F81C010846D0F827
:1015C0001C0140F40070C1F81C0128E051488088DB
:1015D00046F60401884205D04E4880884CF20551F9
:1015E00088421CD14C48006820F00F004FF0204189
:1015F000C1F81C010846D0F81C0120F47060C1F845
:101600001C010846D0F81C0140F00A00C1F81C017A
:101610000846D0F81C0140F44060C1F81C013D4868
:1016200081883EA005F0ACF93A48808849F2413102
:1016300088427BD1CF20FFF753F80020FFF759F8FD
:101640002098401C2090C120FFF753F83020FFF76E
:1016500050F8ED20FFF744F86420FFF74AF8032024
:10166000FFF747F81220FFF744F88120FFF741F811
:10167000E820FFF735F88520FFF73BF81020FFF74B
:1016800038F87A20FFF735F8CB20FFF729F8392012
:10169000FFF72FF82C20FFF72CF80020FFF729F890
:1016A0003420FFF726F80220FFF723F8F720FFF792
:1016B00017F82020FFF71DF8EA20FFF711F80020A7
:1016C000FFF717F80020FFF714F8C020FFF708F81D
:1016D0001B20FFF70EF8C120FFF702F80120FFF7EB
:1016E00008F8C520FEF7FCFF3020FFF702F8302095
:1016F000FEF7FFFFC720FEF7F3FFB720FEF7F9FF65
:10170000362014E0000C0240001002400014024099
:1017100000180240380000201C0100A0204C434467
:101720002049443A25780D0A00000000B1E0FEF798
:10173000D7FF4820FEF7DDFF3A20FEF7D1FF552006
:10174000FEF7D7FFB120FEF7CBFF0020FEF7D1FF59
:101750001A20FEF7CEFFB620FEF7C2FF0A20FEF7E2
:10176000C8FFA220FEF7C5FFF220FEF7B9FF002058
:10177000FEF7BFFF2620FEF7B3FF0120FEF7B9FFFB
:10178000E020FEF7ADFF0F20FEF7B3FF2A20FEF7A3
:10179000B0FF2820FEF7ADFF0820FEF7AAFF0E20BD
:1017A000FEF7A7FF0820FEF7A4FF5420FEF7A1FFD5
:1017B000A920FEF79EFF4320FEF79BFF0A20FEF7BD
:1017C00098FF0F20FEF795FF0020FEF792FF002004
:1017D000FEF78FFF0020FEF78CFF0020FEF789FF49
:1017E000E120FEF77DFF0020FEF783FF1520FEF7C6
:1017F00080FF1720FEF77DFF0720FEF77AFF1120FC
:10180000FEF777FF0620FEF774FF2B20FEF771FF2F
:101810005620FEF76EFF3C20FEF76BFF0520FEF71B
:1018200068FF1020FEF765FF0F20FEF762FF3F20E4
:10183000FEF75FFF3F20FEF75CFF0F20FEF759FF2A
:101840002B20FEF74DFF0020FEF753FF0020FEF790
:1018500050FF0120FEF74DFF3F20FEF74AFF2A20F0
:10186000FEF73EFF0020FEF744FF0020FEF741FF99
:101870000020FEF73EFFEF20FEF73BFF1120FEF7B2
:101880002FFF782003F09AFD2920FEF729FF03F0AF
:101890005CB8FE48808846F6040188427ED111205B
:1018A000FEF71EFF142003F089FDD020FEF718FF7D
:1018B0000720FEF71EFF4220FEF71BFF1D20FEF74C
:1018C00018FFD120FEF70CFF0020FEF712FF1A20B0
:1018D000FEF70FFF0920FEF70CFFD220FEF700FFF6
:1018E0000120FEF706FF2220FEF703FFC020FEF7CF
:1018F000F7FE1020FEF7FDFE3B20FEF7FAFE00206B
:10190000FEF7F7FE0220FEF7F4FE1120FEF7F1FECF
:10191000C520FEF7E5FE0320FEF7EBFEC820FEF72C
:10192000DFFE0020FEF7E5FE2520FEF7E2FE212087
:10193000FEF7DFFE0520FEF7DCFE0020FEF7D9FEF5
:101940000A20FEF7D6FE6520FEF7D3FE2520FEF71F
:10195000D0FE7720FEF7CDFE5020FEF7CAFE0F2006
:10196000FEF7C7FE0020FEF7C4FEF820FEF7B8FE23
:101970000120FEF7BEFEFE20FEF7B2FE0020FEF7BD
:10198000B8FE0220FEF7B5FE2020FEF7A9FE3620A5
:10199000FEF7A6FE0820FEF7ACFE00E02AE03A20A3
:1019A000FEF79EFE5520FEF7A4FE2B20FEF798FEC4
:1019B0000020FEF79EFE0020FEF79BFE0120FEF7B2
:1019C00098FE3F20FEF795FE2A20FEF789FE0020B4
:1019D000FEF78FFE0020FEF78CFE0120FEF789FE49
:1019E000DF20FEF786FE782003F0E8FC2920FEF7D2
:1019F00077FE4CE7A548808845F21031884240F0D8
:101A00007C87ED20FEF76CFE0120FEF772FEFE20C3
:101A1000FEF76FFEEE20FEF763FEDE20FEF769FEA6
:101A20002120FEF766FEF120FEF75AFE0120FEF7A8
:101A300060FEDF20FEF754FE1020FEF75AFEC420A1
:101A4000FEF74EFE8F20FEF754FEC620FEF748FE3E
:101A50000020FEF74EFEE220FEF74BFEE220FEF7EE
:101A600048FEE220FEF745FEBF20FEF739FEAA2021
:101A7000FEF73FFEB020FEF733FE0D20FEF739FEE5
:101A80000020FEF736FE0D20FEF733FE0020FEF7A5
:101A900030FE1120FEF72DFE0020FEF72AFE192051
:101AA000FEF727FE0020FEF724FE2120FEF721FE90
:101AB0000020FEF71EFE2D20FEF71BFE0020FEF785
:101AC00018FE3D20FEF715FE0020FEF712FE5D20F9
:101AD000FEF70FFE0020FEF70CFE5D20FEF709FE6C
:101AE0000020FEF706FEB120FEF7FAFD8020FEF78B
:101AF00000FE0020FEF7FDFD8B20FEF7FAFD002022
:101B0000FEF7F7FD9620FEF7F4FD0020FEF7F1FD4D
:101B1000B220FEF7E5FD0020FEF7EBFD0020FEF70A
:101B2000E8FD0220FEF7E5FD0020FEF7E2FD0320C0
:101B3000FEF7DFFD0020FEF7DCFDB320FEF7D0FD51
:101B40000020FEF7D6FD0020FEF7D3FD0020FEF7B3
:101B5000D0FD0020FEF7CDFD0020FEF7CAFD0020DD
:101B6000FEF7C7FD0020FEF7C4FD0020FEF7C1FD13
:101B70000020FEF7BEFD0020FEF7BBFD0020FEF7B3
:101B8000B8FD0020FEF7B5FD0020FEF7B2FD0020F5
:101B9000FEF7AFFD0020FEF7ACFD0020FEF7A9FD2B
:101BA0000020FEF7A6FD0020FEF7A3FD0020FEF7B3
:101BB000A0FD0020FEF79DFD0020FEF79AFD00200D
:101BC000FEF797FD0020FEF794FD0020FEF791FD43
:101BD000B420FEF785FD8B20FEF78BFD0020FEF77D
:101BE00088FD9620FEF785FD0020FEF782FDA120EE
:101BF000FEF77FFD0020FEF77CFDB520FEF770FDAF
:101C00000220FEF776FD0020FEF773FD0320FEF7AD
:101C100070FD0020FEF76DFD0420FEF76AFD002038
:101C2000FEF767FDB620FEF75BFD0020FEF761FDC5
:101C30000020FEF75EFDB720FEF752FD0020FEF704
:101C400058FD0020FEF755FD3F20FEF752FD002015
:101C5000FEF74FFD5E20FEF74CFD0020FEF749FD2C
:101C60006420FEF746FD0020FEF743FD8C20FEF7C2
:101C700040FD0020FEF73DFDAC20FEF73AFD0020C0
:101C8000FEF737FDDC20FEF734FD01E038000020D0
:101C90000020FEF72EFD7020FEF72BFD0020FEF742
:101CA00028FD9020FEF725FD0020FEF722FDEB2009
:101CB000FEF71FFD0020FEF71CFDDC20FEF719FDDE
:101CC0000020FEF716FDB820FEF70AFD0020FEF703
:101CD00010FD0020FEF70DFD0020FEF70AFD00209C
:101CE000FEF707FD0020FEF704FD0020FEF701FDD2
:101CF0000020FEF7FEFC0020FEF7FBFCBA20FEF7FA
:101D0000EFFC2420FEF7F5FC0020FEF7F2FC00209B
:101D1000FEF7EFFC0020FEF7ECFCC120FEF7E0FC34
:101D20002020FEF7E6FC0020FEF7E3FC5420FEF73F
:101D3000E0FC0020FEF7DDFCFF20FEF7DAFC0020CF
:101D4000FEF7D7FCC220FEF7CBFC0A20FEF7D1FC41
:101D50000020FEF7CEFC0420FEF7CBFC0020FEF7AF
:101D6000C8FCC320FEF7BCFC3C20FEF7C2FC0020F0
:101D7000FEF7BFFC3A20FEF7BCFC0020FEF7B9FCE2
:101D80003920FEF7B6FC0020FEF7B3FC3720FEF743
:101D9000B0FC0020FEF7ADFC3C20FEF7AAFC0020C2
:101DA000FEF7A7FC3620FEF7A4FC0020FEF7A1FCFE
:101DB0003220FEF79EFC0020FEF79BFC2F20FEF752
:101DC00098FC0020FEF795FC2C20FEF792FC0020EA
:101DD000FEF78FFC2920FEF78CFC0020FEF789FC23
:101DE0002620FEF786FC0020FEF783FC2420FEF769
:101DF00080FC0020FEF77DFC2420FEF77AFC00200A
:101E0000FEF777FC2320FEF774FC0020FEF771FC40
:101E10003C20FEF76EFC0020FEF76BFC3620FEF740
:101E200068FC0020FEF765FC3220FEF762FC002013
:101E3000FEF75FFC2F20FEF75CFC0020FEF759FC4C
:101E40002C20FEF756FC0020FEF753FC2920FEF75D
:101E500050FC0020FEF74DFC2620FEF74AFC002037
:101E6000FEF747FC2420FEF744FC0020FEF741FC6F
:101E70002420FEF73EFC0020FEF73BFC2320FEF76B
:101E800038FC0020FEF735FCC420FEF729FC622058
:101E9000FEF72FFC0020FEF72CFC0520FEF729FCA6
:101EA0000020FEF726FC8420FEF723FC0020FEF72E
:101EB00020FCF020FEF71DFC0020FEF71AFC182085
:101EC000FEF717FC0020FEF714FCA420FEF711FC1F
:101ED0000020FEF70EFC1820FEF70BFC0020FEF79A
:101EE00008FC5020FEF705FC0020FEF702FC0C2049
:101EF000FEF7FFFB0020FEF7FCFB1720FEF7F9FBC7
:101F00000020FEF7F6FB9520FEF7F3FB0020FEF71E
:101F1000F0FBF320FEF7EDFB0020FEF7EAFBE620E6
:101F2000FEF7E7FB0020FEF7E4FBC520FEF7D8FB39
:101F30003220FEF7DEFB0020FEF7DBFB4420FEF73D
:101F4000D8FB0020FEF7D5FB6520FEF7D2FB002072
:101F5000FEF7CFFB7620FEF7CCFB0020FEF7C9FB97
:101F60008820FEF7C6FB0020FEF7C3FBC620FEF765
:101F7000B7FB2020FEF7BDFB0020FEF7BAFB1720C1
:101F8000FEF7B7FB0020FEF7B4FB0120FEF7B1FB24
:101F90000020FEF7AEFBC720FEF7A2FB0020FEF7F5
:101FA000A8FB0020FEF7A5FB0020FEF7A2FB002007
:101FB000FEF79FFBC820FEF793FB0020FEF799FB7E
:101FC0000020FEF796FB0020FEF793FB0020FEF7B3
:101FD00090FBC920FEF784FB0020FEF78AFB00205F
:101FE000FEF787FB0020FEF784FB0020FEF781FB55
:101FF0000020FEF77EFB0020FEF77BFB0020FEF7B3
:1020000078FB0020FEF775FB0020FEF772FB002036
:10201000FEF76FFB0020FEF76CFB0020FEF769FB6C
:102020000020FEF766FB0020FEF763FB0020FEF7B2
:1020300060FB0020FEF75DFBE020FEF751FB162061
:10204000FEF757FB0020FEF754FB1C20FEF751FB68
:102050000020FEF74EFB2120FEF74BFB0020FEF791
:1020600048FB3620FEF745FB0020FEF742FB4620EA
:10207000FEF73FFB0020FEF73CFB5220FEF739FB4A
:102080000020FEF736FB6420FEF733FB0020FEF74E
:1020900030FB7A20FEF72DFB0020FEF72AFB8B2079
:1020A000FEF727FB0020FEF724FB9920FEF721FB1B
:1020B0000020FEF71EFBA820FEF71BFB0020FEF70A
:1020C00018FBB920FEF715FB0020FEF712FBC42019
:1020D000FEF70FFB0020FEF70CFBCA20FEF709FB02
:1020E0000020FEF706FBD220FEF703FB0020FEF7E0
:1020F00000FBD920FEF7FDFA0020FEF7FAFAE020F7
:10210000FEF7F7FA0020FEF7F4FAF320FEF7F1FAF3
:102110000020FEF7EEFAE120FEF7E2FA1620FEF7C5
:10212000E8FA0020FEF7E5FA1C20FEF7E2FA0020AC
:10213000FEF7DFFA2220FEF7DCFA0020FEF7D9FADC
:102140003620FEF7D6FA0020FEF7D3FA4520FEF738
:10215000D0FA0020FEF7CDFA5220FEF7CAFA00208E
:10216000FEF7C7FA6420FEF7C4FA0020FEF7C1FAB2
:102170007A20FEF7BEFA0020FEF7BBFA8B20FEF7AE
:10218000B8FA0020FEF7B5FA9920FEF7B2FA00205F
:10219000FEF7AFFAA820FEF7ACFA0020FEF7A9FA86
:1021A000B920FEF7A6FA0020FEF7A3FAC420FEF736
:1021B000A0FA0020FEF79DFACA20FEF79AFA002046
:1021C000FEF797FAD220FEF794FA0020FEF791FA74
:1021D000D820FEF78EFA0020FEF78BFAE020FEF7FB
:1021E00088FA0020FEF785FAF320FEF782FA002035
:1021F000FEF77FFAE220FEF773FA0520FEF779FA80
:102200000020FEF776FA0B20FEF773FA0020FEF7A7
:1022100070FA1B20FEF76DFA0020FEF76AFA3420F0
:10222000FEF767FA0020FEF764FA4420FEF761FA31
:102230000020FEF75EFA4F20FEF75BFA0020FEF763
:1022400058FA6120FEF755FA0020FEF752FA79207D
:10225000FEF74FFA0020FEF74CFA8820FEF749FA05
:102260000020FEF746FA9720FEF743FA0020FEF71B
:1022700040FAA620FEF73DFA0020FEF73AFAB72012
:10228000FEF737FA0020FEF734FAC220FEF731FAE3
:102290000020FEF72EFAC720FEF72BFA0020FEF7EB
:1022A00028FAD120FEF725FA0020FEF722FAD620E0
:1022B000FEF71FFA0020FEF71CFADD20FEF719FAE0
:1022C0000020FEF716FAF320FEF713FA0020FEF7BF
:1022D00010FAE320FEF704FA0520FEF70AFA0020C0
:1022E000FEF707FA0A20FEF704FA0020FEF701FACB
:1022F0001C20FEF7FEF90020FEF7FBF93320FEF765
:10230000F8F90020FEF7F5F94420FEF7F2F9002075
:10231000FEF7EFF95020FEF7ECF90020FEF7E9F99F
:102320006220FEF7E6F90020FEF7E3F97820FEF7D9
:10233000E0F90020FEF7DDF98820FEF7DAF9002049
:10234000FEF7D7F99720FEF7D4F90020FEF7D1F970
:10235000A620FEF7CEF90020FEF7CBF9B720FEF756
:10236000C8F90020FEF7C5F9C220FEF7C2F9002027
:10237000FEF7BFF9C720FEF7BCF90020FEF7B9F958
:10238000D120FEF7B6F90020FEF7B3F9D520FEF70D
:10239000B0F90020FEF7ADF9DD20FEF7AAF9002024
:1023A000FEF7A7F9F320FEF7A4F90020FEF7A1F944
:1023B000E420FEF795F90120FEF79BF90020FEF7D7
:1023C00098F90120FEF795F90020FEF792F9022016
:1023D000FEF78FF90020FEF78CF92A20FEF789F925
:1023E0000020FEF786F93C20FEF783F90020FEF777
:1023F00080F94B20FEF77DF90020FEF77AF95D2089
:10240000FEF777F90020FEF774F97420FEF771F9F2
:102410000020FEF76EF98420FEF76BF90020FEF72E
:1024200068F99320FEF765F90020FEF762F9A22013
:10243000FEF75FF90020FEF75CF9B320FEF759F9CB
:102440000020FEF756F9BE20FEF753F90020FEF7F4
:1024500050F9C420FEF74DF90020FEF74AF9CD20CF
:10246000FEF747F90020FEF744F9D320FEF741F9C3
:102470000020FEF73EF9DD20FEF73BF90020FEF7D5
:1024800038F9F320FEF735F90020FEF732F9E520A0
:10249000FEF726F90020FEF72CF90020FEF729F9B7
:1024A0000020FEF726F90020FEF723F90220FEF7B0
:1024B00020F90020FEF71DF92920FEF71AF9002067
:1024C000FEF717F93C20FEF714F90020FEF711F98A
:1024D0004B20FEF70EF90020FEF70BF95D20FEF70A
:1024E00008F90020FEF705F97420FEF702F9002034
:1024F000FEF7FFF88420FEF7FCF80020FEF7F9F85D
:102500009320FEF7F6F80020FEF7F3F8A220FEF77E
:10251000F0F80020FEF7EDF8B320FEF7EAF800200F
:10252000FEF7E7F8BE20FEF7E4F80020FEF7E1F83A
:10253000C420FEF7DEF80020FEF7DBF8CD20FEF722
:10254000D8F80020FEF7D5F8D320FEF7D2F8002007
:10255000FEF7CFF8DC20FEF7CCF80020FEF7C9F834
:10256000F320FEF7C6F80020FEF7C3F8E620FEF7DA
:10257000B7F81120FEF7BDF80020FEF7BAF83420B6
:10258000FEF7B7F80020FEF7B4F85620FEF7B1F8D2
:102590000020FEF7AEF87620FEF7ABF80020FEF73D
:1025A000A8F87720FEF7A5F80020FEF7A2F866202D
:1025B000FEF79FF80020FEF79CF88820FEF799F8B8
:1025C0000020FEF796F89920FEF793F80020FEF71A
:1025D00090F8BB20FEF78DF80020FEF78AF89920CE
:1025E000FEF787F80020FEF784F86620FEF781F8F2
:1025F0000020FEF77EF85520FEF77BF80020FEF75E
:1026000078F85520FEF775F80020FEF772F845209F
:10261000FEF76FF80020FEF76CF84320FEF769F82C
:102620000020FEF766F84420FEF763F80020FEF76E
:1026300060F8E720FEF754F83220FEF75AF8002041
:10264000FEF757F85520FEF754F80020FEF751F832
:102650007620FEF74EF80020FEF74BF86620FEF7D6
:1026600048F80020FEF745F86720FEF742F8002002
:10267000FEF73FF86720FEF73CF80020FEF739F838
:102680008720FEF736F80020FEF733F89920FEF792
:1026900030F80020FEF72DF8BB20FEF72AF80020C6
:1026A000FEF727F89920FEF724F80020FEF721F81E
:1026B0007720FEF71EF80020FEF71BF84420FEF7F7
:1026C00018F80020FEF715F85620FEF712F8002043
:1026D000FEF70FF82320FEF70CF80020FEF709F8AC
:1026E0003320FEF706F80020FEF703F84520FEF73A
:1026F00000F80020FDF7FDFFE820FDF7F1FF0020C6
:10270000FDF7F7FF0020FDF7F4FF9920FDF7F1FF3B
:102710000020FDF7EEFF8720FDF7EBFF0020FDF71F
:10272000E8FF8820FDF7E5FF0020FDF7E2FF7720B6
:10273000FDF7DFFF0020FDF7DCFF6620FDF7D9FF86
:102740000020FDF7D6FF8820FDF7D3FF0020FDF71E
:10275000D0FFAA20FDF7CDFF0020FDF7CAFFBB2068
:10276000FDF7C7FF0020FDF7C4FF9920FDF7C1FF6B
:102770000020FDF7BEFF6620FDF7BBFF0020FDF740
:10278000B8FF5520FDF7B5FF0020FDF7B2FF55203B
:10279000FDF7AFFF0020FDF7ACFF4420FDF7A9FFD8
:1027A0000020FDF7A6FF4420FDF7A3FF0020FDF762
:1027B000A0FF5520FDF79DFF0020FDF79AFFE920BF
:1027C000FDF78EFFAA20FDF794FF0020FDF791FF93
:1027D0000020FDF78EFF0020FDF78BFF0020FDF7A6
:1027E0007FFFAA20FDF785FFCF20FDF779FF0020AE
:1027F000FDF77FFF0020FDF77CFF0020FDF779FF4C
:102800000020FDF776FF0020FDF773FF0020FDF7A5
:1028100070FF0020FDF76DFF0020FDF76AFF00202C
:10282000FDF767FF0020FDF764FF0020FDF761FF63
:102830000020FDF75EFF0020FDF75BFF0020FDF7A5
:1028400058FF0020FDF755FF0020FDF752FF002044
:10285000FDF74FFFF020FDF743FF0020FDF749FF94
:102860005020FDF746FF0020FDF743FF0020FDF755
:1028700040FF0020FDF73DFFF320FDF731FF002072
:10288000FDF737FFF920FDF72BFF0620FDF731FF9D
:102890001020FDF72EFF2920FDF72BFF0020FDF76C
:1028A00028FF3A20FDF71CFF5520FDF722FF1120DD
:1028B000FDF716FF642002F081FD2920FDF710FFCF
:1028C0003520FDF70DFF0020FDF713FF5120FDF728
:1028D00007FFFF20FDF70DFF5320FDF701FF2C2020
:1028E000FDF707FF5520FDF7FBFE8220FDF701FFF6
:1028F0002C20FDF7F5FE02F028B8FE48808845F24E
:10290000105188427ED155214FF47040FDF703FFEE
:10291000AA214FF20100FDF7FEFE52214FF2020004
:10292000FDF7F9FE08214FF20300FDF7F4FE012147
:102930004FF20400FDF7EFFE0D214FF43040FDF79C
:10294000EAFE0D214BF20100FDF7E5FE0D214BF2F1
:102950000200FDF7E0FE34214FF43640FDF7DBFEC8
:1029600034214BF20160FDF7D6FE34214BF20260B8
:10297000FDF7D1FE0D214FF43140FDF7CCFE0D21C6
:102980004BF20110FDF7C7FE0D214BF20210FDF7CF
:10299000C2FE34214FF43740FDF7BDFE34214BF227
:1029A0000170FDF7B8FE34214BF20270FDF7B3FE63
:1029B00000214FF43240FDF7AEFE00214BF2012022
:1029C000FDF7A9FE00214BF20220FDF7A4FE242111
:1029D0004FF43840FDF79FFE24214BF60100FDF730
:1029E0009AFE24214BF60200FDF795FE01214FF4DB
:1029F0003F40FDF790FE0F214FF43340FDF78BFE73
:102A00000F2100E0FEE34BF20130FDF784FE0F21C1
:102A10004BF20230FDF77FFE34214FF43940FDF7D1
:102A20007AFE34214BF60110FDF775FE34214BF68A
:102A30000210FDF770FE08214FF43540FDF76BFEE4
:102A400008214BF20150FDF766FE08214BF20250BF
:102A5000FDF761FE03214FF44240FDF75CFE2421A7
:102A60004FF43A40FDF757FE24214BF60120FDF7C5
:102A700052FE24214BF60220FDF74DFE00214FF4BB
:102A80003C40FDF748FE78214BF60140FDF743FE40
:102A900000214BF60240FDF73EFE00214FF43D4081
:102AA000FDF739FE78214BF60150FDF734FE002189
:102AB0004BF60250FDF72FFE00214FF43E40FDF78C
:102AC0002AFE64214BF60160FDF725FE00214FF43C
:102AD0005140FDF720FE33214DF20110FDF71BFEA2
:102AE00000214DF20210FDF716FE34214DF20310C5
:102AF000FDF711FE00214DF20410FDF70CFE3A2106
:102B00004DF20510FDF707FE00214DF20610FDF70E
:102B100002FE4A214DF20710FDF7FDFD00214DF2A6
:102B20000810FDF7F8FD5C214DF20910FDF7F3FDEB
:102B300000214DF20A10FDF7EEFD81214DF20B1040
:102B4000FDF7E9FD00214DF20C10FDF7E4FDA62193
:102B50004DF20D10FDF7DFFD00214DF20E10FDF7D7
:102B6000DAFDE5214DF20F10FDF7D5FD01214DF203
:102B70001010FDF7D0FD13214DF21110FDF7CBFD24
:102B800001214DF21210FDF7C6FD54214DF2131034
:102B9000FDF7C1FD01214DF21410FDF7BCFD8221AE
:102BA0004DF21510FDF7B7FD01214DF21610FDF79E
:102BB000B2FDCA214DF21710FDF7ADFD02214DF215
:102BC0001810FDF7A8FD00214DF21910FDF7A3FD27
:102BD00002214DF21A10FDF79EFD01214DF21B104E
:102BE000FDF799FD02214DF21C10FDF794FD3421F3
:102BF0004DF21D10FDF78FFD02214DF21E10FDF765
:102C00008AFD67214DF21F10FDF785FD02214DF26F
:102C10002010FDF780FD84214DF22110FDF77BFD92
:102C200002214DF22210FDF776FDA4214DF2231072
:102C3000FDF771FD02214DF22410FDF76CFDB72167
:102C40004DF22510FDF767FD02214DF22610FDF72C
:102C500062FDCF214DF22710FDF75DFD02214DF2FF
:102C60002810FDF758FDDE214DF22910FDF753FD28
:102C700002214DF22A10FDF74EFDF2214DF22B10EC
:102C8000FDF749FD02214DF22C10FDF744FDFE2118
:102C90004DF22D10FDF73FFD03214DF22E10FDF7F3
:102CA0003AFD10214DF22F10FDF735FD03214DF2B5
:102CB0003010FDF730FD33214DF23110FDF72BFDC3
:102CC00003214DF23210FDF726FD6D214DF2331038
:102CD000FDF721FD00214FF45240FDF71CFD33218B
:102CE0004DF20120FDF717FD00214DF20220FDF706
:102CF00012FD01E03800002034214DF20320FDF7E1
:102D00000AFD00214DF20420FDF705FD3A214DF2A8
:102D10000520FDF700FD00214DF20620FDF7FBFC2C
:102D20004A214DF20720FDF7F6FC00214DF2082064
:102D3000FDF7F1FC5C214DF20920FDF7ECFC0021D0
:102D40004DF20A20FDF7E7FC81214DF20B20FDF743
:102D5000E2FC00214DF20C20FDF7DDFCA6214DF236
:102D60000D20FDF7D8FC00214DF20E20FDF7D3FC1D
:102D7000E5214DF20F20FDF7CEFC01214DF2102090
:102D8000FDF7C9FC13214DF21120FDF7C4FC012110
:102D90004DF21220FDF7BFFC54214DF21320FDF738
:102DA000BAFC01214DF21420FDF7B5FC82214DF251
:102DB0001520FDF7B0FC01214DF21620FDF7ABFC0C
:102DC000CA214DF21720FDF7A6FC02214DF2182072
:102DD000FDF7A1FC00214DF21920FDF79CFC02211A
:102DE0004DF21A20FDF797FC01214DF21B20FDF753
:102DF00092FC02214DF21C20FDF78DFC34214DF296
:102E00001D20FDF788FC02214DF21E20FDF783FCFA
:102E100067214DF21F20FDF77EFC02214DF220209C
:102E2000FDF779FC84214DF22120FDF774FC02218D
:102E30004DF22220FDF76FFCA4214DF22320FDF777
:102E40006AFC02214DF22420FDF765FCB7214DF20A
:102E50002520FDF760FC02214DF22620FDF75BFCEA
:102E6000CF214DF22720FDF756FC02214DF22820FC
:102E7000FDF751FCDE214DF22920FDF74CFC02212B
:102E80004DF22A20FDF747FCF2214DF22B20FDF7F1
:102E900042FC02214DF22C20FDF73DFCFE214DF2BB
:102EA0002D20FDF738FC03214DF22E20FDF733FCD9
:102EB00010214DF22F20FDF72EFC03214DF2302082
:102EC000FDF729FC33214DF23120FDF724FC0321CD
:102ED0004DF23220FDF71FFC6D214DF23320FDF73E
:102EE0001AFC00214FF45340FDF715FC33214DF23D
:102EF0000130FDF710FC00214DF20230FDF70BFC14
:102F000034214DF20330FDF706FC00214DF2043070
:102F1000FDF701FC3A214DF20530FDF7FCFB0021E5
:102F20004DF20630FDF7F7FB4A214DF20730FDF771
:102F3000F2FB00214DF20830FDF7EDFB5C214DF274
:102F40000930FDF7E8FB00214DF20A30FDF7E3FB05
:102F500081214DF20B30FDF7DEFB00214DF20C30EC
:102F6000FDF7D9FBA6214DF20D30FDF7D4FB002172
:102F70004DF20E30FDF7CFFBE5214DF20F30FDF79E
:102F8000CAFB01214DF21030FDF7C5FB13214DF2B4
:102F90001130FDF7C0FB01214DF21230FDF7BBFBF4
:102FA00054214DF21330FDF7B6FB01214DF21430E0
:102FB000FDF7B1FB82214DF21530FDF7ACFB01218D
:102FC0004DF21630FDF7A7FBCA214DF21730FDF781
:102FD000A2FB02214DF21830FDF79DFB00214DF2BE
:102FE0001930FDF798FB02214DF21A30FDF793FBE3
:102FF00001214DF21B30FDF78EFB02214DF21C30FA
:10300000FDF789FB34214DF21D30FDF784FB0221D1
:103010004DF21E30FDF77FFB67214DF21F30FDF7AB
:103020007AFB02214DF22030FDF775FB84214DF231
:103030002130FDF770FB02214DF22230FDF76BFBD2
:10304000A4214DF22330FDF766FB02214DF224301E
:10305000FDF761FBB7214DF22530FDF75CFB022146
:103060004DF22630FDF757FBCF214DF22730FDF70B
:1030700052FB02214DF22830FDF74DFBDE214DF2CF
:103080002930FDF748FB02214DF22A30FDF743FBC2
:10309000F2214DF22B30FDF73EFB02214DF22C3098
:1030A000FDF739FBFE214DF22D30FDF734FB0321F6
:1030B0004DF22E30FDF72FFB10214DF22F30FDF792
:1030C0002AFB03214DF23030FDF725FB33214DF271
:1030D0003130FDF720FB03214DF23230FDF71BFBB1
:1030E0006D214DF23330FDF716FB00214FF45440B3
:1030F000FDF711FB33214DF20140FDF70CFB0021E0
:103100004DF20240FDF707FB34214DF20340FDF77D
:1031100002FB00214DF20440FDF7FDFA3A214DF289
:103120000540FDF7F8FA00214DF20640FDF7F3FAED
:103130004A214DF20740FDF7EEFA00214DF208401A
:10314000FDF7E9FA5C214DF20940FDF7E4FA0021B0
:103150004DF20A40FDF7DFFA81214DF20B40FDF7F9
:10316000DAFA00214DF20C40FDF7D5FAA6214DF216
:103170000D40FDF7D0FA00214DF20E40FDF7CBFADD
:10318000E5214DF20F40FDF7C6FA01214DF2104046
:10319000FDF7C1FA13214DF21140FDF7BCFA0121F0
:1031A0004DF21240FDF7B7FA54214DF21340FDF7EE
:1031B000B2FA01214DF21440FDF7ADFA82214DF231
:1031C0001540FDF7A8FA01214DF21640FDF7A3FACC
:1031D000CA214DF21740FDF79EFA02214DF2184028
:1031E000FDF799FA00214DF21940FDF794FA0221FA
:1031F0004DF21A40FDF78FFA01214DF21B40FDF709
:103200008AFA00E004E302214DF21C40FDF783FA44
:1032100034214DF21D40FDF77EFA02214DF21E4091
:10322000FDF779FA67214DF21F40FDF774FA02218C
:103230004DF22040FDF76FFA84214DF22140FDF759
:103240006AFA02214DF22240FDF765FAA4214DF2FF
:103250002340FDF760FA02214DF22440FDF75BFAAE
:10326000B7214DF22540FDF756FA02214DF22640D6
:10327000FDF751FACF214DF22740FDF74CFA02211C
:103280004DF22840FDF747FADE214DF22940FDF7C7
:1032900042FA02214DF22A40FDF73DFAF2214DF2A9
:1032A0002B40FDF738FA02214DF22C40FDF733FA9E
:1032B000FE214DF22D40FDF72EFA03214DF22E4056
:1032C000FDF729FA10214DF22F40FDF724FA0321D2
:1032D0004DF23040FDF71FFA33214DF23140FDF73A
:1032E0001AFA03214DF23240FDF715FA6D214DF225
:1032F0003340FDF710FA00214FF45540FDF70BFA6B
:1033000033214DF20150FDF706FA00214DF2025033
:10331000FDF701FA34214DF20350FDF7FCF90021CD
:103320004DF20450FDF7F7F93A214DF20550FDF743
:10333000F2F900214DF20650FDF7EDF94A214DF268
:103340000750FDF7E8F900214DF20850FDF7E3F9C9
:103350005C214DF20950FDF7DEF900214DF20A50D3
:10336000FDF7D9F981214DF20B50FDF7D4F9002179
:103370004DF20C50FDF7CFF9A6214DF20D50FDF79F
:10338000CAF900214DF20E50FDF7C5F9E5214DF2C5
:103390000F50FDF7C0F901214DF21050FDF7BBF9B8
:1033A00013214DF21150FDF7B6F901214DF21250E3
:1033B000FDF7B1F954214DF21350FDF7ACF901219D
:1033C0004DF21450FDF7A7F982214DF21550FDF78B
:1033D000A2F901214DF21650FDF79DF9CA214DF2D7
:1033E0001750FDF798F902214DF21850FDF793F9A7
:1033F00000214DF21950FDF78EF902214DF21A50BD
:10340000FDF789F901214DF21B50FDF784F90221E6
:103410004DF21C50FDF77FF934214DF21D50FDF7A0
:103420007AF902214DF21E50FDF775F967214DF230
:103430001F50FDF770F902214DF22050FDF76BF996
:1034400084214DF22150FDF766F902214DF2225000
:10345000FDF761F9A4214DF22350FDF75CF902213B
:103460004DF22450FDF757F9B7214DF22550FDF7E5
:1034700052F902214DF22650FDF74DF9CF214DF2C0
:103480002750FDF748F902214DF22850FDF743F986
:10349000DE214DF22950FDF73EF902214DF22A506E
:1034A000FDF739F9F2214DF22B50FDF734F90221E5
:1034B0004DF22C50FDF72FF9FE214DF22D50FDF766
:1034C0002AF903214DF22E50FDF725F910214DF276
:1034D0002F50FDF720F903214DF23050FDF71BF975
:1034E00033214DF23150FDF716F903214DF23250E0
:1034F000FDF711F96D214DF23350FDF70CF9002164
:103500004FF45640FDF707F933214DF20160FDF706
:1035100002F900214DF20260FDF7FDF834214DF271
:103520000360FDF7F8F800214DF20460FDF7F3F8B1
:103530003A214DF20560FDF7EEF800214DF20660EC
:10354000FDF7E9F84A214DF20760FDF7E4F80021A4
:103550004DF20860FDF7DFF85C214DF20960FDF7E0
:10356000DAF800214DF20A60FDF7D5F881214DF21D
:103570000B60FDF7D0F800214DF20C60FDF7CBF8A1
:10358000A6214DF20D60FDF7C6F800214DF20E6048
:10359000FDF7C1F8E5214DF20F60FDF7BCF8012100
:1035A0004DF21060FDF7B7F813214DF21160FDF7F1
:1035B000B2F801214DF21260FDF7ADF854214DF241
:1035C0001360FDF7A8F801214DF21460FDF7A3F890
:1035D00082214DF21560FDF79EF801214DF2166033
:1035E000FDF799F8CA214DF21760FDF794F8022112
:1035F0004DF21860FDF78FF800214DF21960FDF7CC
:103600008AF802214DF21A60FDF785F801214DF28A
:103610001B60FDF780F802214DF21C60FDF77BF87E
:1036200034214DF21D60FDF776F802214DF21E6047
:10363000FDF771F867214DF21F60FDF76CF802216C
:103640004DF22060FDF767F884214DF22160FDF70F
:1036500062F802214DF22260FDF75DF8A4214DF2DF
:103660002360FDF758F802214DF22460FDF753F86E
:10367000B7214DF22560FDF74EF802214DF226608C
:10368000FDF749F8CF214DF22760FDF744F80221FC
:103690004DF22860FDF73FF8DE214DF22960FDF77D
:1036A0003AF802214DF22A60FDF735F8F2214DF289
:1036B0002B60FDF730F802214DF22C60FDF72BF85E
:1036C000FE214DF22D60FDF726F803214DF22E600C
:1036D000FDF721F810214DF22F60FDF71CF80321B2
:1036E0004DF23060FDF717F833214DF23160FDF7F0
:1036F00012F803214DF23260FDF70DF86D214DF205
:103700003360FDF708F855214FF47040FDF703F8DA
:10371000AA214FF20100FCF7FEFF52214FF20200F6
:10372000FCF7F9FF08214FF20300FCF7F4FF00213A
:103730004FF20400FCF7EFFFCC214FF43140FCF7CF
:10374000EAFF00214BF20110FCF7E5FF05214FF4E1
:103750003640FCF7E0FF70214FF43740FCF7DBFF09
:1037600070214BF20170FCF7D6FF01214FF4384075
:10377000FCF7D1FF03214BF60100FCF7CCFF03213E
:103780004BF60200FCF7C7FF03214BF60300FCF7E2
:10379000C2FF02214FF43C40FCF7BDFF00214BF675
:1037A0000140FCF7B8FF00214BF60240FCF7B3FFE5
:1037B000D0214FF44940FCF7AEFF02214CF6011036
:1037C000FCF7A9FF50214CF60210FCF7A4FF502192
:1037D0004CF60310FCF79FFF50214CF60410FCF749
:1037E0009AFF00214FF45450FCF795FF55214FF4F8
:1037F0006850FCF790FF4FF48850FCF771FF782079
:1038000001F094FD4FF42450FCF76AFF01F09DB8DD
:10381000FE48808849F2253188427DD147F6F00183
:10382000E520FCF778FF4FF480710120FCF773FF6F
:103830004FF4E0610220FCF76EFF41F230010320FB
:10384000FCF769FF00210420FCF765FF40F202212C
:103850000820FCF760FF00210920FCF75CFF002135
:103860000A20FCF758FF00210C20FCF754FF002130
:103870000D20FCF750FF00210F20FCF74CFF00212A
:103880001020FCF748FF07211120FCF744FF00211E
:103890001220FCF740FF00211320FCF73CFF002121
:1038A0000720FCF738FF41F290611020FCF733FF4E
:1038B00040F227211120FCF72EFF9D211220FCF75A
:1038C0002AFF4FF4C8511320FCF725FF252129209A
:1038D000FCF721FF0D212B20FCF71DFF07213020D5
:1038E000FCF719FF40F203313120FCF714FF0321EC
:1038F0003220FCF710FF40F206213520FCF70BFFC9
:1039000008213620FCF707FF40F206413720FCF77C
:1039100002FF4FF4417100E058E03820FCF7FBFE55
:1039200007213920FCF7F7FE40F202613C20FCF74A
:10393000F2FE08213D20FCF7EEFE00215020FCF7AE
:10394000EAFEEF215120FCF7E6FE00215220FCF7B1
:10395000E2FE40F23F115320FCF7DDFE4FF4274119
:103960006020FCF7D8FE01216120FCF7D4FE002185
:103970006A20FCF7D0FE00218020FCF7CCFE00215D
:103980008120FCF7C8FE00218220FCF7C4FE002144
:103990008320FCF7C0FE00218420FCF7BCFE002140
:1039A0008520FCF7B8FE10219020FCF7B4FE4FF400
:1039B000C0619220FCF7AFFE40F233110720FCF704
:1039C000AAFE22210020FCF7A6FE1FE78F48808870
:1039D00049F2283188427DD141F28F01EC20FCF779
:1039E0009AFE41F23421EF20FCF795FE4FF48071EE
:1039F0000120FCF790FE4FF4E0610220FCF78BFE03
:103A000041F230010320FCF786FE00210420FCF780
:103A100082FE40F202210820FCF77DFE00210920F1
:103A2000FCF779FE00210A20FCF775FE01210C202D
:103A3000FCF771FE00210D20FCF76DFE00210F2028
:103A4000FCF769FE00211020FCF765FE072111201C
:103A5000FCF761FE00211220FCF75DFE002113201F
:103A6000FCF759FE01210720FCF755FE322001F03A
:103A7000A5FC41F290411020FCF74DFE40F22721B9
:103A80001120FCF748FE322001F098FC8A21122018
:103A9000FCF741FE322001F091FC4FF4D05113208D
:103AA000FCF739FE06212920FCF735FE0D212B20DD
:103AB000FCF731FE322001F081FC00212020FCF7D0
:103AC0002AFE00212120FCF726FE322001F076FCA0
:103AD000002100E075E03020FCF71DFE40F204619B
:103AE0003120FCF718FE40F205313220FCF713FEBE
:103AF00000213520FCF70FFE40F609413620FCF787
:103B00000AFE4FF401713720FCF705FE40F2013147
:103B10003820FCF700FE40F207713920FCF7FBFD6E
:103B200000213C20FCF7F7FD40F60A213D20FCF780
:103B3000F2FD322001F042FC00215020FCF7EBFDA9
:103B4000EF215120FCF7E7FD00215220FCF7E3FDB7
:103B500040F23F115320FCF7DEFD4FF42741602077
:103B6000FCF7D9FD01216120FCF7D5FD00216A2079
:103B7000FCF7D1FD00218020FCF7CDFD0021812044
:103B8000FCF7C9FD00218220FCF7C5FD0021832040
:103B9000FCF7C1FD00218420FCF7BDFD002185203C
:103BA000FCF7B9FD10219020FCF7B5FD4FF4C06182
:103BB0009220FCF7B0FD40F233110720FCF7ABFD7B
:103BC00024E61248808849F2203188427ED10021C3
:103BD0000846FCF7A0FD4FF480710120FCF79BFD27
:103BE0004FF4E0610220FCF796FD41F23001032022
:103BF000FCF791FD00210420FCF78DFD40F202212D
:103C00000820FCF788FD0021092001E03800002091
:103C1000FCF781FD00210A20FCF77DFD01210C202D
:103C2000FCF779FD00210D20FCF775FD00210F2028
:103C3000FCF771FD322001F0C1FB40F201110720B9
:103C4000FCF769FD322001F0B9FB4FF486511020DA
:103C5000FCF761FD07211120FCF75DFD4FF4887131
:103C60001220FCF758FD4FF430611320FCF753FD90
:103C700000212920FCF74FFD44F210012B20FCF716
:103C80004AFD00215020FCF746FDEF215120FCF7B2
:103C900042FD00215220FCF73EFD40F23F1153202F
:103CA000FCF739FD4FF41C516020FCF734FD012175
:103CB0006120FCF730FD00216A20FCF72CFD00217B
:103CC0008020FCF728FD0021812000E030E0FCF797
:103CD00022FD00218220FCF71EFD00218320FCF73D
:103CE0001AFD00218420FCF716FD00218520FCF739
:103CF00012FD10219020FCF70EFD00219220FCF710
:103D00000AFD01219320FCF706FD4FF488719520F0
:103D1000FCF701FD00219720FCF7FDFC0021982015
:103D2000FCF7F9FC40F273110720FCF7F4FC6DE599
:103D3000FE48808849F2313188427DD141F2140138
:103D4000E720FCF7E8FC4FF480710120FCF7E3FC6E
:103D50004FF400710220FCF7DEFC41F23801032031
:103D6000FCF7D9FC40F202210820FCF7D4FC00212A
:103D70000920FCF7D0FC00210A20FCF7CCFC002134
:103D80000C20FCF7C8FC00210D20FCF7C4FC00212E
:103D90000F20FCF7C0FC00211020FCF7BCFC072121
:103DA0001120FCF7B8FC00211220FCF7B4FC002124
:103DB0001320FCF7B0FCC82001F000FB41F2906139
:103DC0001020FCF7A8FC40F227211120FCF7A3FCEF
:103DD000322001F0F3FA0C211220FCF79CFC322077
:103DE00001F0ECFA4FF400611320FCF794FC112170
:103DF0002920FCF790FC0B212B20FCF78CFC3220B7
:103E000001F0DCFA00212020FCF785FC40F23F1194
:103E10002120FCF780FC00213020FCF77CFC4FF4D3
:103E200083713120FCF777FC00213220FCF773FC12
:103E30004FF40171352000E064E0FCF76CFC41F2C6
:103E40000A613620FCF767FC40F207713720FCF767
:103E500062FC4FF483713820FCF75DFC40F207717F
:103E60003920FCF758FC40F202413C20FCF753FC9F
:103E700040F60F413D20FCF74EFC00215020FCF79E
:103E80004AFCEF215120FCF746FC00215220FCF7B0
:103E900042FC40F23F115320FCF73DFC4FF41C5113
:103EA0006020FCF738FC01216120FCF734FC002184
:103EB0006A20FCF730FC00218020FCF72CFC00215C
:103EC0008120FCF728FC00218220FCF724FC002143
:103ED0008320FCF720FC00218420FCF71CFC00213F
:103EE0008520FCF718FC10219020FCF714FC4FF4FF
:103EF000C0619220FCF70FFC40F233110720FCF761
:103F00000AFC83E48948808845F2084188427DD1D3
:103F10004FF480710120FCF7FEFB4FF4E0610220BA
:103F2000FCF7F9FB41F230010320FCF7F4FB002120
:103F30000420FCF7F0FB40F207210820FCF7EBFB24
:103F400000210920FCF7E7FB00210A20FCF7E3FB36
:103F500000210C20FCF7DFFB00210D20FCF7DBFB30
:103F600000210F20FCF7D7FB142001F027FA41F2C3
:103F7000B0611020FCF7CFFB01211120FCF7CBFB37
:103F800001211720FCF7C7FB4FF49C711220FCF7AE
:103F9000C2FB4FF400611320FCF7BDFB092129206F
:103FA000FCF7B9FB09212A20FCF7B5FB0021A4206E
:103FB000FCF7B1FB00215020FCF7ADFBEF215120B5
:103FC000FCF7A9FB00215220FCF7A5FB40F23F11B2
:103FD0005320FCF7A0FB4FF41C516020FCF79BFB27
:103FE00001216120FCF797FB00216A20FCF793FB7D
:103FF00000218020FCF78FFB00218120FCF78BFB48
:1040000000218220FCF787FB002100E024E08320D0
:10401000FCF781FB00218420FCF77DFB002185203B
:10402000FCF779FB13219020FCF775FB002192200F
:10403000FCF771FB03219320FCF76DFB4FF48871B3
:104040009520FCF768FB40F273110720FCF763FB37
:10405000322001F0B3F9B8E43448808841F20551C8
:1040600088427DD100210720FCF755FB322001F06A
:10407000A5F94FF48E711220FCF74DFB0121A4200D
:10408000FCF749FB0F210820FCF745FB08210A201B
:10409000FCF741FB08210D20FCF73DFB40F20771C6
:1040A0003020FCF738FB07213120FCF734FB40F2CD
:1040B00003613220FCF72FFB4FF4E0613320FCF763
:1040C0002AFB40F202213420FCF725FB0221352097
:1040D000FCF721FB41F60F713620FCF71CFB40F288
:1040E00007713720FCF717FB00213820FCF713FB82
:1040F00000213920FCF70FFB40F207713A20FCF752
:104100000AFB00213B20FCF706FB07213C20FCF7C3
:1041100002FB00213D20FCF7FEFA322001F04EF9AF
:1041200001210720FCF7F7FA012101E03800002007
:104130001720FCF7F0FA322001F040F94FF4BD519E
:104140001020FCF7E8FA40F217211120FCF7E3FAFF
:104150004FF48F711220FCF7DEFA4FF4706100E02B
:1041600098E01320FCF7D7FA00212A20FCF7D3FAB5
:104170000A212920FCF7CFFA4FF49F711220FCF797
:10418000CAFA00215020FCF7C6FAEF215120FCF7B3
:10419000C2FA00215220FCF7BEFA40F23F11532030
:1041A000FCF7B9FA4FF41C516020FCF7B4FA012176
:1041B0006120FCF7B0FA00216A20FCF7ACFA00217C
:1041C0008020FCF7A8FA00218120FCF7A4FA002146
:1041D0008220FCF7A0FA00218320FCF79CFA002142
:1041E0008420FCF798FA00218520FCF794FA13212B
:1041F0009020FCF790FA4FF440719220FCF78BFA74
:1042000005219320FCF787FA00219520FCF783FA1B
:1042100000219720FCF77FFA00219820FCF77BFA19
:104220004FF480710120FCF776FA4FF4E061022030
:10423000FCF771FA41F238010320FCF76CFA002117
:104240000420FCF768FA00210C20FCF764FA002136
:104250000F20FCF760FA00212020FCF75CFA002117
:104260002120FCF758FA21210720FCF754FA1420EA
:1042700001F0A4F861210720FCF74DFA142001F0A9
:104280009DF840F273110720FCF745FA142001F065
:1042900095F85AE3FE4880884BF2055188427CD15C
:1042A00000210846FCF737FA00210846FCF733FAEC
:1042B00000210846FCF72FFA00210846FCF72BFAEC
:1042C0000121A420FCF727FA142001F077F84FF41D
:1042D0001C516020FCF71FFA40F202210820FCF775
:1042E0001AFA4FF405713020FCF715FA43F21571F4
:1042F0003120FCF710FA40F204613220FCF70BFA8F
:1043000040F616613320FCF706FA42F21121342000
:10431000FCF701FA4FF4A8513520FCF7FCF948F2FC
:1043200007513620FCF7F7F941F207413720FCF737
:10433000F2F941F203413820FCF7EDF92021392050
:10434000FCF7E9F91A219020FCF7E5F9002110208B
:10435000FCF7E1F907211120FCF7DDF9002112201B
:10436000FCF7D9F900211320FCF7D5F9142001F04E
:1043700025F84FF4E6611020FCF7CDF940F2371133
:104380001120FCF7C8F9142001F018F84FF4DC7183
:104390001220FCF7C0F9142000E085E001F00EF8CF
:1043A0004FF470611320FCF7B6F980212A20FCF746
:1043B000B2F948212920FCF7AEF9142000F0FEFFE5
:1043C0004FF480710120FCF7A6F94FF4E061022060
:1043D000FCF7A1F941F238010320FCF79CF940F207
:1043E00002210820FCF797F900210A20FCF793F935
:1043F00000210C20FCF78FF900210D20FCF78BF930
:1044000030210E20FCF787F900215020FCF783F9BA
:10441000EF215120FCF77FF900215220FCF77BF9B6
:1044200040F23F115320FCF776F94FF41C51602005
:10443000FCF771F901216120FCF76DF900216A2078
:10444000FCF769F911219020FCF765F94FF4C06180
:104450009220FCF760F940F202419320FCF75BF9EF
:1044600002219420FCF757F9142000F0A7FF012146
:104470000720FCF750F9142000F0A0FF612107206D
:10448000FCF749F940F273110720FCF744F90021C9
:104490002020FCF740F900212120FCF73CF92221E3
:1044A0000020FCF738F950E2794880884CF2055139
:1044B00088427CD100210846FCF72DF900210846EE
:1044C000FCF729F9142000F079FF00210846FCF7D9
:1044D00022F900210846FCF71EF900210846FCF7E6
:1044E0001AF900210846FCF716F90121A420FCF76F
:1044F00012F9142000F062FF4FF41C516020FCF709
:104500000AF940F606010820FCF705F940F20371AC
:104510003020FCF700F901213120FCF7FCF80421E0
:104520003220FCF7F8F84FF481713320FCF7F3F8F0
:104530004FF440713420FCF7EEF840F203113520BF
:10454000FCF7E9F81F213620FCF7E5F840F203718B
:104550003720FCF7E0F801213820FCF7DCF80421D3
:104560003920FCF7D8F815219020FCF7D4F84FF447
:1045700082611020FCF7CFF840F247211120FCF7B0
:10458000CAF84FF4DE711220FCF7C5F84FF46061F1
:104590001320FCF7C0F8782000F010FF4FF4807172
:1045A0000120FCF7B8F84FF40071022000E052E05F
:1045B000FCF7B1F841F230010320FCF7ACF8082118
:1045C0000A20FCF7A8F800210C20FCF7A4F8202111
:1045D0000E20FCF7A0F800210F20FCF79CF800212A
:1045E0002020FCF798F800212120FCF794F83D21C9
:1045F0002A20FCF790F8142000F0E0FE2D2129205D
:10460000FCF789F800215020FCF785F84DF2EF0106
:104610005120FCF780F800215220FCF77CF840F292
:104620003F115320FCF777F800216120FCF773F865
:1046300000216A20FCF76FF84FF440719220FCF7DC
:104640006AF805219320FCF766F84FF48071072083
:10465000FCF761F879E10E48808844F231518842D4
:104660007ED101210020FCF756F80A2000F0A6FEBA
:1046700041F228611020FCF74EF80E211220FCF7C1
:104680004AF840F639211320FCF745F80A2001E0EA
:104690003800002000F092FE40211120FCF73BF88A
:1046A00050211520FCF737F80A2000F087FE1E2164
:1046B0001220FCF730F80A2000F080FE4FF4B151D0
:1046C0001020FCF728F842F639211320FCF723F8D4
:1046D0000A2000F073FE4FF480710120FCF71BF8F4
:1046E0004FF440710220FCF716F841F23801032024
:1046F000FCF711F840F202210820FCF70CF8082121
:104700000A20FCF708F800213020FCF704F840F2FA
:1047100002413120FBF7FFFF4FF483713220FBF79A
:10472000FAFF40F203513320FBF7F5FF4FF482719B
:104730003420FBF7F0FF40F201313520FBF7EBFFAF
:1047400040F207713620FBF7E6FF40F205313720D3
:10475000FBF7E1FF4FF402713820FBF7DCFF00E0CC
:104760003EE040F60B713920FBF7D5FF02214120D6
:10477000FBF7D1FF4FF41C516020FBF7CCFF012168
:104780006120FBF7C8FF4FF404719020FBF7C3FFD3
:104790004FF485719220FBF7BEFF04219320FBF7B5
:1047A000BAFF4FF48071A020FBF7B5FF012107206D
:1047B000FBF7B1FF21210720FBF7ADFF23210720E5
:1047C000FBF7A9FF33210720FBF7A5FF40F23311C8
:1047D0000720FBF7A0FF0021A020FBF79CFFB4E01F
:1047E000FE48808844F235518842F8D130211520A6
:1047F000FBF791FF10219A20FBF78DFF202111205C
:10480000FBF789FF43F228411020FBF784FF0221C8
:104810001220FBF780FF41F238011320FBF77BFFEA
:10482000282000F0CBFD12210846FBF774FF28205A
:1048300000F0C4FD43F220411020FBF76CFF43F26F
:1048400038011320FBF767FF462000F0B7FD002179
:104850003020FBF760FF40F202413120FBF75BFFA5
:1048600040F207313220FBF756FF4FF441713320FD
:10487000FBF751FF04213420FBF74DFF40F20141CB
:104880003520FBF748FF40F207713620FBF743FF66
:1048900040F205313720FBF73EFF4FF4C26138206C
:1048A000FBF739FF4FF4C2613920FBF734FF4FF4B7
:1048B00080710120FBF72FFF4FF440710220FBF7BE
:1048C0002AFF41F230010320FBF725FF40F60801E3
:1048D0000820FBF720FF08210A20FBF71CFF4FF4FC
:1048E0001C516020FBF717FF01216120FBF713FF2C
:1048F0004FF49F719020FBF70EFF4FF480719220D0
:10490000FBF709FF4FF480719320FBF704FF4FF48E
:104910004051A020FBF7FFFE1021A320FBF7FBFE78
:1049200001210720FBF7F7FE21210720FBF7F3FE0B
:1049300023210720FBF7EFFE33210720FBF7EBFED7
:1049400040F233110720FBF7E6FE0020FCF78EFA59
:104950000120A34908604FF6FF70FCF704FC21B06A
:1049600000BD2DE9FC4F05460E4617469846DDF87A
:104970002C90002001909948808846F604018842D6
:1049800029D196488079012825D1AB4635469348F0
:104990000088C01B401E86B2474690480088A0EBA6
:1049A0000B00401E1FFA80F800208C4988712A20D5
:1049B00048812B20888143463A4631462846CDF827
:1049C0000090FFF7CEFF0120844988712B20488199
:1049D0002A2088811DE0781B401C80B2019034465B
:1049E00015E021462846FBF7CAFEFBF7ABFE4FF069
:1049F000000A07E04FF0D840A0F880900AF10100CB
:104A00001FFA80FA01988245F4DB601C84B24445A9
:104A1000E7DDBDE8FC8F2DE9F84F07460D469046CF
:104A20009946DDF828B0A8EB0700401C1FFA80FA71
:104A3000A9EB0500401C80B20090002414E0281966
:104A400081B23846FBF79BFEFBF77CFE002607E0B1
:104A500004FB0A603BF8100062490880701C86B2B3
:104A60005645F5DB601C84B200988442E7DBBDE864
:104A7000F88F2DE9FF4F84B081468A4600200390CD
:104A800002900698A0EB09050798A0EB0A06CDF85E
:104A90000490CDF800A0002D01DD012705E00DB93F
:104AA000002702E04FF0FF376D42002E02DD4FF08D
:104AB000010806E016B94FF0000802E04FF0FF3899
:104AC0007642B54201DD2C4600E034464FF0000B43
:104AD00021E0009A91B2019A90B2FCF72CF9039868
:104AE000284403900298304402900398A04205DDC8
:104AF0000398001B03900198384401900298A0424B
:104B000005DD0298001B02900098404400900BF1D4
:104B100001001FFA80FB601C8345DADD08B0BDE8A8
:104B2000F08FF0B504460D4616461F462B4632461A
:104B300029462046FFF79DFF3B4622462946204650
:104B4000FFF797FF3B46324639462046FFF791FF75
:104B50003B46324629463046FFF78BFFF0BD2DE934
:104B6000F04306460F469046002445460320A0EB3E
:104B7000480943E07A1B91B2321990B2FCF7DBF896
:104B80003A1B91B2721990B2FCF7D5F83A1991B26A
:104B9000721990B2FCF7CFF87A1991B2321990B22B
:104BA000FCF7C9F87A1991B2321B90B2FCF7C3F83E
:104BB0003A1991B2721B90B2FCF7BDF87A1B91B210
:104BC000321B90B2FCF7B7F83A1B91B2721B90B24D
:104BD000FCF7B1F8641CB9F1000F05E038000020C3
:104BE000BC8240428000006C03DAA000801D81443A
:104BF00004E0601B80000A3081446D1EAC42B9DDC8
:104C0000BDE8F0832DE9F84F80460E4617461C4656
:104C1000B3462046E31704EB5373DB1021464FEAFB
:104C2000E47C04EB5C7C4FEAEC0CA4EBCC0CBCF118
:104C3000000F02D04FF0010C01E04FF0000C634474
:104C4000224604EBD27C4FEA6C0C03FB0CF3DBB284
:104C50000093A7F12000C7B2002556E00C2C07D125
:104C600007EB47009F4901EB800010F8059013E027
:104C7000102C05D19C4800EB071010F805900BE0B4
:104C8000182C07D107EBC700984901EB800010F8FA
:104C9000059001E0BDE8F88F4FF0000A2FE009F021
:104CA000800030B19248028831464046FCF751F806
:104CB00007E00A9828B98F48028831464046FCF739
:104CC00048F84FEA49604FEA1069701C86B28A487A
:104CD0004088B04200DCDDE7A6EB0B00A0420AD121
:104CE0005E4608F101001FFA80F8834800884045BD
:104CF00000DCCFE706E00AF1010000F0FF0ABAF19C
:104D0000080FCCDB00BF681CC5B200988542A5DB4C
:104D100000BFBFE710B50246012000E050430B1E64
:104D2000A1F10104E1B2F9D110BD2DE9FF4F81B02D
:104D3000074691461E460E9D4FF0000A002439E0BA
:104D4000301B401EC1B20A20FFF7E4FFB9FBF0F0B0
:104D50000A21B0FBF1F201FB1208BAF1000F16D1E3
:104D6000701EA04213DDB8F1000F0ED10020AB463B
:104D700005EBDB71491001FB0471009088B22B46F2
:104D800020220299FFF73EFF12E04FF0010A0020B7
:104D9000AB4605EBDB71491001FB0471009088B252
:104DA00008F13001CAB22B460299FFF72BFF00BF72
:104DB000601CC4B2B442C3DB05B0BDE8F08F2DE97E
:104DC000FF4F82B0064692461F46DDE90F4800209D
:104DD000019000254DE0781B401EC1B20A20FFF76C
:104DE00099FFBAFBF0F00A21B0FBF1F201FB1209C6
:104DF000019850BB781EA84227DDB9F1000F22D1DF
:104E000008F0800078B108F00100A34604EBDB71E4
:104E1000491001FB0561009088B2234630220399B6
:104E2000FFF7F0FE0EE008F00100A34604EBDB7193
:104E3000491001FB0561009088B2234620220399A6
:104E4000FFF7E0FE13E00120019008F00100A34607
:104E500004EBDB71491001FB0561009088B209F198
:104E60003001CAB223460399FFF7CCFE00BF681C8D
:104E7000C5B2BD42AFDB06B0BDE8F08F2DE9F84703
:104E800004460D4690469946DDE9096704F0FF0A9D
:104E900008EB04001FFA80F809EB05001FFA80F9FF
:104EA00016E0444502DB5446A81985B24D4500DBA7
:104EB00014E0002000903A78334629462046FFF758
:104EC000A1FE304606EBD07104EB61018CB27F1C71
:104ED00038787E2802DC38782028E2DA00BFBDE886
:104EE000F8870000DE6B0008527000084276000868
:104EF0001400002016000020380000201CB50121FD
:104F0000112001F0BDF91C20009000208DF8040054
:104F100003208DF8050001208DF80700694635480B
:104F200000F02CFC0120009002208DF8070069465B
:104F3000314800F023FC1CBD10B5044614B101201B
:104F40002E4908702D480078002837D010212948B4
:104F500000F076FC78B10821264800F071FC50B1D1
:104F60000421244800F06CFC28B10121224800F003
:104F700067FC012822D10A2000F020FA00201F49F6
:104F8000087010211B4800F05BFC08B9012010BD1F
:104F90000821184800F054FC08B90220F7E7042162
:104FA000144800F04DFC08B90320F0E70121124835
:104FB00000F046FC01281BD10420E8E710210D4831
:104FC00000F03EFC012813D108210A4800F038FC0B
:104FD00001280DD10421074800F032FC012807D137
:104FE0000121054800F02CFC10B90120034908708C
:104FF0000020CCE700100240000002401800002012
:1050000000B599B001217A2001F03AF90121084652
:1050100001F06EF94FF40040179001208DF8600008
:1050200000208DF8620002208DF8610001208DF8CB
:10503000630017A9AB4800F0A1FB4FF6337017903F
:1050400002208DF8600000208DF8620003208DF8AA
:10505000610001208DF8630017A9A34800F08EFBC2
:105060004FF68370179002208DF8600000208DF8B5
:10507000620003208DF8610001208DF8630017A9FC
:105080009A4800F07BFB4FF23F00179002208DF80A
:10509000600000208DF8620003208DF8610001207F
:1050A0008DF8630017A9924800F068FB40F23F407A
:1050B000179002208DF8600000208DF86200032018
:1050C0008DF8610001208DF8630017A9894800F070
:1050D00055FB0C220021844800F0DBFB0C2201214F
:1050E000814800F0D6FB0C2204217F4800F0D1FB60
:1050F0000C2205217C4800F0CCFB0C2208217A48C8
:1051000000F0C7FB0C220921774800F0C2FB0C22FB
:105110000A21754800F0BDFB0C220B21724800F0FB
:10512000B8FB0C221146704800F0B3FB0C220D2195
:105130006D4800F0AEFB0C220E216B4800F0A9FB7D
:105140000C220F21684800F0A4FB0C2200216748C4
:1051500000F09FFB0C220121644800F09AFB0C2216
:105160000721624800F095FB0C2208215F4800F0FF
:1051700090FB0C2209215D4800F08BFB0C220A21D8
:105180005A4800F086FB0C220B21584800F081FBA6
:105190000C221146554800F07CFB0C220D2153488F
:1051A00000F077FB0C220E21504800F072FB0C221D
:1051B0000F214E4800F06DFB0C2200214C4800F0FE
:1051C00068FB0C2201214A4800F063FB0C220221FB
:1051D000474800F05EFB0C220321454800F059FBD4
:1051E0000C220421424800F054FB0C2205214048C7
:1051F00000F04FFB0C2211463D4800F04AFB0C2208
:105200000D213B4800F045FB0C220E21384800F0F0
:1052100040FB0C220F21364800F03BFB0C22002102
:10522000344800F036FB0C220121324800F031FBFB
:105230000C2202212F4800F02CFB0C2203212D48C8
:1052400000F027FB0C2204212A4800F022FB0C224C
:105250000521284800F01DFB0C220A21254800F0FA
:1052600018FB002001900290082003900020049079
:1052700005900690079004200890002009900A905D
:1052800010200B9000200C900E900D900F9010901D
:105290004FF480501190002012901390149001A8A8
:1052A0001590169008A800F048FB0121042000F09A
:1052B000CFFB19B000BD10B506E004784FF0D04325
:1052C0005C54491C401C521E002AF6D110BD06E059
:1052D0004FF0D0435B5C00F8013B491C521E002A92
:1052E000F6D1704700040240000C0240001002405A
:1052F000001402400018024010B504466FF004008C
:1053000000F098F9E11704EB5171C1F3C701394A74
:1053100011701046007800EB4001C1EBC0104FF651
:10532000FF7101EAC0003449088010BD0146314ACE
:1053300012784A434FF0E0235A6100229A611A46DC
:10534000126942F001021A6100BF4FF0E0221069B9
:1053500000F001021AB100F48032002AF5D04FF0BB
:10536000E022126922F001024FF0E0231A610022CC
:105370009A6170470146204A12884A434FF0E02361
:105380005A6100229A611A46126942F001021A61BA
:1053900000BF4FF0E022106900F001021AB100F4E2
:1053A0008032002AF5D04FF0E022126922F001028B
:1053B0004FF0E0231A6100229A61704770B50446ED
:1053C0004FF4077094FBF0F0C6B24FF4077094FBF3
:1053D000F0F100FB114085B205E04FF40770FFF7D4
:1053E000C9FF701EC6B2002EF7D115B12846FFF7CF
:1053F000C1FF70BD1A0000201C000020014600BF44
:10540000704700BF4E4A128802F04002002AF9D0CD
:10541000C2B24B4B9A80704710B588B00446012148
:10542000084600F02DFF0121102000F083FF072225
:105430000921444800F02DFA07220A21414800F0D2
:1054400028FA4FF4C060069002208DF81C008DF8F9
:105450001D0000208DF81E0001208DF81F0006A9F8
:10546000384800F08BF902940020ADF80C00ADF83C
:105470000E00ADF81000ADF814000C20ADF81200CD
:1054800002A92F4801F0B7F801212D4801F03BF99E
:1054900040212B4801F01FFA012240F225512848F3
:1054A00001F0E7F925208DF8040003208DF80500B0
:1054B0008DF8060001208DF8070001A800F06DF8B6
:1054C00008B010BD10B540F225511D4801F00CFA8E
:1054D00010B31B4801F046F9C4B21B48008800F421
:1054E0000040C8B91848008800F4804060B10A2C18
:1054F00003D000201449088020E01348008840F4BD
:1055000000401149088019E00D2C06D10E48008892
:1055100040F480400C49088010E00B480088C0F33C
:105520000D000A490C5408480088401C06490880B0
:1055300008460088C72801DD0020088010BD000053
:10554000001001400000024024000020460000201E
:105550000948804709480047FEE7FEE7FEE7FEE707
:10556000FEE7FEE7FEE7FEE7FEE7FEE70448054943
:10557000054A064B704700006D05000889010008C8
:1055800070010020700700207003002070030020CD
:1055900032490143324A1160704770B5002100233F
:1055A0000F22C4781CB32E4C246804F4E064C4F5C4
:1055B000E064C4F30721C1F10404E3B20A41447872
:1055C0009C40E1B28478144021430C07210E254C05
:1055D00005786155047804F01F050124AC40057876
:1055E0006D11AD0005F1E025C5F8004109E0047832
:1055F00004F01F050124AC401B4D0678761145F8D8
:10560000264070BD194A0A400243154B1B1F1A6001
:10561000704739B1124A121D12680243104B1B1D0C
:105620001A6006E00E4A121D126882430C4B1B1DC5
:105630001A607047042808D14FF0E021096941F051
:1056400004014FF0E022116107E04FF0E021096909
:1056500021F004014FF0E022116170470000FA05CB
:105660000CED00E000E400E080E100E080FFFF1FBF
:1056700010B504469848844208D10121084600F03C
:105680006AFE0021012000F066FE76E09348844225
:1056900008D10121022000F05EFE0021022000F06E
:1056A0005AFE6AE08E48844208D10121042000F0AD
:1056B00052FE0021042000F04EFE5EE08948844244
:1056C00008D10121082000F046FE0021082000F04A
:1056D00042FE52E08448844208D10121102000F0AB
:1056E0003AFE0021102000F036FE46E07F4884425A
:1056F00008D10121202000F02EFE0021202000F002
:105700002AFE3AE07A48844208D10121402000F084
:1057100022FE0021402000F01EFE2EE0754884424B
:1057200008D10121802000F016FE0021802000F029
:1057300012FE22E07048844208D10121801500F059
:105740000AFE0021A01500F006FE16E06B48844218
:1057500008D10121401500F0FEFD0021601500F088
:10576000FAFD0AE06648844207D10121001500F0E5
:10577000F2FD0021201500F0EEFD10BDF0B50A4647
:1057800000210023002400BF3DE0012505FA01F3BC
:10579000156805EA03049C4234D105684F000326CE
:1057A000BE40B543056015794E00B54006683543E7
:1057B00005601579012D02D01579022D16D1856865
:1057C0004F000326BE40B543856055794E00B54075
:1057D000866835438560456801268E40B54345603F
:1057E000456896798E40B6B235434560C5684F002E
:1057F0000326BE40B543C560D5794E00B540C668A6
:105800003543C560491C1029BFD3F0BD4FF6FF7169
:1058100001600021017141718171C171704708B54A
:105820004FF480320092009A0A430092009AC261BB
:10583000C161009AC261C2690092C269009208BD4A
:105840000246002013690B400BB1012000E000204C
:1058500070470146086980B27047024600205369CC
:105860000B400BB1012000E0002070470146486961
:1058700080B2704701837047418370470AB101834A
:1058800000E0418370474161704742694A4042618C
:105890007047F0B5002300244D07ED0E02FA05F322
:1058A000CE1000F1200555F826504E07F70E0F26B2
:1058B000BE40B543CF1000F1200646F82750CE1069
:1058C00000F1200555F8265045EA0304CE1000F1FA
:1058D000200545F82640F0BD0000024000040240CB
:1058E00000080240000C0240001002400014024078
:1058F00000180240001C0240002002400024024028
:105900000028024030B943F2DB028100A1F1C0411E
:105910000A6005E043F2D2028100A1F1C0410A60B1
:105920006FF07042411C8900A1F1C0410A60810002
:10593000A1F1C041C1F804217047D0E9011211431F
:10594000C2681143026911434269114382691143DC
:10595000C2691143026A1143426A1143826A1143C8
:10596000C26A1143026B114302689200A2F1C04265
:105970001160816808290BD101688900A1F1C0413B
:10598000096841F0400201688900A1F1C0410A6044
:10599000416B0968426B526841EA0211426B92689E
:1059A00041EA0221426B928941EA0241426B128A2A
:1059B00041EA0251426B127D41EA0261426B9269F7
:1059C00011430268521C9200A2F1C0421160C16AE8
:1059D000B1F5804F1BD1816B0968826B526841EA37
:1059E0000211826B926841EA0221826B128A41EABB
:1059F0000251826B127D41EA0261826B926911430E
:105A000002689200A2F1C042C2F8041107E06FF0F0
:105A1000704201688900A1F1C041C1F804217047BA
:105A2000002101600221416000218160C1600161AB
:105A300041618161C16101624FF48051416249005D
:105A400081620021C1620163F8494163816370474B
:105A500051B18200A2F1C042126842F001038200FB
:105A6000A2F1C042136009E08200A2F1C0421268B4
:105A7000EF4B1A408300A3F1C0431A60704710280F
:105A80000AD118214FF020421166402151664FF093
:105A9000FC319166D16610E01821E64A1160402180
:105AA0004FF02042C2F884104FF0FC31E14A083236
:105AB00011604FF02042C2F88C10704730B50021C1
:105AC00000220023446844F0080485682C43C5681C
:105AD0002C4305692C43456944EA4524856944EA19
