:020000040800F2
:1000000070090020B92C00087B0200087D0200085E
:100010008102000885020008890200080000000033
:100020000000000000000000000000008D02000839
:100030008F020008000000009102000893020008EF
:10004000D32C0008D32C0008D32C0008D32C000894
:10005000D32C0008D32C0008D32C0008D32C000884
:10006000D32C0008D32C0008D32C0008D32C000874
:10007000D32C0008D32C0008D32C0008D32C000864
:10008000D32C0008D32C0008D32C0008D32C000854
:10009000D32C0008D32C0008D32C0008F509000845
:1000A000D32C0008D32C0008D32C0008D32C000834
:1000B000D32C0008D32C0008D32C0008D32C000824
:1000C000D32C0008D32C0008D32C0008D32C000814
:1000D000D32C0008912C0008D32C0008D32C000846
:1000E000D32C0008D32C0008D32C0008D32C0008F4
:1000F000D32C0008D32C0008D32C0008D32C0008E4
:10010000D32C0008D32C0008D32C0008D32C0008D3
:10011000D32C0008D32C0008D32C0008D32C0008C3
:10012000D32C0008D32C0008D32C0008D32C0008B3
:10013000D32C0008D32C0008D32C0008D32C0008A3
:10014000D32C0008D32C0008D32C0008D32C000893
:10015000D32C0008D32C0008D32C0008D32C000883
:10016000D32C0008D32C0008D32C0008D32C000873
:10017000D32C0008D32C0008D32C0008D32C000863
:10018000D32C0008D32C000800F002F800F04CF843
:100190000AA090E8000C82448344AAF10107DA45E2
:1001A00001D100F041F8AFF2090EBAE80F0013F0E8
:1001B000010F18BFFB1A43F001031847586B0000EA
:1001C000786B0000103A24BF78C878C1FAD852077B
:1001D00024BF30C830C144BF04680C6070470000C1
:1001E0000023002400250026103A28BF78C1FBD840
:1001F000520728BF30C148BF0B607047662906F020
:10020000A284782903F0D287002070471FB506F03A
:1002100090FC04F0A7FB04000020002105F06EFE16
:10022000E0601FBD10B510BD04F0BCFC1146FFF727
:10023000EDFF00F008F804F0DAFC03B4FFF7F2FF7A
:1002400003BC02F0ABFC4FF4A06002F055FDA82007
:1002500002F022FC4FF4E13002F0C4FC00F022F97D
:1002600000F061F900F011FB02F005FA00F0CEFB9E
:1002700002E0012002F072FCFBE7704700BFFEE7DE
:1002800000BFFEE700BFFEE700BFFEE77047704714
:10029000704770470CB500200190009076480068C8
:1002A00040F480307449086000BF7348006800F46F
:1002B000003000900198401C0190009818B90198F6
:1002C000B0F5A04FF1D16C48006800F4003010B1D7
:1002D0000120009001E0002000900098012846D104
:1002E00065484030006840F0805063494031086004
:1002F0006248006840F44040604908605E48083049
:1003000000685D49083108600846006840F4004014
:1003100008600846006840F4A05008605848091F6B
:100320000860081F006840F08070091F086000BF67
:100330005148006800F000700028F9D040F20570C4
:10034000504908604C480830006820F003004A49D2
:10035000083108600846006840F00200086000BFED
:1003600045480830006800F00C000828F8D10CBDA2
:1003700010B54548006840F47000434908603E48A5
:10038000006840F001003C49086000203A4908310B
:100390000860394800683D490840374908603C48D2
:1003A000091D0860081F006820F48020091F0860EC
:1003B000002031490C310860FFF76CFF4FF00060FE
:1003C00031498039086010BD70B500200022022339
:1003D00000240221284D08352D6805F00C0020B1BD
:1003E000042806D0082834D107E02A4D2A4E35606B
:1003F00033E02A4D284E35602FE01F4D2D1D2D680E
:10040000C5F380541C4D2D1D2D6805F03F0154B1DE
:10041000224DB5FBF1F5184E361D3668C6F3881629
:1004200005FB06F209E01B4DB5FBF1F5124E361D3A
:100430003668C6F3881605FB06F20F4D2D1D2D6894
:10044000C5F301456D1C6B00B2FBF3F5124E356030
:1004500003E0104D104E356000BF00BF064D08355B
:100460002D68C5F303150E4E705D0B4D2D68C5400C
:10047000094E356070BD0000003802400070004039
:1004800008544007003C024088ED00E0FFFFF6FE04
:10049000103000240024F4000000002000127A0034
:1004A000040000201CB50121402002F0B9FF032008
:1004B000009001208DF8040000208DF80600032034
:1004C0008DF8050001208DF807006946034802F009
:1004D00009FD0321014802F081FD1CBD0018024006
:1004E00010B504462146474803F0B5FA00BF022183
:1004F000444803F0F9FA0028F9D000BF012141482F
:1005000003F0F2FA0028F9D000BF80213D4803F043
:10051000EBFA0128F9D0022002F0D8FA394803F0AA
:1005200097FAC0B210BD00B587B00121022002F0D9
:1005300077FF0121080302F0CDFF3820059002204B
:100540008DF8180000208DF81A0003208DF819008E
:1005500001208DF81B0005A92B4802F0C3FC0522E1
:100560000321294802F049FD05220421264802F012
:1005700044FD05221146244802F03FFD01210803F5
:1005800002F0FDFF00214FF4805002F0F8FF002040
:10059000ADF800004FF48270ADF802000020ADF815
:1005A0000400ADF806000120ADF808004002ADF8E7
:1005B0000A002020ADF80C000020ADF80E00072046
:1005C000ADF8100069460F4803F0CAF801210D4844
:1005D00003F0C0F9FF20FFF783FF07B000BD10B59F
:1005E0000446084800884FF6C7710840054908804E
:1005F00008460088204308800121024803F0AAF938
:1006000010BD0000003001400004024010B5C8A039
:1006100003F098FDCDA003F095FDD5A003F092FD69
:10062000DAA003F08FFDDEA003F08CFD10BD70B5E5
:1006300004460D4644F04000FFF752FF0020FFF74C
:100640004FFF2846FFF74CFF012002F03FFA70BD34
:1006500070B5044644F02000FFF742FF0020FFF78A
:100660003FFF0020FFF73CFF0546022002F02EFA74
:10067000284670BD10B50120CA490860C82002F0A4
:100680006DFA0620FFF72CFF0C2002F01FFA112054
:10069000FFF726FF0020FFF7DBFF044607E00020FE
:1006A000FFF7D6FF04462146BFA003F04BFD3E2CCA
:1006B000F5D103E0E0214320FFF7B9FF2320FFF746
:1006C000C7FFE028F6D1962002F048FA03E0202187
:1006D0005520FFF7ACFF3520FFF7BAFF2028F6D1F1
:1006E00096214120FFF7A3FF03E096214120FFF769
:1006F0009EFF2120FFF7ACFF9628F6D103E0C02132
:100700004220FFF794FF2220FFF7A2FFC028F6D176
:1007100003E060214520FFF78AFF2520FFF798FFBF
:100720006028F6D103E080214620FFF780FF2620D5
:10073000FFF78EFF8028F6D103E080214720FFF7E6
:1007400076FF2720FFF784FF8028F6D103E06021A1
:100750004820FFF76CFF2820FFF77AFF6028F6D1CA
:1007600003E080214920FFF762FF2920FFF770FF97
:100770008028F6D103E080214A20FFF758FF2A2085
:10078000FFF766FF8028F6D103E080214B20FFF7BA
:100790004EFF2B20FFF75CFF8028F6D103E080217D
:1007A0004C20FFF744FF2C20FFF752FF8028F6D1A2
:1007B00010BD1CB50121102002F032FE01210220E3
:1007C00002F02EFE0121082002F02AFE0C200090EB
:1007D00001208DF8040000208DF8060003208DF81C
:1007E000050001208DF807006946754802F07AFB84
:1007F0004020009001208DF8040000208DF80600B4
:1008000003208DF8050001208DF8070069466D482A
:1008100002F068FB012000908DF8040000208DF8A4
:10082000060003208DF8050001208DF807006946B9
:10083000654802F057FB8020009000208DF80400EE
:1008400003208DF8050001208DF8070069465E48F9
:1008500002F048FB01205349091D086000205B4954
:10086000C1F888025A490860962002F077F9012001
:100870005849C1F88002142002F028F90020564996
:1008800008605249C1F88C021CBD10B5FFF791FFFA
:10089000FFF7F0FEFFF7BAFE0820FFF721FE002069
:1008A0004E49086010BD70B50446002506E00020E2
:1008B000FFF716FE2070641C681CC5B21B2DF6DB0A
:1008C00070BD10B51220FFF70BFE4548FFF7EBFF98
:1008D00018224349C91C434803F044FD21224149E1
:1008E000891E414803F03EFD4048007820B1212197
:1008F0003C48801E02F069F93D4801780068401CC0
:100900003B4A1060C8B23749891E487010BD10B507
:100910000446622C04D0762C06D1FFF777FE04E063
:1009200001203249087000E000BF00BF10BD000088
:100930004F70656E42434920563320382D313620A2
:100940006368616E6E656C0D0A0000004F6E204298
:100950006F617264204144533132393920446576E5
:100960006963652049443A20307833450D0A000018
:100970004C495333444820446576696365204944B3
:100980003A20307830300D0A000000004669726D60
:10099000776172653A2076302E302E310D0A0000D4
:1009A00024242400880242425468652064697665E4
:1009B0006365204944206973203A2025780D0A0098
:1009C0000010024000040240000C024000004242BD
:1009D00080824142008041429882404280024342EC
:1009E00060010020160000202002002035000020B9
:1009F0003800002010B5802003F07FFB012801D1D2
:100A0000FFF75FFF802003F092FB10BD0EB50121C0
:100A1000880302F05FFD0721032003F0A6F8802081
:100A2000009000208DF804000C208DF805000120B6
:100A30008DF80600684603F009FB17208DF80800C2
:100A400000208DF8090002208DF80A0001208DF8A1
:100A50000B0002A802F055F90EBD00002DE9F0418F
:100A600005460E461746984601F008FF002141EA68
:100A70004501C8B201F0AEFF01F041FF20B101F025
:100A80001FFF0120BDE8F081304601F0A3FF01F017
:100A900036FF00240CE018F8040001F09BFF01F081
:100AA0002EFF18B101F00CFF0120EBE7601CC4B26F
:100AB000BC42F0DB01F004FF0020E3E72DE9F04148
:100AC00006460F4614461D4601F0D8FE002141EAB5
:100AD0004601C8B201F07EFF01F011FF20B101F024
:100AE000EFFE0120BDE8F081384601F073FF01F010
:100AF00006FF01F0C3FE012101EB4601C8B201F07F
:100B000069FF01F0FCFE0DE0012C04D1002001F092
:100B10008EFF287003E0012001F089FF2870601E1D
:100B2000C4B26D1C002CEFD101F0CAFE0020D9E741
:100B300070B505460C4601F0A1FED02001F04AFF39
:100B400001F0DDFE18B101F0BBFE012070BD2846AA
:100B500001F040FF01F0D3FE204601F03BFF01F021
:100B6000CEFE18B101F0ACFE0120EFE701F0A8FEC7
:100B70000020EBE770B5044601F080FED02001F0C4
:100B800029FF01F0BCFE204601F024FF01F0B7FE72
:100B900001F074FED12001F01DFF01F0B0FE002035
:100BA00001F045FF054601F08BFE284670BD10B5EB
:100BB0000446E006010E1B20FFF7BAFF10BD10B57A
:100BC0000446E006010E1C20FFF7B2FF10BD70B511
:100BD00004460025BC2C01DB012510E0622C01DB62
:100BE00002250CE02A2C01DB032508E0142C01DB94
:100BF000042504E00A2C01DB052500E00625294632
:100C00001A20FFF795FF70BD70B50446B4F57A7FE2
:100C100001DD4FF47A74042C00DA04244FF47A7066
:100C200090FBF4F0401EC5B229461920FFF780FF63
:100C30000546264604EBD671C1F34F00FFF7C7FF08
:100C400070BD10B52DED088B82B001AB02224121A1
:100C50006820FFF733FF9DF805009DF8041040EA77
:100C6000012004B2204605F0A9FB41EC1B0B9FEDCF
:100C7000FE0B53EC102B05F049FA41EC1A0B9FEDDB
:100C8000FC0B53EC102B05F08DF941EC190B05F022
:100C900057F908EE100A9FEDF80A28EE000ABDEE9B
:100CA000C00A10EE100A00B202B0BDEC088B10BDF5
:100CB0002DE9FC4104460D4616466B4606224321AB
:100CC0006820FFF7FBFE0746BFB99DF801009DF8BD
:100CD000001040EA012000B220809DF803009DF83A
:100CE000021040EA012000B228809DF805009DF81E
:100CF000041040EA012000B230803846BDE8FC8193
:100D00002DE9FC4104460D4616466B4606223B2162
:100D10006820FFF7D3FE0746BFB99DF801009DF894
:100D2000001040EA012000B220809DF803009DF8E9
:100D3000021040EA012000B228809DF805009DF8CD
:100D4000041040EA012000B230803846BDE8FC8142
:100D500010B501F06FFD80216B20FFF7E9FE6420E4
:100D600001F0FCFE00216B20FFF7E2FE0320FFF7FD
:100D70001EFF0020FFF723FF3220FFF745FF002171
:100D80003820FFF7D5FE00216A20FFF7D1FE0021B1
:100D90002320FFF7CDFE80213720FFF7C9FE752005
:100DA000FFF7E8FE0446682C0BD101216B20FFF70A
:100DB000BFFE00216C20FFF7BBFE3220FFF724FFAF
:100DC00001E0012010BD0020FCE7AC48B0F9340080
:100DD000AA49B1F94810401A00EE100AB8EEC00A4C
:100DE000DFEDA70A20EE200ADFEDA60A80EE201A2A
:100DF000A24880ED031AB0F93610B0F94A00081A7B
:100E000000EE100AB8EEC00ADFED9D0A20EE200ABF
:100E1000DFED9C0A80EE201A984880ED041AB0F9A4
:100E20003810B0F94C00081A00EE100AB8EEC00AEB
:100E3000DFED930A20EE200ADFED920A80EE201A01
:100E40008E4880ED051AB0F93C10B0F94E00081A32
:100E500000EE100AF8EEC00A9FED8B1A80EE810AB0
:100E6000DFED8A0A80EE201A844880ED061AB0F978
:100E70003E10B0F95000081A00EE100AF8EEC00A51
:100E80009FED811A80EE810ADFED800A80EE201A44
:100E90007A4880ED071AB0F94010B0F95200081AEC
:100EA00000EE100AF8EEC00A9FED771A80EE810A74
:100EB000DFED760A80EE201A704880ED081AB0F94E
:100EC0004210B0F95400081A00EE100AB8EEC00A39
:100ED000DFED6F0A20EE200A684880ED090AB0F9BC
:100EE0004410B0F95600081A00EE100AB8EEC00A15
:100EF000DFED670A20EE200A604880ED0A0AB0F9AB
:100F00004610B0F95800081A00EE100AB8EEC00AF0
:100F1000DFED5F0A20EE200A584880ED0B0AB0F999
:100F20003A0000EE100AF8EEC00A9FED5A1AB3EE2E
:100F3000070A00EE810A514880ED0C0A704710B58F
:100F40002DED088B04465448007890BB94ED000AC0
:100F500010EE101A084605F07BFD504A03C2504AB5
:100F600003C2504A03C294ED010A10EE101A08465B
:100F700005F06EFD494AC2E90201494AC2E902018F
:100F8000484AC2E9020194ED020A10EE101A08461E
:100F900005F05EFD414AC2E90401414AC2E904018B
:100FA000404AC2E904013C480078401C3A490870B4
:100FB0003AE1FFE73A4890ED000B3A4880ED000B2C
:100FC000364890ED000B364880ED000B94ED000A9A
:100FD00010EE101A084605F03BFD41EC1A0B3248A2
:100FE00090ED041BB0EE410AF0EE610A53EC102BB9
:100FF00051EC1A0B05F036FA41EC180B2A4890ED2B
:10100000022BB0EE420AF0EE620A264890ED002B69
:10101000B0EE421AF0EE621A53EC102B51EC110BA9
:1010200005F020FA41EC1A0B1F4890ED002BB0EEB2
:10103000420AF0EE620A1A4890ED002BB0EE421A16
:10104000F0EE621A53EC102B51EC110B05F00AFA7A
:1010500041EC1B0B53EC1A2B04F0A4FF41EC190BD1
:1010600053EC182B22E00000000000000040754007
:10107000A4703D0AD74342400000C8429C000020B3
:101080000AE81C4100008046333303423333654293
:10109000CDCCCC3D6F12033BF800002008020020AD
:1010A000F0010020D8010020506B000804F07AFF06
:1010B000FE4A03C2FE4890ED020BFE4880ED020B93
:1010C000FA4890ED020BFA4880ED020B94ED010A0C
:1010D00010EE101A084605F0BBFC41EC1A0BF6485E
:1010E00090ED041BB0EE410AF0EE610A53EC102BB8
:1010F00051EC1A0B05F0B6F941EC180BEE4890EDE7
:10110000022BB0EE420AF0EE620AEA4890ED022BA2
:10111000B0EE421AF0EE621A53EC102B51EC110BA8
:1011200005F0A0F941EC1A0BE34890ED002BB0EE6E
:10113000420AF0EE620ADE4890ED022BB0EE421A4F
:10114000F0EE621A53EC102B51EC110B05F08AF9FA
:1011500041EC1B0B53EC1A2B04F024FF41EC190B50
:1011600053EC182B04F01EFFD04AC2E90201D0480C
:1011700090ED040BCF4880ED040B104690ED040B6E
:10118000CB4880ED040B94ED020A10EE101A0846CD
:1011900005F05EFC41EC1A0BC74890ED041BB0EE65
:1011A000410AF0EE610A53EC102B51EC1A0B05F0DA
:1011B00059F941EC180BC04890ED022BB0EE420AF1
:1011C000F0EE620ABB4890ED042BB0EE421AF0EE4E
:1011D000621A53EC102B51EC110B05F043F941EC62
:1011E0001A0BB54890ED002BB0EE420AF0EE620A01
:1011F000AF4890ED042BB0EE421AF0EE621A53ECB9
:10120000102B51EC110B05F02DF941EC1B0B53EC9D
:101210001A2B04F0C7FE41EC190B53EC182B04F009
:10122000C1FEA24AC2E90401A04890ED001BB0EE45
:10123000410AF0EE610A51EC100B04F081FE2060CF
:101240009A4890ED021BB0EE410AF0EE610A51ECB3
:10125000100B04F075FE6060944890ED041BB0EE36
:10126000410AF0EE610A51EC100B04F069FEA06037
:10127000BDEC088B10BD10B52DED068BB0EE408A8D
:10128000F0EE608AB5EEC08AF1EE10FA4AD2F5EEC1
:10129000C08AF1EE10FA45D288EE280A10EE104A04
:1012A000204605F0D5FB41EC1A0BB0EE4A0AF0EEF1
:1012B0006A0A04F0D9FCB0EE409AF0EE609A9FED15
:1012C0007F0B53EC102B51EC190B05F0C9F914D816
:1012D0009FED7C0A7C4880ED000A9FED7C0A7C48EB
:1012E00080ED000A9FED7B0A7B4880ED000A9FEDB0
:1012F0007B0A7B4880ED000A38E19FED7A0A72484C
:1013000080ED000A9FED780A714880ED000A9FED9C
:10131000770A714880ED000A9FED750A704880EDEC
:10132000000A23E1B5EEC08AF1EE10FA4AD2F5EEDA
:10133000C08AF1EE10FA45DD88EE280A10EE104A58
:10134000204605F085FB41EC1A0BB0EE4A0AF0EEA0
:101350006A0A04F089FCB0EE409AF0EE609A9FEDC4
:10136000570B53EC102B51EC190B05F079F914D8ED
:101370009FED600A544880ED000A9FED540A5448DE
:1013800080ED000A9FED5C0A534880ED000A9FED56
:101390005B0A534880ED000AE8E09FED560A4A4890
:1013A00080ED000A9FED560A494880ED000A9FED46
:1013B000550A494880ED000A9FED530A484880EDE0
:1013C000000AD3E0B5EEC08AF1EE10FA4ADDF5EE80
:1013D000C08AF1EE10FA45DD88EE280A10EE104AB8
:1013E000204605F035FB41EC1A0BB0EE4A0AF0EE50
:1013F0006A0A04F039FCB0EE409AF0EE609A9FED74
:101400002F0B53EC102B51EC190B05F029F914D8C4
:101410009FED3E0A2C4880ED000A9FED370A2C48CC
:1014200080ED000A9FED290A2B4880ED000A9FED10
:10143000250A2B4880ED000A98E09FED350A2248E6
:1014400080ED000A9FED2F0A214880ED000A9FEDF4
:101450002C0A214880ED000A9FED2D0A204880EDDE
:10146000000A83E0B5EEC08AF1EE10FA7EDDF5EEFB
:10147000C08AF1EE10FA79D288EE280A10EE104AEE
:10148000204605F0E5FA41EC1A0BB0EE4A0AF0EE00
:101490006A0A04F0E9FBB0EE409AF0EE609A9FED24
:1014A000070B53EC102B51EC190B33E00802002012
:1014B000F0010020D8010020506B0008000000005F
:1014C0000000F03F0AD7A3BB60000020A8C64BBEB7
:1014D00064000020BE9F7A3F680000204ED111BCFE
:1014E0006C0000206F1203BC7B140EBFE17A543FE6
:1014F0006F1203BB0AD7A33B355E7ABFA69B443C61
:1015000068910DBFE17A54BF99BB16BB52499D3A11
:1015100099BB163B05F0A4F814D89FEDFE0AFE48CF
:1015200080ED000A9FEDFD0AFD4880ED000A1FEDE9
:10153000190AFC4880ED000A9FEDFB0AFB4880ED8C
:10154000000A13E09FEDF30AF34880ED000A1FED57
:10155000190AF34880ED000A9FEDF50AF14880ED85
:10156000000A9FEDF40AF14880ED000ABDEC068BFD
:1015700010BD10B5F04B0E223B216820FFF79EFAFC
:10158000ED484078EC49097840EA012000B2EB4987
:101590008886E948C078E849897840EA012001B2A4
:1015A000E648C186E4484079E349097940EA0120E8
:1015B00001B2E2480187E048C079DF49897940EA11
:1015C000012001B2DD484187DB48407ADA49097AD7
:1015D00040EA012001B2D9488187D748C07AD6496C
:1015E000897A40EA012001B2D448C187D248407BC1
:1015F000D149097B40EA012001B2D048A0F840104F
:10160000FFF7E3FBCD480C30FFF799FCCC4800789E
:1016100068B9CA4890ED0A1AF0EE410A90ED091A2D
:10162000B0EE410AFFF727FE0120C549087010BD42
:1016300010B500245DE0C04B0E223B216820FFF76F
:101640003DFABD484078BC49097840EA0120BB49D1
:10165000B1F84810084400B2B849A1F84800B648AB
:10166000C078B549897840EA0121B448B0F84A0009
:10167000084401B2B148A0F84A10AF484079AE49D9
:10168000097940EA0121AD48B0F84C00084401B2A4
:10169000AA48A0F84C10A848407AA749097A40EA1D
:1016A0000121A648B0F84E00084401B2A348A0F8B2
:1016B0004E10A148C07AA049897A40EA01219F488A
:1016C000B0F85000084401B29C48A0F850109A4865
:1016D000407B9949097B40EA01219848B0F85200C3
:1016E000084401B29548A0F85210022001F036FAE1
:1016F000641CB4F5967F9EDB9048B0F948004FF427
:10170000967190FBF1F000B28C49A1F848000846B0
:10171000B0F94A004FF4967190FBF1F001B287489E
:10172000A0F84A10B0F94C004FF4967190FBF1F01C
:1017300001B28248A0F84C10B0F94E004FF49671F7
:1017400090FBF1F001B27D48A0F84E10B0F95000C6
:101750004FF4967190FBF1F001B27848A0F8501068
:10176000B0F952004FF4967190FBF1F001B273485A
:10177000A0F8521010BDF0EE400AF6EE001A60EE2E
:10178000A11AB0EE611AB0EE600A10EE100A6D49AF
:10179000A1EB600000EE100A21EE002AF7EE081A15
:1017A00042EE401A61EE801AB0EE610A704710B541
:1017B0002DED0A8B044694ED030A634880ED000A80
:1017C00094ED040A614880ED000A94ED050A604832
:1017D00080ED000A94ED000A5E4880ED000A94ED69
:1017E000010A5D4880ED000A94ED020A5B4880ED35
:1017F000000A584890ED000AB5EEC00AF1EE10FA62
:101800000FD1554890ED000AB5EEC00AF1EE10FA7E
:1018100007D1524890ED000AB5EEC00AF1EE10FA79
:1018200076D04C48D0ED000A90ED001A60EE810AA7
:10183000494890ED001AD0ED001A41EE210A4748C0
:1018400090ED001AD0ED001A41EE210AB0EE600AC8
:10185000FFF791FFB0EE408A3E48D0ED000AB0EEAF
:10186000480A20EE800A80ED000A3B48D0ED000ACD
:10187000B0EE480A20EE800A80ED000A3748D0ED2D
:10188000000AB0EE480A20EE800A80ED000A2448E3
:1018900090ED000A2548D0ED000A20EE200A1E48EF
:1018A000D0ED000A1F4890ED001AF0EE40AA40EE7D
:1018B000C1AA194890ED000A1948D0ED000A20EE9F
:1018C000200A1848D0ED000A184890ED001AB0EE32
:1018D00040BA00EE81BA1048D0ED000A90ED001A2F
:1018E000B6EE000A10EE810A1048D0ED000A90ED25
:1018F000001AF0EE40BA40EE81BA174890ED000AA7
:1019000020EE2B0A1548D0ED000AB0EE40CA27E0C1
:10191000C1E000000AD7233B60000020355E7A3F1B
:1019200064000020680000206F12033C6C0000205F
:10193000295C0FBFBC74933B800100209C000020F9
:10194000F9000020DF59375F70000020740000208C
:10195000780000207C00002080000020840000200F
:1019600000EECBCA90ED000A20EE2A0AFE48D0ED28
:10197000000AF0EE40CA40EEEBCA90ED000A20EEFD
:101980000B0AFA48D0ED000AB0EE40AA00EEEAAA2F
:10199000F74890ED000AB5EEC00AF1EE10FA4ADD04
:1019A00090ED000A60EE0C0AF24890ED000A9FEDFF
:1019B000F21A00EE810A80ED000AED4890ED000A6F
:1019C00060EE2C0AED4890ED000A9FEDEB1A00EE58
:1019D000810A80ED000AE64890ED000A60EE0A0AEE
:1019E000E74890ED000A9FEDE41A00EE810A80EDD1
:1019F000000AE44890ED000ADE48D0ED000A30EE1F
:101A0000200AE04880ED000ADF4890ED000ADB483C
:101A1000D0ED000A30EE200ADB4880ED000ADB48FA
:101A200090ED000AD648D0ED000A30EE200AD748E3
:101A300080ED000A0EE09FEDD60ACE4880ED000A48
:101A40009FEDD30ACD4880ED000A9FEDD10ACC4826
:101A500080ED000ACB4890ED000ACE48D0ED000A98
:101A600000EE8C0AC74880ED000AC74890ED000AD6
:101A7000C848D0ED000A00EEAC0AC34880ED000A69
:101A8000C24890ED000AC348D0ED000A00EE8A0A71
:101A9000BE4880ED000ABB4890ED000A5FED630A86
:101AA00020EE200A80ED000AB74890ED000A5FEDB5
:101AB000670A20EE200A80ED000AB44890ED000A83
:101AC0005FED6C0A20EE200A80ED000AB248D0EDEE
:101AD000008AB24890ED009AB148D0ED009AB1EE7C
:101AE000490AA848D0ED000A20EE200AA648D0ED09
:101AF000000A09EEE00AAB48D0ED000AA34890EDD9
:101B0000001A00EEC10AA448D0ED000A30EE200A07
:101B100080ED000A9B4890ED000A28EE800A9B4861
:101B2000D0ED000A09EEA00A9E48D0ED000A9648C2
:101B300090ED001A00EEC10A9848D0ED000A30EE90
:101B4000200A80ED000A904890ED000A28EE800AF5
:101B50008E48D0ED000A09EE600A9248D0ED000AE6
:101B6000884890ED001A00EE810A8D48D0ED000AF9
:101B700030EE200A80ED000A844890ED000A28EE3D
:101B8000800A8148D0ED000A09EE200A7D48D0ED98
:101B9000000A09EEE00A8348D0ED000A30EE200A80
:101BA00080ED000A7C48D0ED000A90ED001A60EE4E
:101BB000810A7A4890ED001AD0ED001A41EE210A10
:101BC000774890ED001AD0ED001A41EE210A7548D1
:101BD00090ED001AD0ED001A41EE210AB0EE600A35
:101BE000FFF7C9FDB0EE408A6B4890ED000A20EE89
:101BF000080A80ED000A694890ED000A20EE080A04
:101C000080ED000A664890ED000A20EE080A80ED9B
:101C1000000A644890ED000A20EE080A80ED000AF0
:101C2000BDEC0A8B10BD10B52DED108B90B00446A5
:101C300094ED030A534880ED000A94ED040A5248DB
:101C400080ED000A94ED050A504880ED000A94EDFD
:101C5000000A454880ED000A94ED010A434880EDF2
:101C6000000A94ED020A504880ED000A94ED060A3D
:101C70004E4880ED000A94ED070A4D4880ED000AB9
:101C800094ED080A4B4880ED000A9FED410A474851
:101C900080ED000A9FED3E0A454880ED000A9FED69
:101CA0003C0A444880ED000A404890ED000AB5EE39
:101CB000C00AF1EE10FA16D13D4890ED000AB5EEDB
:101CC000C00AF1EE10FA0ED13A4890ED000AB5EED6
:101CD000C00AF1EE10FA06D12046FFF768FD10B0F9
:101CE000BDEC108B10BD204890ED000AB5EEC00A87
:101CF000F1EE10FA0FD11D4890ED000AB5EEC00AC2
:101D0000F1EE10FA07D1284890ED000AB5EEC00AAE
:101D1000F1EE10FA7DD01448D0ED000A90ED001AD3
:101D200060EE810A114890ED001AD0ED001A41EEE4
:101D3000210A1D4890ED001AD0ED001A41EE210A4B
:101D4000B0EE600AFFF717FDB0EE408A064890ED4E
:101D5000000A20EE080A80ED000A044890ED000A0F
:101D600020EE080A28E000007C000020800000200F
:101D700050000020540000200AD7A33B5800002048
:101D80005C0000207000002074000020780000201B
:101D9000000000004C0000206000002064000020D3
:101DA000680000206C0000208400002088000020D3
:101DB0008C0000209000002080ED000AFE4890ED8D
:101DC000000A20EE080A80ED000AFC48D0ED000A67
:101DD00090ED001A60EE810AF94890ED001AD0EDFE
:101DE000001A41EE210AF74890ED001AD0ED001AD2
:101DF00041EE210AB0EE600AFFF7BDFCB0EE408A6A
:101E0000EE4890ED000A20EE080A80ED000AEC484A
:101E100000E018E290ED000A20EE080A80ED000ACA
:101E2000E84890ED000A20EE080A80ED000AE64836
:101E300090ED000AD0ED000A20EE200A8DED0E0A8A
:101E400090ED000AE148D0ED000A60EE209ADE48ED
:101E500090ED000ADE48D0ED000A60EE208ADA48F4
:101E600090ED000ADB48D0ED000A20EE20CAD748EA
:101E700090ED000AD0ED000A60EE20CA90ED000A55
:101E8000D348D0ED000A20EE20DAD04890ED000AC9
:101E9000D048D0ED000A20EE209ACD4890ED000AFF
:101EA000D0ED000A20EE20AA90ED000AC948D0ED3E
:101EB000000A60EE20AA90ED000AD0ED000A20EEA4
:101EC00020BAB6EE000A30EE4A0A30EE4B0ABB48A2
:101ED000D0ED000A20EE200A7DEE4C0AB84890EDC5
:101EE000001A01EE200A79EE280AB64890ED001A91
:101EF00001EE200AF0EE000A20EE200A8DED0D0A18
:101F00003DEE0C0AAD48D0ED000A20EE200AF6EEB8
:101F1000000A70EEEC0A70EECB0AA94890ED001AA8
:101F200001EE200A7AEEE90AA64890ED001A01EEC9
:101F3000200AF0EE000A60EE20FA9DED0D0A20EE78
:101F4000000A0FEEAF0A10EE101A084604F080FDEA
:101F5000CDE900019DED000B03F090FE8DED020B2D
:101F60009DED020B51EC100B03F0EAFF0BEE900A13
:101F700039EE680A9148D0ED000A20EE200A7AEE88
:101F8000A90A8F4890ED001A01EE200AF6EE000A29
:101F900070EEEC0A70EECA0A8A4890ED001A01EE63
:101FA000200AF0EE000A60EE20DA39EE680A8DEDC4
:101FB0000C0A39EEAA0A8DED0B0A9DED0E0AF6EE1B
:101FC000000A30EE600A30EE0B0A8DED0A0AB6EE1A
:101FD000000A30EE4A0A30EE4B0A20EE2B0A79EE68
:101FE000680A0DEEA00A8DED090A3DEE4C0A20EEBE
:101FF0002B0A79EEAA0A0DEEA00A8DED080A38EE3A
:10200000890A20EE2B0AF6EE000A70EEEC0A70EE5A
:10201000CA0A0DEEA00A8DED070A6F48D0ED000A3E
:102020009DED0A0A60EE800A634890ED001A9DED6E
:102030000B0A41EE400A624890ED001A9DED070A36
:1020400021EE001A5F48D0ED001A9DED080A01EE5E
:10205000C01A30EE810A8DED060A5748D0ED000A0D
:102060009DED0C0A60EE800A5C4890ED001A9DED33
:102070000A0A41EE400A534890ED001A9DED090A04
:1020800021EE001A4D48D0ED001A9DED070A01EE31
:10209000C01A30EE810A8DED050A5048D0ED000AD5
:1020A0009DED0B0A60EE800A4B4890ED001A9DED05
:1020B0000C0A41EE400A414890ED001A9DED080AD5
:1020C00021EE001A3E48D0ED001A9DED090A01EEFE
:1020D000C01A30EE810A8DED040A414890ED000AE5
:1020E000B5EEC00AF1EE10FA50DDD0ED000A9DED1C
:1020F000060A60EE800A3B4890ED000A1FEDE21AE6
:1021000000EE810A80ED000A3548D0ED000A9DED11
:10211000050A60EE800A344890ED000A1FEDEA1AC5
:1021200000EE810A80ED000A2D48D0ED000A9DEDF9
:10213000040A60EE800A2D4890ED000A1FEDF21AA5
:1021400000EE810A80ED000A294890ED000A25483A
:10215000D0ED000A30EE200A254880ED000A25481F
:1021600090ED000A2048D0ED000A30EE200A214808
:1021700080ED000A204890ED000A1C48D0ED000ACE
:1021800030EE200A1C4880ED000A0EE09FED1B0A8D
:10219000144880ED000A9FED190A134880ED000AEB
:1021A0009FED160A114880ED000A1148D0ED000A93
:1021B000134890ED001A25E08400002088000020DC
:1021C0008C000020900000206000002064000020AF
:1021D000680000206C000020800000207C000020AF
:1021E0005000002054000020580000205C00002017
:1021F0007000002074000020780000200000000023
:102200004C0000209DED060A41EE000AF748C0EDA3
:10221000000AF748D0ED000AF64890ED001A9DED4F
:10222000050A41EE000AF248C0ED000AF248D0ED7E
:10223000000AF04890ED001A9DED040A41EE000AF4
:10224000ED48C0ED000AE94890ED000ADFEDEB0A29
:1022500020EE200A80ED000AE54890ED000ADFED4F
:10226000E70A20EE200A80ED000AE34890ED000A1C
:10227000DFEDE20A20EE200A80ED000AE04890ED52
:1022800000EAE048D0ED00EADF4890ED00FAB1EE58
:102290006E0AD648D0ED000A20EE200AD448D0EDD0
:1022A000000A0FEE600AD948D0ED000AD24890ED3E
:1022B000001A00EEC10AD248D0ED000A30EE200A22
:1022C00080ED000AC94890ED000A2EEE000ACA48C7
:1022D000D0ED000A0FEE200ACC48D0ED000AC44829
:1022E00090ED001A00EEC10AC648D0ED000A30EEAB
:1022F000200A80ED000ABE4890ED000A2EEE000A8A
:10230000BD48D0ED000A0EEEE00AC048D0ED000A4C
:10231000B64890ED001A00EE810ABB48D0ED000AE5
:1023200030EE200A80ED000AB34890ED000A2EEE50
:10233000000AAF48D0ED000A0EEEA00AAB48D0ED7F
:10234000000A0FEE600AB148D0ED000A30EE200A14
:1023500080ED000AAA48D0ED000A90ED001A60EE68
:10236000810AA84890ED001AD0ED001A41EE210A2A
:10237000A54890ED001AD0ED001A41EE210AA348BD
:1023800090ED001AD0ED001A41EE210AB0EE600A7D
:10239000FFF7F1F9B0EE408A994890ED000A20EE7F
:1023A000080A80ED000A974890ED000A20EE080A1E
:1023B00080ED000A944890ED000A20EE080A80EDB6
:1023C000000A924890ED000A20EE080A80ED000A0B
:1023D00000BF84E410B52DED088B0446884890EDCD
:1023E000000AD0ED000A20EE200A8648D0ED000A4F
:1023F00090ED001A00EE810A8348D0ED000A90EDBE
:10240000001A00EEC10A8148D0ED000A90ED001AD2
:1024100000EEC10A10EE101A084604F019FB41EC58
:102420001A0B784890ED000A7748D0ED000A20EEAC
:10243000200A7348D0ED000A744890ED001A00EEAF
:10244000810AF0EE000A20EE200A10EE101A08466B
:1024500004F0FEFA41EC1B0BB0EE4A1AF0EE6A1AD9
:10246000B0EE4B0AF0EE6B0A03F006FBB0EE409ABA
:10247000F0EE609A9FED660B53EC102B51EC190BAC
:1024800003F0F0FF41EC180B03F05AFDA0605D482B
:1024900090ED000A5D48D0ED000A20EE200A584871
:1024A000D0ED000A584890ED001A00EEC10AF0EE97
:1024B000000A20EE200A10EE101A084604F0C8FAAE
:1024C00041EC1B0BB0EE4B0AF0EE6B0A02F0B8FFCA
:1024D000B0EE40AAF0EE60AA51EC1A0B03F024FD16
:1024E00041EC190B9FED4A0B53EC102B03F0BAFF94
:1024F00041EC180B03F024FD6060414890ED000AA8
:10250000D0ED000A20EE200A3E48D0ED000A90ED02
:10251000001A00EEC10A3C48D0ED000A90ED001A06
:1025200000EEC10A3948D0ED000A90ED001A00EE25
:10253000810A10EE101A084604F08AFA41EC1A0BD0
:102540002F4890ED000A2F48D0ED000A20EE200A17
:102550002D48D0ED000A2D4890ED001A00EE810ABA
:10256000F0EE000A20EE200A10EE101A084604F0E1
:102570006FFA41EC1B0BB0EE4A1AF0EE6A1AB0EE9D
:102580004B0AF0EE6B0A03F077FAB0EE409AF0EEE9
:10259000609A9FED1F0B53EC102B51EC190B03F0BD
:1025A00061FF41EC180B03F0CBFC20601A4890ED62
:1025B000000A1A4880ED000A94ED020A164880EDE0
:1025C000000A90ED000A1548D0ED000A30EE600ACE
:1025D000DFED130AB4EEE00AF1EE10FA24DB114845
:1025E0000068401E0F49086032E0000070000020C3
:1025F000740000204C000020780000200AD7233B04
:102600006000002064000020680000206C000020B2
:102610006666666666A64C40FC000020000100204D
:102620000000964304010020604890ED000A6048D5
:10263000D0ED000A30EE600ADFED5E0AB4EEE00A8B
:10264000F1EE10FA04D85C480068401C5A49086052
:10265000594800684FF4B471484300EE100AB8EED0
:10266000C00A5248D0ED000A30EE200A84ED020A7A
:10267000BDEC088B10BD10B506E050A001F062FD66
:102680004FF4FA7000F06AFAFEF762FB0028F4D10A
:1026900050A001F057FD052000F060FA052000F081
:1026A0005DFA052000F05AFA10BD00B52DED068B3D
:1026B00085B0FEF75EFF4C48FFF7B5FA4A480C3884
:1026C000FFF788FE48480C3890ED020A474880ED35
:1026D000000A45480C3890ED080ADFED450A20EE67
:1026E000200A444880ED000A3F480C3890ED070A64
:1026F000DFED3F0A20EE200A3F4880ED000A3A480D
:102700000C3890ED000A10EE101A084604F0A0F9FB
:1027100041EC180B34480C3890ED010A10EE101AF9
:10272000084604F095F941EC190B2F480C3890ED50
:10273000020A10EE101A084604F08AF941EC1A0B4E
:102740008DED028B8DED009B53EC1A2B2BA001F02D
:10275000F9FC052000F002FA05B0BDEC068B00BDC7
:1027600021480C3890ED020A70471F480C3890ED54
:10277000010A70471C480C3890ED060ADFED1C0A70
:1027800020EE200A704718480C3890ED070ADFED5C
:10279000180A20EE200A704713480C3890ED080AFA
:1027A000DFED130A20EE200A70470000FC00002035
:1027B00000010020000096C3040100204D50553652
:1027C00030353020696E6974206572726F72A3A112
:1027D000000000004D50553630353020696E697468
:1027E00020646F6E65210000A800002040000020DA
:1027F0003333654244000020480000207961775F50
:10280000616E676C653A25382E336C662020207027
:1028100069745F616E676C653A25382E336C66208B
:1028200020726F6C5F616E676C653A25382E336C71
:10283000660D0A001CB50121402000F0F1FD4FF4A7
:102840005050009001208DF8040000208DF8060003
:1028500003208DF8050001208DF8070069468B489C
:1028600000F040FB4FF48061884800F0B9FB012084
:10287000874908608749C1F8B4021CBD10B5834878
:10288000006820F04060814908600846006840F018
:102890008060086001207E49091D08607D49C1F8FB
:1028A000B002042000F012F900207949091D0860E7
:1028B000042000F00BF900207649C1F8B00210BDE9
:1028C00010B57248006820F0406070490860084602
:1028D000006840F08060086000206D4908606D4924
:1028E000C1F8B402042000F0F1F801206849086042
:1028F0006849C1F8B402042000F0E8F810BD10B532
:1029000000246248006820F0406060490860084682
:102910000068086001205E49091D086000F0D6F8D3
:1029200001205C49C1F8B00200F0D0F807E0601C5B
:10293000C4B2FA2C03DDFFF7C3FF012010BD5448D9
:102940007C3800680028F2D15149086000BFF5E7E3
:1029500010B500204E4908604C48006820F04060E7
:102960004A4908600846006840F08060086000201E
:102970004849C1F8B402022000F0A8F801204449F7
:102980000860022000F0A2F800204249C1F8B0021D
:1029900010BD10B500203E4908603C48006820F09A
:1029A00040603A4908600846006840F0806008606E
:1029B00001203849C1F8B402022000F087F8012054
:1029C00033490860022000F081F800203149C1F845
:1029D000B00210BD70B504462C48006820F040607D
:1029E0002A4908600846006840F0806008600020BE
:1029F00027490860002517E0E0092549091D0860FE
:102A00006006040E022000F061F801202149C1F89F
:102A1000B002022000F05AF800201D490860022090
:102A200000F054F8681CC5B2082DE5DB70BD70B528
:102A3000054600241548006820F0406013490860EE
:102A4000084600680860002616E00020104908606B
:102A5000022000F03BF801200E49C1F8B0026006E8
:102A6000040E0B487C38006808B1601CC4B2012019
:102A700000F02CF8701CC6B2082EE6DB15B9FFF783
:102A800088FF01E0FFF764FF204670BD0018024098
:102A9000B00243420000434210B504466FF0040008
:102AA00000F07CF9E11704EB5171C1F3C701394A19
:102AB00011701046007800EB4001C1EBC0104FF6DA
:102AC000FF7101EAC0003449088010BD0146314A57
:102AD00012784A434FF0E0235A6100229A611A4665
:102AE000126942F001021A6100BF4FF0E022106942
:102AF00000F001021AB100F48032002AF5D04FF044
:102B0000E022126922F001024FF0E0231A61002254
:102B10009A6170470146204A12884A434FF0E023E9
:102B20005A6100229A611A46126942F001021A6142
:102B300000BF4FF0E022106900F001021AB100F46A
:102B40008032002AF5D04FF0E022126922F0010213
:102B50004FF0E0231A6100229A61704770B5044675
:102B60004FF4077094FBF0F0C6B24FF4077094FB7B
:102B7000F0F100FB114085B205E04FF40770FFF75C
:102B8000C9FF701EC6B2002EF7D115B12846FFF757
:102B9000C1FF70BD080100200A01002000BF70477E
:102BA00000BF434A128802F04002002AF9D0C2B2A4
:102BB0003F4B9A80704700BF3D49098801F04001B2
:102BC0000029F9D03A498880704710B503460C4671
:102BD000002200BF03E0985CFFF7EDFF521CA24209
:102BE000F9DB10BD10B588B004460121084600F09D
:102BF00017FC0121102000F06DFC072209212D484F
:102C000000F0FBF907220A212A4800F0F6F94FF4F8
:102C1000C060069002208DF81C008DF81D00002079
:102C20008DF81E0001208DF81F0006A9214800F034
:102C300059F902940020ADF80C00ADF80E00ADF883
:102C40001000ADF814000C20ADF8120002A91848CD
:102C500001F02BF80121164801F0AFF8402114488B
:102C600001F093F9012240F22551114801F05BF97E
:102C700025208DF8040003208DF805008DF806004E
:102C800001208DF8070001A800F03BF808B010BD46
:102C900010B540F22551064801F080F930B10448E2
:102CA00001F0BAF8C4B22046FDF731FE10BD0000B5
:102CB00000100140000002400948804709480047D1
:102CC000FEE7FEE7FEE7FEE7FEE7FEE7FEE7FEE7DC
:102CD000FEE7FEE704480549054A064B7047000039
:102CE00071030008890100087003002070090020AA
:102CF000700500207005002032490143324A1160FE
:102D0000704770B5002100230F22C4781CB32E4CED
:102D1000246804F4E064C4F5E064C4F30721C1F15D
:102D20000404E3B20A4144789C40E1B28478144040
:102D300021430C07210E254C05786155047804F0D9
:102D40001F050124AC4005786D11AD0005F1E025AB
:102D5000C5F8004109E0047804F01F050124AC40E7
:102D60001B4D0678761145F8264070BD194A0A4079
:102D70000243154B1B1F1A60704739B1124A121DCE
:102D800012680243104B1B1D1A6006E00E4A121D0A
:102D9000126882430C4B1B1D1A607047042808D12F
:102DA0004FF0E021096941F004014FF0E022116188
:102DB00007E04FF0E021096921F004014FF0E02223
:102DC000116170470000FA050CED00E000E400E03E
:102DD00080E100E080FFFF1F10B504469848844260
:102DE00008D10121084600F086FB0021012000F0F7
:102DF00082FB76E09348844208D10121022000F052
:102E00007AFB0021022000F076FB6AE08E488442C3
:102E100008D10121042000F06EFB0021042000F005
:102E20006AFB5EE08948844208D10121082000F055
:102E300062FB0021082000F05EFB52E084488442DF
:102E400008D10121102000F056FB0021102000F0D5
:102E500052FB46E07F48844208D10121202000F047
:102E60004AFB0021202000F046FB3AE07A488442E9
:102E700008D10121402000F03EFB0021402000F05D
:102E80003AFB2EE07548844208D10121802000F0F1
:102E900032FB0021802000F02EFB22E070488442AB
:102EA00008D10121801500F026FB0021A01500F0BB
:102EB00022FB16E06B48844208D10121401500F046
:102EC0001AFB0021601500F016FB0AE066488442F8
:102ED00007D10121001500F00EFB0021201500F0A4
:102EE0000AFB10BDF0B50A4600210023002400BFF4
:102EF0003DE0012505FA01F3156805EA03049C424B
:102F000034D105684F000326BE40B54305601579EE
:102F10004E00B5400668354305601579012D02D095
:102F20001579022D16D185684F000326BE40B543A2
:102F3000856055794E00B5408668354385604568A3
:102F400001268E40B5434560456896798E40B6B2FD
:102F500035434560C5684F000326BE40B543C56094
:102F6000D5794E00B540C6683543C560491C102967
:102F7000BFD3F0BD4FF6FF710160002101714171B7
:102F80008171C171704708B54FF480320092009A88
:102F90000A430092009AC261C161009AC261C2698B
:102FA0000092C269009208BD0246002013690B40DE
:102FB0000BB1012000E0002070470146086980B293
:102FC00070470246002053690B400BB1012000E01E
:102FD000002070470146486980B2704701837047FE
:102FE000418370470AB1018300E04183704741612A
:102FF000704742694A4042617047F0B5002300249F
:103000004D07ED0E02FA05F3CE1000F1200555F83C
:1030100026504E07F70E0F26BE40B543CF1000F1E5
:10302000200646F82750CE1000F1200555F826500E
:1030300045EA0304CE1000F1200545F82640F0BD16
:10304000000002400004024000080240000C024060
:10305000001002400014024000180240001C024010
:10306000002002400024024000280240F948006885
:1030700040F00100F74908600020F6490831086077
:10308000F4480068F4490840F2490860F348091D13
:103090000860F348EF4984310860F0481038091D92
:1030A0000860EC48006820F48020EA4908600020AD
:1030B000E8490C310860E7498C310860704700210D
:1030C000E44A921C117011460870704710B5014611
:1030D0000022002300204A11012A02D1DD4C23687E
:1030E00008E0022A03D1DB4C7034236802E0D94C9B
:1030F0007434236801F01F02012494401C400CB179
:10310000012000E0002010BD38B500200090002410
:10311000002500BF3120FFF7D9FF05460098401C6D
:1031200000900098B0F5A04F01D0002DF2D03120D2
:10313000FFF7CCFF08B1012400E00024204638BD91
:1031400001460020C34A106820F0F80040EAC100A0
:1031500010607047C349086070470021BD4A703253
:1031600011701170012802D004280AD104E0012155
:10317000B84A7032117005E00521B64A70321170FC
:1031800000E000BF00BF7047B7490860704770B5E6
:10319000049C41EA82150126C6EB530645EA064522
:1031A000054345EA0465AB4E361D356070BDAD493B
:1031B00008667047820142EA0172A64B84331A60A6
:1031C0007047A8498866704710B5830143EA0163D8
:1031D00043EA02739F4C8834236010BDA1490867FD
:1031E0007047A049C864704702460020994B0833D5
:1031F000186820F0EC6042EA01031843954B08334D
:103200001860704702460020924B0833186820F07F
:10321000784042EA010318438E4B08331860704728
:10322000014600208B4A0832106820F00300084352
:103230001060704787480830006800F00C00704745
:1032400001460020834A0832106820F0F00008434D
:1032500010607047014600207E4A0832106820F452
:10326000E05008431060704701460020794A083258
:10327000106820F4604040EAC10010607047F0B56B
:10328000002100220024022500260223714F083766
:103290003F6807F00C0121B1042905D0082937D176
:1032A00005E0724F076036E0714F076033E0694F09
:1032B0003F1D3F68C7F38056664F3F1D3F6807F0CC
:1032C0003F036EB16A4FB7FBF3F7DFF888C10CF12B
:1032D000040CDCF800C0CCF3881C07FB0CF40CE0F9
:1032E000624FB7FBF3F7DFF86CC10CF1040CDCF8AC
:1032F00000C0CCF3881C07FB0CF4564F3F1D3F6801
:10330000C7F301477F1C7D00B4FBF5F7076002E0BF
:10331000564F076000BF00BF4E4F08373F6807F0A9
:10332000F0010909534F7A5C0768D7404760494F5D
:1033300008373F6807F4E051890A4E4F7A5C4768C6
:10334000D7408760434F08373F6807F46041490B17
:10335000484F7A5C4768D740C760F0BD002100F451
:103360004072B2F5407F0AD13A4A0832116821F41E
:10337000F811414A02401143364A08321160354A79
:1033800070321268C0F30B031A43324B70331A6069
:1033900070473549443908607047334940390860FF
:1033A000704736490860704701460020294A8C3230
:1033B000106820F01F004A1E1043264A8C3210600D
:1033C000704701460020234A8C32106820F4F850E0
:1033D0004A1E40EA02201F4A8C32106070470146A4
:1033E00000201C4A8C32106820F440100843106002
:1033F000704701460020174A8C32106820F44000C4
:1034000008431060704701460020124A8C32106851
:1034100020F4403008431060704719490860704735
:1034200039B10C4A3032126802430A4B30331A6009
:1034300006E0084A303212688243064B30331A6085
:103440007047F9B1034A343212680243014B3433F6
:103450001A601CE000380240FFFFF6EA103000243A
:103460000030002000004742800E47420024F40054
:1034700000127A0012010020FFFCFF0F5C0147429E
:10348000E01147428F4A126882438E4B1A607047A0
:1034900039B18C4A121D126802438A4B1B1D1A60F7
:1034A00006E0884A121D12688243864B1B1D1A6073
:1034B000704739B1834A0C3212680243814B0C3396
:1034C0001A6006E07F4A0C32126882437D4B0C334F
:1034D0001A60704739B17B4A103212680243794B47
:1034E00010331A6006E0774A103212688243754B37
:1034F00010331A60704739B1724A243A1268024395
:10350000704B243B1A6006E06E4A243A12688243EC
:103510006C4B243B1A60704739B16A4A203A1268F2
:103520000243684B203B1A6006E0664A203A126864
:103530008243644B203B1A60704739B1614A1C3AA0
:10354000126802435F4B1C3B1A6006E05D4A1C3A5E
:10355000126882435B4B1C3B1A60704739B1594A71
:10356000143A12680243574B143B1A6006E0554A5E
:10357000143A12688243534B143B1A60704739B1B6
:10358000504A103A126802434E4B103B1A6006E054
:103590004C4A103A126882434A4B103B1A607047FB
:1035A00039B1484A1C3212680243464B1C331A6038
:1035B00006E0444A1C3212688243424B1C331A60B4
:1035C000704739B13F4A2032126802433D4B2033E5
:1035D0001A6006E03B4A203212688243394B20339E
:1035E0001A60704739B1374A243212680243354BAA
:1035F00024331A6006E0334A243212688243314B86
:1036000024331A60704739B12E4A2C3212680243B3
:103610002C4B2C331A6006E02A4A2C321268824363
:10362000284B2C331A60704739B1264A3032126861
:103630000243244B30331A6006E0224A30321268CB
:103640008243204B30331A607047012808D11D494E
:103650003C31096841F008011A4A3C32116007E028
:1036600018493C31096821F00801164A3C321160C2
:10367000704739B1134A273A12780243114B273B5E
:103680001A7006E00F4A273A127882430D4B273B07
:103690001A7070470B484030006840F0807009494C
:1036A00040310860704701460020064A283A1268F7
:1036B0000A400AB1012000E0002070470149263984
:1036C000087070473438024010B50446FB48844205
:1036D00008D101218014FFF752FF0021A014FFF749
:1036E0004EFF3CE0F648844208D101210014FFF768
:1036F00035FF00212014FFF731FF30E0F14884420C
:1037000008D10121C013FFF729FF0021E013FFF7C3
:1037100025FF24E0EC48844208D101214014FFF742
:103720002EFF00216014FFF72AFF18E0E7488442CB
:1037300009D101210805FFF722FF00214FF4801075
:10374000FFF71DFF0BE0E248844208D10121480544
:10375000FFF715FF00214FF40010FFF710FF10BD19
:1037600010B50022028802F441520B884C88234392
:103770008C882343CC8823430C8923434C892343DF
:103780008C892343CC8923431A430280838B4FF2D5
:10379000FF74234083830B8A038210BD2DE9F04F11
:1037A0000025022300244FF00109002200260027F3
:1037B00094469046B0F81CA04FF2400B0AEA0B0A60
:1037C000A0F81CA04FF0020AA0F820A0858BD1F829
:1037D00008A0BAF1020F01D100BF82E0B1F804A045
:1037E000BAF1000F02D14FF0010901E04FF00209D8
:1037F000DFF8E0A2DAF800A00AF4000ABAF1000F3C
:1038000009D0DFF8D0A2DAF800A02AF4000ADFF825
:10381000C4B2CBF800A0DFF8BCA20AF17C0ADAF847
:1038200000A0CAF3881CDFF8ACA20AF17C0ADAF81F
:1038300000A0CAF30278DFF89CA2AAF1040ADAF821
:1038400000A00AF03F07DFF88CA2AAF1040ADAF818
:1038500000A00AF4800ABAF5800F08D1DFF878A238
:10386000BAFBF7FA0AFB0CFABAFBF8F607E0DFF846
:103870006CA2BAFBF7FA0AFB0CFABAFBF8F6B1F83D
:1038800006A0BAF5007F0ED14FEA162A0AEB8A0A83
:103890004FEA4A0AD1F808B0BAFBFBFA0AF1050A66
:1038A0001FFA8AF20FE04FEA491AB6FBFAFA0AEB5E
:1038B0008A0A4FEA4A0AD1F808B0BAFBFBFA0AF1C1
:1038C000050A1FFA8AF24FF00A0AB2FBFAF202F076
:1038D0000104A2EB040ACAF34F034FF6FF7A0AEA87
:1038E0000424022B01DBFF2B01DD02230024B1F8AD
:1038F00006A04AEA040A4AEA030AA0F820A0B1F89E
:1039000004A0B1F80CB04AEA0B0AB1F802B04AEAD6
:103910000B0AB1F800B04AEA0B0A4AF4006A4AEA14
:1039200005058583BDE8F08F0021018041808180FD
:10393000C180018141818181C1810721018270475C
:103940000021018041808180C180022181600021AD
:103950008181704721B1028842F04002028004E078
:1039600002884FF6BF731A400280704721B1828BE4
:1039700042F48062828304E0828B4FF6FF331A4068
:103980008283704702884FF2FF731A4002800288D8
:103990000A4302807047B1F5804F04D1028842F497
:1039A0008042028004E002884BF6FF731A400280D6
:1039B00070474FF6FF62914204D0028842F4807251
:1039C000028004E002884FF6FF631A4002807047CD
:1039D00021B1828842F00402828004E082884FF69E
:1039E000FB731A408280704721B1828842F0100236
:1039F000828004E082884FF6EF731A40828070471D
:103A000030B500220023848B4FF240052C40848384
:103A100002240484828B0C88B4F5007F01D00C88CA
:103A200014B94FF4807308E00C88B4F5407F03D0DC
:103A30000C88B4F5807F00D100238C888D892C43BD
:103A40004D882C431C4344F400642243828330BDE0
:103A50000146888970478181704721B1028842F40C
:103A60000052028004E002884DF6FF731A40028083
:103A70007047018841F48051018070470246002060
:103A8000012901D0108B00E0908A70470146088A16
:103A900070471AB183880B43838002E083888B438D
:103AA0008380704730B5002400230C110125A54008
:103AB000ABB2AAB185881D43858014E00030014077
:103AC00000380040003C00400034014000500140FC
:103AD000005401400838024000127A000024F4002B
:103AE00085889D43858030BD0246002013890B40A8
:103AF0000BB1012000E000207047CA4302817047EB
:103B0000F0B50246002000240023002501F00F0735
:103B10000126BE40B4B20B1101269E40B3B2968876
:103B200006EA03051689264016B10DB1012000E012
:103B30000020F0BD10B5002201F00F040123A340C6
:103B40009AB2D343038110BD10B501218803FFF75A
:103B500016FD00214FF48040FFF711FD10BD1C49F8
:103B6000086070471B490862704730B500228B0718
:103B70001C0F0F2303FA04F2154B08338C1053F873
:103B800024309343124C08348D1044F825302346DA
:103B90008C1053F824308C07240F00FA04F42343CC
:103BA0000B4C08348D1044F8253030BD0949DC3108
:103BB00008607047084908607047002004492031B8
:103BC000096801F4807109B1012000E0002070470C
:103BD00000380140000027420004274210B5044687
:103BE000FA48844208D101211020FFF7C8FC0021C7
:103BF0001020FFF7C4FC57E0F548844209D10121A9
:103C00004804FFF7ABFC00214FF40030FFF7A6FC9F
:103C10004AE0F048844209D101218804FFF79EFC64
:103C200000214FF48020FFF799FC3DE0EA488442F0
:103C300009D10121C804FFF791FC00214FF40020B5
:103C4000FFF78CFC30E0E548844209D101210805EA
:103C5000FFF784FC00214FF48010FFF77FFC23E086
:103C6000DF48844208D101212020FFF788FC002191
:103C70002020FFF784FC17E0DA48844209D10121B3
:103C80008807FFF76BFC00214FF08040FFF766FCD0
:103C90000AE0D548844207D101214005FFF75EFCC8
:103CA00000216005FFF75AFC10BD2DE9FF470546CE
:103CB0000E460024A14600BFA046B08900B100BF57
:103CC0002C8A24F44054F08804432C82AC8941F2BD
:103CD0000C608443B08831890843718908430443E8
:103CE000AC81AC8A24F44074B0890443AC82684649
:103CF000FFF7C5FAB548854202D0B948854202D1DE
:103D0000DDF80C9001E0DDF80890A88900F400408F
:103D100040B109EBC90000EB091031684900B0FB64
:103D2000F1F707E009EBC90000EB091031688900E1
:103D3000B0FBF1F76420B7FBF0F004012009642127
:103D400001FB1078A88900F4004040B1322000EB5C
:103D5000C800B0FBF1F000F00700044308E0322097
:103D600000EB08106421B0FBF1F000F00F000443F9
:103D70002C81BDE8FF874FF416510160002181803E
:103D8000C18001810C21418100218181704710B5E2
:103D900002460020108A20F470600B884C88234370
:103DA0008C882343CC8823431843108210BD002104
:103DB000018041808180C180704721B1828942F4B5
:103DC0000052828104E082894DF6FF731A4082819D
:103DD0007047028B02F47F420283028B0A43028304
:103DE000704721B1828942F40042828103E08289D6
:103DF000C2F30E028281704721B1828A42F40062CE
:103E0000828204E0828A4FF2FF731A4082827047F6
:103E1000C1F308028280704701468888C0F3080019
:103E20007047028A4FF6F0731A400282028A0A43F0
:103E30000282704721B1828942F00202828104E04D
:103E400082894FF6FD731A408281704782894FF252
:103E5000FF731A40828182890A4382817047028AF5
:103E60004FF6DF731A400282028A0A4302827047C9
:103E700021B1028A42F48042028204E0028A4BF6B7
:103E8000FF731A4002827047818941F001018181EC
:103E9000704721B1828A42F00802828204E0828A5D
:103EA0004FF6F7731A4082827047028BD2B20283B8
:103EB000028B42EA01220283704721B1828A42F0DA
:103EC0002002828204E0828A4FF6DF731A408282E7
:103ED000704721B1828A42F01002828204E0828A15
:103EE0004FF6EF731A4082827047828A4FF6FB7357
:103EF0001A408282828A0A438282704721B1828A72
:103F000042F00202828204E0828A4FF6FD731A4078
:103F1000828270471AB1838A0B43838202E0838ACC
:103F20008B4383827047F0B50346002400260025AA
:103F3000002040F66A17B94200D100BF1846C1F30D
:103F4000421401F01F06012707FA06F5012C01D1E2
:103F50000C3004E0022C01D1103000E014301AB112
:103F600007682F43076002E00768AF430760F0BDB2
:103F700002460020B1F5007F00D100BF13880B403E
:103F80000BB1012000E00020704701F40072B2F58F
:103F9000007F00D100BFCA430280704770B502465F
:103FA000002400230025002040F66A16B14200D10B
:103FB00000BFC1F3421501F01F03012606FA03F307
:103FC000012D13D19689334017E000000010014005
:103FD0000044004000480040004C004000500040B9
:103FE0000014014000780040007C0040022D02D106
:103FF000168A334001E0968A33400C12012606FAF5
:1040000004F41688344013B10CB1012000E0002004
:1040100070BD10B50022002340F66A14A14200D101
:1040200000BF0A1201249440A3B2DC43048010BDF7
:10403000002041490860091D0860091D0860091D2C
:1040400008603E483C4914310860704700213A49F5
:104050008279002A3AD00A46126803689A430B46CE
:104060001A600A1D126803689A430B1D1A600279D0
:1040700011440A6803681A430A602F4A083212681A
:1040800003689A432C4B08331A601A1D12680368A0
:104090009A43294B0C331A604279102A0ED11A1F09
:1040A000126803681A43244B08331A601A1D1268F9
:1040B00003681A43204B0C331A600DE01E49427905
:1040C00011440A6803681A430A6005E00279114442
:1040D0000A6803689A430A60704700210160017111
:1040E0000C21417100218171704713491031096819
:1040F0000143114A103211607047014600200E4AF8
:10410000143212680A400AB1012000E00020704712
:10411000094914310860704701460020064A1432EC
:1041200012680A400AB1012000E0002070470249ED
:104130001431086070470000003C0140FFFF7F0021
:10414000704700000FB4044910B503AA029800F0AC
:10415000C5FB10BC5DF814FB0C01002070B50446D3
:1041600085690068C10601D5302600E02026C00719
:1041700007D070BDD4E9012130469047206A401C29
:1041800020626D1EF6D570BD70B504468569007855
:10419000C00707D170BDD4E9012120209047206AD3
:1041A000401C20626D1EF6D570BD000070B504463F
:1041B0000D4621461068AFF300802188090502D51D
:1041C0000F4A7A4402E00E4A7A440E32002104F18A
:1041D000240305E000F00F060009965D5E54491CBB
:1041E0000028F7D120780023000704D5702D02D0D5
:1041F00009B1022311322046BDE8704000F006B933
:10420000A22900002DE9F0474FF0000A8946044634
:10421000C0F820A02046E1688847002876D02528ED
:1042200006D0D4E901219047206A401C2062F1E7C2
:10423000E168204600268847C4F81CA005460027F0
:10424000C4F818A02A2D09D0284601F005FE38B37D
:1042500004EB8708303DC8F8185019E059F8041BE2
:10426000204604EB87029161E1688847012F0546EB
:1042700018D1E069002820DA26F020061DE0D8F8E1
:10428000180000EB800005EB40003038C8F818003B
:104290002046E1688847054601F0DEFD0028EED1A2
:1042A000012F0AD02E2D08D12046E16888477F1CB7
:1042B0000546022F46F02006C4DBA069002803DA79
:1042C000404246F00106A061F00701D026F010063A
:1042D0006C2D0AD0682D08D04C2D39D06A2D35D0E0
:1042E000742D35D07A2D33D016E0E1682F46204664
:1042F0008847B84205460AD16C2F27D04FF480601A
:10430000E168064320468847054605E027E06C2F14
:104310001AD04FF4807006430DB3A5F1410019285F
:1043200002D8203546F400664A46294620462660D3
:104330004E46FBF763FF80B101280BD0F61D26F037
:10434000070000F1080965E74020E4E78020D7E78F
:104350000020D5E706F104095CE7284661E7206AFA
:10436000BDE8F087032A40F2308010F0030C00F023
:10437000158011F8013BBCF1020F624498BF11F89F
:1043800001CB00F8013B38BF11F8013BA2F1040258
:1043900098BF00F801CB38BF00F8013B11F00303D0
:1043A00000F0AE82083AC0F0088051F8043B083AA9
:1043B00051F804CBA0E80810F5E7121D5CBF51F8D6
:1043C000043B40F8043BAFF30080D20724BF11F850
:1043D000013B11F801CB48BF11F8012B24BF00F8B5
:1043E000013B00F801CB48BF00F8012B7047704734
:1043F00070477047704710B500F0B8FA006810BDFC
:1044000010B5044600F0B2FA046010BD2DE9F04783
:104410000D4699469246044600F124080168880634
:1044200004D5E06921F01001216000E00120A842DC
:1044300001DD471B00E00027A1697A1902EB0900A2
:10444000081AA0612078C00602D42046FFF786FE35
:10445000002608E0D4E901211AF806009047206AF6
:10446000401C761C20624E45F4DB2078C0060AD53D
:104470002046FFF773FE06E0D4E901213020904783
:10448000206A401C2062381EA7F10107F4DC07E017
:10449000D4E9012118F805009047206A401C2062E9
:1044A000281EA5F10105F3DC2046FFF76DFE2078FC
:1044B000000602D50220BDE8F0870120FBE7704727
:1044C0002DE9FF4F0C461E464FF0FF378BB0D2E967
:1044D0000001DDF860800A908A46C1F30A5505B9EB
:1044E0003D46002108464FF00000BAF1000F00F4ED
:1044F000400005DA00EB80004FF4400101EA500073
:104500004FEA9059B9F1010F00DDB9460A9850EA17
:104510004A000ED044F61050A5F2FF3545432F1443
:10452000B8F1000F1ED07542291E1EDDC9F1000230
:104530001CE0B8F1010F4FF0000001D0302103E082
:10454000F24305E02154401CB042FBDB3046002220
:10455000002121540B99C1F80880C1E900200FB057
:10456000BDE8F08FBD1B6D1CDEE74A4600DA6942EC
:1045700006A800F09DFA06AB93E8070003AB83E8BA
:10458000070050460A9900F07BFB8DE80700A0F574
:1045900000501F3800900398002D0ADD42F21F01E1
:1045A0004A460844002303A90390684600F0E4FD4E
:1045B00009E0A0F500504A461F38002303A90390E4
:1045C000684600F0EEFD8DE807000004000C03D003
:1045D0004FF0FF30410800E01046B8F1000F03D063
:1045E0000022009215461EE0751E05D400F0C2F9A7
:1045F000303262556D1EF9D5B3460122084302D010
:1046000000227F1C04E02078302801D100227F1E88
:10461000002A099784D01DE0112D07DA00F0AAF9CD
:10462000303262556D1C50EA0102F5D1084302D0C8
:104630000098C8B10EE00021681E05E0235C625CB2
:1046400063542254401E491C8142F7DBAB46A81B31
:10465000401E0990002004F80B000B98099AC0F83E
:104660000880C0E9002B7AE711264FF0000857E7D1
:104670002DE9F04F88460446D21D22F0070191B083
:10468000D1E90001CDE90A0100F0C2FE02460B9813
:10469000C00F01D02D2007E02068810701D52B2015
:1046A00002E0202101EAC000032A099001D0072A74
:1046B00005DB03464146204600F0BAF90BE12078BD
:1046C000800601D5E06900E00620B8F1650F81465B
:1046D00006D0B8F1660F18D0B8F1670F70D131E08D
:1046E0000020B9F1110F009001DB112301E009F165
:1046F00001030AAA01A90CA8FFF7E2FEDDE90C708C
:10470000002609F10105834647E001204B46009051
:104710004FF000470AAA01A90CA8FFF7D1FEDDE976
:104720000DB00C995D46002610B909F101000D1875
:10473000B9EB050003D4C0F1FF3609F10105A5EB83
:1047400009002BE0B9F1010F01DA4FF00109002057
:10475000B9F1110F0090484601DD112300E0034636
:104760000AAA01A90CA8FFF7ABFEDDE90C704D46C3
:1047700000268346207800070AD4AB4500DA5D4660
:1047800001A8012D04DD411911F8011C302907D0C1
:104790004F4502DA17F1040F04DA012082460FE0D8
:1047A0006D1EEEE7002F02DCED1B3E4403E0781C9B
:1047B000A84200DD7D1CB81B00F1010A4FF0004744
:1047C0002078000703D4AA4501DB4FF0FF3A00210F
:1047D000B7F1004F0DF143088DF8431024D00220AB
:1047E0002B23002F01DA7F422D230A21021EA0F184
:1047F000010000DC5FB197FBF1FC97FBF1F201FBDC
:104800001C7C17460CF1300C08F801CDEEE7A8F13E
:10481000010003702188090501D5452100E06521CB
:10482000A0F1010800F8011C09980FA9A1EB0807E5
:10483000FF1D00B10120411901EBEA70A169384464
:10484000081A401EA0612078C00602D42046FFF757
:1048500085FC099828B1D4E901219047206A401CC1
:1048600020622078C00622D52046FFF777FC1EE0A4
:10487000002E04DBB34502DD01A8805D00E030209E
:10488000D4E901219047206A401C2062761CAAF1DD
:1048900001005FEA000A0AD100F064F8C06801680C
:1048A000405CD4E901219047206A401C2062281E08
:1048B000A5F10105DCDC07E0D4E9012118F8010BC2
:1048C0009047206A401C2062381EA7F10107F3DCE4
:1048D0002046FFF759FC032011B041E6074B70B5A5
:1048E0000D467B4400F091F80446284600F052F94A
:1048F00010B14FF0FF3070BD204670BDBBE2FFFF2E
:1049000010B5203AC0F00B80B1E81850203AA0E86A
:104910001850B1E81850A0E81850BFF4F5AF5FEA9E
:10492000027C24BFB1E81850A0E8185044BF18C951
:1049300018C0BDE810405FEA827C24BF51F8043BF8
:1049400040F8043B08BF7047D20728BF31F8023B4C
:1049500048BF11F8012B28BF20F8023B48BF00F8E0
:10496000012B7047004870472C0300200048704717
:104970000C03002030B5B0F10A024FEA900E71F13D
:1049800000034EEA817EB0EB0E0061EB91014FEA2D
:10499000101E4EEA017E10EB0E0041EB11114FEAA2
:1049A000102E4EEA016E10EB0E0041EB11214FEA82
:1049B000104E4EEA014E10EB0E0041EB1141401833
:1049C00041F100014FEAD00040EA41704FEAD101C5
:1049D00010EB80054FEA810444EA907444EB010433
:1049E0006D1944EB0404521BA3414FF0000348BF70
:1049F0000A3200D530BD401C41F1000130BD00003D
:104A000001694A1C02610878704700B58FB0CDE992
:104A100001310021059105497944CDE90310114682
:104A20006846FFF7EFFB0FB000BD0000E5FFFFFF9A
:104A30002DE9F0411F46044603260168072A01F4C8
:104A4000006004DB08B116A505E016A503E008B177
:104A500015A500E015A521F010002060A069C01E7A
:104A6000A0610FB1401EA0612046FFF777FB4FB158
:104A7000D4E9012138469047206A401C2062C01CBE
:104A8000206206E0206AFAE7D4E9012115F8010B5B
:104A90009047761EF8D22046FFF776FBBDE8F081FE
:104AA0004E414E006E616E00494E4600696E6600D2
:104AB0002DE9F047814616468AB0354878440DC83E
:104AC0008DE80D0032487844801C03AC0DC884E8A2
:104AD0000D0041F69B300844372190FBF1F290FB2A
:104AE000F1F5A5F1800501FB12041B3C02D56442DF
:104AF000012000E00020DFF898A080460027FA445B
:104B0000AAF1BE0A0EE0E0070AD03246684607EB7B
:104B1000470101230AEB810100F043FB8DE8070008
:104B200064107F1C002CEED1194F7F44AE3F19E07A
:104B3000E80715D007EB04100DF1180A90E80E00F5
:104B40008AE80E00C068F04201D1981908903246F8
:104B5000012306A903A800F024FB03AB83E80700A8
:104B60006D10641C002DE3D14FF0010332466946FD
:104B7000B8F1000F03A802D000F0FEFA01E000F047
:104B800010FBC9E90001C9F808200AB0BDE8F087A8
:104B90003C220000007B00F0800070470048704716
:104BA0000C0300207546FFF7F9FFAE460500694685
:104BB000534620F00700854618B020B5FEF78AF866
:104BC000BDE820404FF000064FF000074FF000080E
:104BD0004FF0000B21F00701AC46ACE8C009ACE88F
:104BE000C009ACE8C009ACE8C0098D46704710B5F3
:104BF0000446AFF300802046BDE81040FBF71DBB24
:104C00004FF0013C50F8042B51F8043B9A4221D15B
:104C1000A2EB0C03934313EACC1317D150F8042BE7
:104C200051F8043B9A4215D1A2EB0C03934313EACB
:104C3000CC130BD150F8042B51F8043B9A4209D104
:104C4000A2EB0C03934313EACC13DBD04FF000002C
:104C5000704700BFD01A01BAB1FA81F101F0180112
:104C600022FA01F0CB40C1F12001DBB2C0B2C01A80
:104C70002CFA01F3D11A914311EAC311E6D170471E
:104C80005FEA400C08BF91F0000F4FEA8C234FEA17
:104C9000C12243EA51514FEA1C5018BF00F5F040C1
:104CA0004FEA300018BF41F000415FEA6C5C00F051
:104CB0002980BCF1FF3F08BF40F080407047130CD3
:104CC00006BF12044FF0100C4FF0000C130E04BF7F
:104CD00012020CF1080C130F04BF12010CF1040CAA
:104CE000930F04BF92000CF1020CD30F04BF5200CB
:104CF0000CF1010C11464FF00002A0F11F00A0EBD7
:104D00000C00704711F0004F08BF704731F00041B0
:104D10003FF4D5AF0B0C06BF09044FF0100C4FF059
:104D2000000C0B0E04BF09020CF1080C0B0F04BFA2
:104D300009010CF1040C8B0F04BF89000CF1020C6B
:104D4000CB0F04BF49000CF1010CCCF12003A0EB08
:104D50000C0022FA03F302FA0CF241EA030100F11B
:104D60000100704720F07F4C80EA030023F07F476A
:104D7000ACEB070303F57C5300F0004003F1FF03A5
:104D80002DE980494FEA154B09B44FEA144325EA4F
:104D90000B4E24EA03480FF2042606EB13274908BA
:104DA0003E785FEA320203FB0667C7F5000707FBA0
:104DB00006F64FEA54374FEAD64606F1020607FBDD
:104DC000066CCCF1005C4FEA1C472CEA074C07FB51
:104DD00006F40CFB06F504EB15464FEA961634BFB5
:104DE00000204FF000404FEAD13706FB07FC4FEAA6
:104DF0001C4C0CFB0BF7D21B03FB0CF761EB070100
:104E00000CFB0EF7B0EB074072EB17420CFB08F7F8
:104E100034BFA2EB0742B2EB074261EB17414FEA06
:104E20000C444FEA910706FB07FC4FEA1C4C0CFBB5
:104E30000BF7B0EBC74072EB573203FB0CF734BFF4
:104E4000A2EBC742B2EBC74261EB57310CFB0EF746
:104E5000B0EBC70072EB57720CFB08F734BFA2EB44
:104E6000C702B2EBC70261EB5771039F4FEA816142
:104E700041EA921104EBCC044FEAD1374FEA826247
:104E800006FB07FC42EA90124FEA80604FEA1C4C96
:104E90000CFB0BF7D21B03FB0CF761EB07010CFBC0
:104EA0000EF7B0EB074072EB17420CFB08F734BF6C
:104EB000A2EB0742B2EB074261EB17414FEA8C5578
:104EC0004FEA910704EB9C2406FB07FC4FEA1C4CBD
:104ED0000CFB0BF7B0EBC74072EB573203FB0CF740
:104EE00034BFA2EBC742B2EBC74261EB57310CFBB8
:104EF0000EF7B0EBC70072EB57720CFB08F734BF2C
:104F0000A2EBC702B2EBC70261EB577115EB4C2560
:104F10004FEA816141EA92114FEA82624FEAD1374A
:104F200042EA901206FB07FC44F100044FEA80605D
:104F30004FEA1C4C0CFB0BF7D21B03FB0CF761EB8D
:104F400007010CFB0EF7B0EB074072EB17420CFBAE
:104F500008F734BFA2EB0742B2EB074261EB1741FF
:104F600015EB1C154FEA813141EA92414FEA82323A
:104F700042EA90424FEA80304FEA0C7644F1000456
:104F800048EA03434EEA0B484FF0000EB2EB080C20
:104F900071EB030724BF624639464EEB0E0E4FF00D
:104FA000000B0018524149414BEB0B0BB2EB080CC4
:104FB00071EB03077BF1000B24BF624639464EEBD1
:104FC0000E0E4FF0000B0018524149414BEB0B0BFA
:104FD000B2EB080C71EB03077BF1000B24BF6246B8
:104FE00039464EEB0E0E51EA020718BF46F0010695
:104FF00016EB0E7655F1000254F1000103D5BDE821
:105000008901BDE80088BDE88901BDE80048B619FE
:10501000524141EB0101A3F10103704780807F7E83
:105020007D7C7B7A7978777676757473727171701E
:105030006F6E6E6D6C6C6B6A6A69686867666665D0
:105040006464636362616160605F5F5E5E5D5D5C5E
:105050005C5B5B5A5A5959585857575656555555CF
:105060005454535352525251515050504F4F4F4E2F
:105070004E4D4D4D4C4C4C4B4B4B4A4A4A4949497D
:1050800048484847474747464646454545444444BF
:10509000444343434342424242414141002B9C46E8
:1050A00030D477002BD01CB54FEA370703B44FF04C
:1050B00010004FF01001BAF1000F06D0BCF1000F44
:1050C000DCBF40F0080040F008014FF000000FBCCA
:1050D000BDE810400BF1010BBBF1010F08BF5FEA07
:1050E000170722BF12F1010211F101014FF0004137
:1050F00043F1000300F0004043EA00007047F9D399
:105100005708D0E746EA064613F1400F4FEA164625
:105110001FDD13F1200FDFBF16430A4600212033A5
:105120005B42BED0C3F1200746EA064602FA07F703
:105130004FEA164646EA0706C3F1200722FA03F2B1
:1051400001FA07F721FA03F14FF0000342EA0702E0
:10515000A7E746EA020646EA06464FEA164646EA48
:105160000106BCBF46EA0646360C4FF000034FF07E
:1051700000024FF0000194E72DE9804C9A469346D7
:1051800070B491E8380007C831EA400C48BF34EAEF
:10519000430C03D5FFF7E6FDFFF780FFF0BCBDE849
:1051A000008C2DE9804C9A46934670B491E8380003
:1051B00007C810F0804F08BF13F0804F03D100F0F4
:1051C00005F8FFF76BFFF0BCBDE8008C20F07F47CF
:1051D00080EA030023F07F4C07EB0C03A3F57C531C
:1051E00000F00040A3F1FE0392F0000F00F0B38046
:1051F00095F0000F00F077802DE901494FEA11404A
:105200004FEA144621EA004800FB06FC24EA064760
:1052100008FB06F607FB08F800FB07F718EB064843
:105220004CEB164C4FEA124B18EB07484FEA154669
:105230004CEB174022EA0B4E0BFB06FC25EA064717
:105240000EFB06F607FB0EFE0BFB07F71EEB064EEA
:105250004CEB164C4FF000061EEB074E4CEB174B79
:1052600018EB0B0840F1000018EB0E0B58EB000890
:1052700040F100008F1A4FF000013CBFC943661B8C
:1052800014BFB5EB040C00213CBFC943F61B4FEA29
:1052900017444EEA8E0E27EA04454FEA1C4704FBEA
:1052A00007622CEA074C05FB07F70CFB05F604FB2D
:1052B0000CFC16EB074642EB174216EB0C4642EB92
:1052C0001C421BEB060658EB0202414146EA9E06D1
:1052D00001D5BDE80189B619524141EB0101A3F1A5
:1052E0000103BDE801894FEA14454FEA114724EA5A
:1052F000054621EA074C05FB07F406FB07F70CFB04
:1053000006F105FB0CFC11EB074144EB17444FEA97
:10531000124711EB0C4144EB1C4422EA074C05FBFD
:1053200007F206FB07F70CFB06F605FB0CFC16EB79
:10533000074642EB174216EB0C4642EB1C456A1837
:1053400054F1000148BF7047B619524141EB0101C9
:10535000A3F10103704795F0000F37D04FEA1142D7
:105360004FEA144721EA024624EA074C02FB07F100
:1053700006FB07F70CFB06F402FB0CFC14EB0744DE
:1053800041EB17414FEA154714EB0C4441EB1C412C
:1053900025EA074C02FB07F506FB07F70CFB06F6B0
:1053A00002FB0CFC16EB074645EB174516EB0C46CB
:1053B00045EB1C42121951F1000148BF7047B61964
:1053C000524141EB0101A3F1010370474FEA14453B
:1053D0004FEA114724EA054621EA074C05FB07F18D
:1053E00006FB07F70CFB06F24FF0000605FB0CFC72
:1053F00012EB074241EB174112EB0C4251EB1C41FF
:1054000048BF7047921841EB0101A3F101037047B7
:1054100003B401984100009850EAC12018BF04204D
:105420004A0D18BF40F0010040F2FF72B2EB515F2D
:1054300008BF40F00200012808BF052002B07047F5
:1054400070B5C1482DED020B2DED0E8B82B0119D74
:1054500025F000449FEDBEDB9FEDBFEB84423EDBB9
:10546000A4F140511098A1F17F6108430FD0BC48CE
:10547000844202DC28D1109830B39DED100B02B0AD
:10548000BDEC0E8B02B0BDE8704000F0B0BC9DEDED
:10549000100B53EC1D2B51EC100B00F0E3FF9DEDB6
:1054A000100B41EC180B53EC1E2B51EC100B00F0C1
:1054B000D9FF53EC182B00F075FD41EC100B02B036
:1054C000BDEC0E8B02B070BD0120FEF799FF02B05B
:1054D000BDEC0E8B02B0BDE8704000F09DBCA14851
:1054E0009FEDA18B844256DA9DED100BB4F1795FEC
:1054F0000ADA51EC100BFFF78BFF042808BF00F00D
:105500009BFC9DED100BDAE753EC102B51EC100BCC
:1055100000F0A8FF41EC190B95480621B0EE490AAE
:10552000F0EE690A784400F0E6FB53EC192B51ECDD
:10553000100B00F097FF41EC1A0B8E48B0EE490AB1
:10554000F0EE690A0421784400F0D5FB53EC192BE6
:1055500051EC100B00F086FF53EC182B00F022FDED
:1055600041EC100B51EC1A0B53EC102B00F0CEFD5C
:10557000CDE900019DED000B53EC102B9DED100BC0
:1055800051EC100B00F06EFF9DED101B53EC112B36
:1055900000F008FDD2E09DED100B51EC100B00F077
:1055A0006AFC53EC182B01F091F89FED730BCDE9D9
:1055B000000153EC102B9DED000B51EC100B00F093
:1055C00051FF41EC190B6E480621B0EE490AF0EE8E
:1055D000690A784400F08FFB53EC192B51EC100B47
:1055E00000F040FF41EC1B0B6648B0EE490AF0EEBC
:1055F000690A0421784400F07EFB53EC192B51EC2E
:10560000100B00F02FFF53EC182B00F0CBFC41ECFB
:105610001C0B51EC190B00F03AFC41EC180B5A48EA
:105620009FED5BABA04222DC53EC1C2B51EC1B0B1F
:1056300000F06CFDCDE900019DED000B51EC180B65
:1056400053EC102B00F00EFF53EC182B00F0AAFCCB
:1056500053EC1A2B00F006FF53EC1D2B01F00EF952
:1056600053EC1E2B01F032F841EC100B5FE08DED96
:10567000008B002000909DED000B51EC180B53ECBB
:10568000102B00F08FFC9DED000B41EC1E0B53EC3A
:10569000102B51EC100B00F0E5FE53EC192B01F030
:1056A00015F853EC1E2B00F031FD41EC190B53ECB7
:1056B0001C2B51EC1B0B00F029FD41EC1B0B53EC98
:1056C0001A2B51EC190B00F0CDFE53EC1D2B00F002
:1056D000FDFF41EC190B53EC1A2B51EC180B00F0A9
:1056E000C1FE53EC1B2B00F0BDFE53EC192B01F057
:1056F000C5F89DED000B41EC180B53EC1A2B51EC47
:10570000100B00F0AFFE9FED249B53EC192B00F023
:10571000DDFF41EC100B51EC180B53EC102B01F09A
:10572000ADF853EC192B00F0D1FF41EC100B002D1C
:105730003FF7C5AE51EC100B00F0F6FB41EC100B3F
:10574000BDE60000000000000000F03F0000000087
:10575000075C143326A6913C182D4454FB21F93FD5
:105760000000F07F0000E03F000000000000F03F7C
:105770006816000076160000000000000000E03F00
:10578000BA150000C81500003333EF3F00000000D9
:105790000000000000000040182D4454FB21E93FA8
:1057A00070B59B482DED020B2DED068B079D25F066
:1057B0000044A04218DC9748844202DC0AD10698D3
:1057C00040B19DED060BBDEC068B02B0BDE870400C
:1057D00000F00DBB002DCCBF9FED8F0B9FED900B0C
:1057E000BDEC068B02B070BD8F48A04215DD8F481E
:1057F000A042D8BF4FF0FF3458DD9DED060B51ECB1
:10580000100BFFF705FE042808BF00F015FB9DED07
:10581000060BBDEC068B02B070BD9DED060B51EC86
:10582000100B00F028FBCDE9060181489FED828B2B
:10583000A0423CDD8248A0421FDD00249FED82ABE8
:105840009DED060B53EC1A2B51EC100B00F0AAFB4C
:105850009DED060B41EC190B53EC1A2B51EC100B80
:1058600000F000FE53EC182B01F008F853EC192B54
:1058700000F04CFCCDE9060149E09DED060B01244A
:1058800053EC182B51EC100B00F08CFB9DED060B2C
:1058900041EC190B53EC182B51EC100B00F0EEFF00
:1058A00053EC192B00F032FCCDE906012FE06848DB
:1058B000A0421FDD02249FED689B9DED060B53EC7B
:1058C000192B51EC100B00F0CDFD53EC182B00F010
:1058D00069FB9DED060B41EC180B53EC192B51ECB9
:1058E000100B00F0CBFF53EC182B00F00FFCCDE9B0
:1058F00006010CE09DED060B032453EC102B9FEDED
:10590000580B51EC100B00F001FCCDE906019DEDA8
:10591000060B53EC102B51EC100B00F0A3FD41ECE7
:10592000180B53EC182B00F09DFD41EC190B4E4861
:105930000621B0EE490AF0EE690A784400F0DBF97E
:1059400053EC182B51EC100B00F08CFD41EC180BB4
:105950004648B0EE490AF0EE690A0521784400F0A5
:10596000CAF953EC192B51EC100B00F07BFD41EC04
:10597000100B51EC180B53EC102B002C0EDA00F02E
:1059800011FB9DED061B53EC112B00F06BFD9DED03
:10599000061B53EC112B00F099FE35E000F002FBE2
:1059A0009DED061B53EC112B00F05CFD41EC100B40
:1059B0002F48784400EBC40090ED001B51EC100B15
:1059C00053EC112B00F05AFF9DED061B53EC112BED
:1059D00000F054FF41EC100B2648784400EBC40063
:1059E00090ED001B51EC100B53EC112B00F06EFEF0
:1059F00041EC100B002DA2BFBDEC068B02B070BDB8
:105A000051EC100B00F090FA41EC100B01E7000094
:105A1000000010440000F07F182D4454FB21F93F92
:105A2000182D4454FB21F9BF0000DC3F0000203E4C
:105A30000000F33F00000000000000000000F03F05
:105A40000000E63F000000000000000000000040F1
:105A50000080034000000000000000000000F83F4C
:105A6000000000000000F0BF0A130000C012000098
:105A70004A1200000212000070B56B4E2DED040BAF
:105A80002DED028B82B0DDF81CC0DDE905235C4200
:105A90002CF000411C4341EAD474049D22F00040E4
:105AA000B44205D86C422C4340EAD474B4420BD9BA
:105AB0009DED061B9DED040B02B0BDEC028B04B006
:105AC000BDE8704000F09DB9ACF14054A4F17F6492
:105AD0001C430BD0022404EAAC7444EAD27405439C
